{
	"Contract/Tokrnmaker1.sol": {
		"GTNToken": {
			"abi": [
				{
					"inputs": [
						{
							"internalType": "uint256",
							"name": "initialSupply",
							"type": "uint256"
						}
					],
					"stateMutability": "nonpayable",
					"type": "constructor"
				},
				{
					"anonymous": false,
					"inputs": [
						{
							"indexed": true,
							"internalType": "address",
							"name": "owner",
							"type": "address"
						},
						{
							"indexed": true,
							"internalType": "address",
							"name": "spender",
							"type": "address"
						},
						{
							"indexed": false,
							"internalType": "uint256",
							"name": "value",
							"type": "uint256"
						}
					],
					"name": "Approval",
					"type": "event"
				},
				{
					"anonymous": false,
					"inputs": [
						{
							"indexed": true,
							"internalType": "address",
							"name": "buyer",
							"type": "address"
						},
						{
							"indexed": false,
							"internalType": "uint256",
							"name": "itemId",
							"type": "uint256"
						},
						{
							"indexed": false,
							"internalType": "uint256",
							"name": "price",
							"type": "uint256"
						}
					],
					"name": "ItemBought",
					"type": "event"
				},
				{
					"anonymous": false,
					"inputs": [
						{
							"indexed": false,
							"internalType": "uint256",
							"name": "itemId",
							"type": "uint256"
						},
						{
							"indexed": false,
							"internalType": "uint256",
							"name": "price",
							"type": "uint256"
						}
					],
					"name": "ItemPriceSet",
					"type": "event"
				},
				{
					"anonymous": false,
					"inputs": [
						{
							"indexed": true,
							"internalType": "address",
							"name": "previousOwner",
							"type": "address"
						},
						{
							"indexed": true,
							"internalType": "address",
							"name": "newOwner",
							"type": "address"
						}
					],
					"name": "OwnershipTransferred",
					"type": "event"
				},
				{
					"anonymous": false,
					"inputs": [
						{
							"indexed": true,
							"internalType": "address",
							"name": "from",
							"type": "address"
						},
						{
							"indexed": true,
							"internalType": "address",
							"name": "to",
							"type": "address"
						},
						{
							"indexed": false,
							"internalType": "uint256",
							"name": "value",
							"type": "uint256"
						}
					],
					"name": "Transfer",
					"type": "event"
				},
				{
					"inputs": [
						{
							"internalType": "address",
							"name": "owner",
							"type": "address"
						},
						{
							"internalType": "address",
							"name": "spender",
							"type": "address"
						}
					],
					"name": "allowance",
					"outputs": [
						{
							"internalType": "uint256",
							"name": "",
							"type": "uint256"
						}
					],
					"stateMutability": "view",
					"type": "function"
				},
				{
					"inputs": [
						{
							"internalType": "address",
							"name": "spender",
							"type": "address"
						},
						{
							"internalType": "uint256",
							"name": "amount",
							"type": "uint256"
						}
					],
					"name": "approve",
					"outputs": [
						{
							"internalType": "bool",
							"name": "",
							"type": "bool"
						}
					],
					"stateMutability": "nonpayable",
					"type": "function"
				},
				{
					"inputs": [
						{
							"internalType": "address",
							"name": "account",
							"type": "address"
						}
					],
					"name": "balanceOf",
					"outputs": [
						{
							"internalType": "uint256",
							"name": "",
							"type": "uint256"
						}
					],
					"stateMutability": "view",
					"type": "function"
				},
				{
					"inputs": [
						{
							"internalType": "uint256",
							"name": "itemId",
							"type": "uint256"
						}
					],
					"name": "buyItem",
					"outputs": [],
					"stateMutability": "nonpayable",
					"type": "function"
				},
				{
					"inputs": [],
					"name": "decimals",
					"outputs": [
						{
							"internalType": "uint8",
							"name": "",
							"type": "uint8"
						}
					],
					"stateMutability": "view",
					"type": "function"
				},
				{
					"inputs": [
						{
							"internalType": "address",
							"name": "spender",
							"type": "address"
						},
						{
							"internalType": "uint256",
							"name": "subtractedValue",
							"type": "uint256"
						}
					],
					"name": "decreaseAllowance",
					"outputs": [
						{
							"internalType": "bool",
							"name": "",
							"type": "bool"
						}
					],
					"stateMutability": "nonpayable",
					"type": "function"
				},
				{
					"inputs": [
						{
							"internalType": "address",
							"name": "user",
							"type": "address"
						},
						{
							"internalType": "uint256",
							"name": "itemId",
							"type": "uint256"
						}
					],
					"name": "hasPurchasedItem",
					"outputs": [
						{
							"internalType": "bool",
							"name": "",
							"type": "bool"
						}
					],
					"stateMutability": "view",
					"type": "function"
				},
				{
					"inputs": [
						{
							"internalType": "address",
							"name": "spender",
							"type": "address"
						},
						{
							"internalType": "uint256",
							"name": "addedValue",
							"type": "uint256"
						}
					],
					"name": "increaseAllowance",
					"outputs": [
						{
							"internalType": "bool",
							"name": "",
							"type": "bool"
						}
					],
					"stateMutability": "nonpayable",
					"type": "function"
				},
				{
					"inputs": [
						{
							"internalType": "uint256",
							"name": "",
							"type": "uint256"
						}
					],
					"name": "itemPrices",
					"outputs": [
						{
							"internalType": "uint256",
							"name": "",
							"type": "uint256"
						}
					],
					"stateMutability": "view",
					"type": "function"
				},
				{
					"inputs": [
						{
							"internalType": "address",
							"name": "recipient",
							"type": "address"
						},
						{
							"internalType": "uint256",
							"name": "amount",
							"type": "uint256"
						}
					],
					"name": "mintGTN",
					"outputs": [],
					"stateMutability": "nonpayable",
					"type": "function"
				},
				{
					"inputs": [],
					"name": "name",
					"outputs": [
						{
							"internalType": "string",
							"name": "",
							"type": "string"
						}
					],
					"stateMutability": "view",
					"type": "function"
				},
				{
					"inputs": [],
					"name": "owner",
					"outputs": [
						{
							"internalType": "address",
							"name": "",
							"type": "address"
						}
					],
					"stateMutability": "view",
					"type": "function"
				},
				{
					"inputs": [
						{
							"internalType": "address",
							"name": "",
							"type": "address"
						},
						{
							"internalType": "uint256",
							"name": "",
							"type": "uint256"
						}
					],
					"name": "purchaseHistory",
					"outputs": [
						{
							"internalType": "bool",
							"name": "",
							"type": "bool"
						}
					],
					"stateMutability": "view",
					"type": "function"
				},
				{
					"inputs": [],
					"name": "renounceOwnership",
					"outputs": [],
					"stateMutability": "nonpayable",
					"type": "function"
				},
				{
					"inputs": [
						{
							"internalType": "uint256",
							"name": "itemId",
							"type": "uint256"
						},
						{
							"internalType": "uint256",
							"name": "price",
							"type": "uint256"
						}
					],
					"name": "setItemPrice",
					"outputs": [],
					"stateMutability": "nonpayable",
					"type": "function"
				},
				{
					"inputs": [],
					"name": "symbol",
					"outputs": [
						{
							"internalType": "string",
							"name": "",
							"type": "string"
						}
					],
					"stateMutability": "view",
					"type": "function"
				},
				{
					"inputs": [],
					"name": "totalSupply",
					"outputs": [
						{
							"internalType": "uint256",
							"name": "",
							"type": "uint256"
						}
					],
					"stateMutability": "view",
					"type": "function"
				},
				{
					"inputs": [
						{
							"internalType": "address",
							"name": "recipient",
							"type": "address"
						},
						{
							"internalType": "uint256",
							"name": "amount",
							"type": "uint256"
						}
					],
					"name": "transfer",
					"outputs": [
						{
							"internalType": "bool",
							"name": "",
							"type": "bool"
						}
					],
					"stateMutability": "nonpayable",
					"type": "function"
				},
				{
					"inputs": [
						{
							"internalType": "address",
							"name": "sender",
							"type": "address"
						},
						{
							"internalType": "address",
							"name": "recipient",
							"type": "address"
						},
						{
							"internalType": "uint256",
							"name": "amount",
							"type": "uint256"
						}
					],
					"name": "transferFrom",
					"outputs": [
						{
							"internalType": "bool",
							"name": "",
							"type": "bool"
						}
					],
					"stateMutability": "nonpayable",
					"type": "function"
				},
				{
					"inputs": [
						{
							"internalType": "address",
							"name": "newOwner",
							"type": "address"
						}
					],
					"name": "transferOwnership",
					"outputs": [],
					"stateMutability": "nonpayable",
					"type": "function"
				}
			],
			"devdoc": {
				"events": {
					"Approval(address,address,uint256)": {
						"details": "Emitted when the allowance of a `spender` for an `owner` is set by a call to {approve}. `value` is the new allowance."
					},
					"Transfer(address,address,uint256)": {
						"details": "Emitted when `value` tokens are moved from one account (`from`) to another (`to`). Note that `value` may be zero."
					}
				},
				"kind": "dev",
				"methods": {
					"allowance(address,address)": {
						"details": "See {IERC20-allowance}."
					},
					"approve(address,uint256)": {
						"details": "See {IERC20-approve}. Requirements: - `spender` cannot be the zero address."
					},
					"balanceOf(address)": {
						"details": "See {IERC20-balanceOf}."
					},
					"decimals()": {
						"details": "Returns the number of decimals used to get its user representation. For example, if `decimals` equals `2`, a balance of `505` tokens should be displayed to a user as `5,05` (`505 / 10 ** 2`). Tokens usually opt for a value of 18, imitating the relationship between Ether and Wei. This is the value {ERC20} uses, unless this function is overloaded; NOTE: This information is only used for _display_ purposes: it in no way affects any of the arithmetic of the contract, including {IERC20-balanceOf} and {IERC20-transfer}."
					},
					"decreaseAllowance(address,uint256)": {
						"details": "Atomically decreases the allowance granted to `spender` by the caller. This is an alternative to {approve} that can be used as a mitigation for problems described in {IERC20-approve}. Emits an {Approval} event indicating the updated allowance. Requirements: - `spender` cannot be the zero address. - `spender` must have allowance for the caller of at least `subtractedValue`."
					},
					"increaseAllowance(address,uint256)": {
						"details": "Atomically increases the allowance granted to `spender` by the caller. This is an alternative to {approve} that can be used as a mitigation for problems described in {IERC20-approve}. Emits an {Approval} event indicating the updated allowance. Requirements: - `spender` cannot be the zero address."
					},
					"name()": {
						"details": "Returns the name of the token."
					},
					"owner()": {
						"details": "Returns the address of the current owner."
					},
					"renounceOwnership()": {
						"details": "Leaves the contract without owner. It will not be possible to call `onlyOwner` functions anymore. Can only be called by the current owner. NOTE: Renouncing ownership will leave the contract without an owner, thereby removing any functionality that is only available to the owner."
					},
					"symbol()": {
						"details": "Returns the symbol of the token, usually a shorter version of the name."
					},
					"totalSupply()": {
						"details": "See {IERC20-totalSupply}."
					},
					"transfer(address,uint256)": {
						"details": "See {IERC20-transfer}. Requirements: - `recipient` cannot be the zero address. - the caller must have a balance of at least `amount`."
					},
					"transferFrom(address,address,uint256)": {
						"details": "See {IERC20-transferFrom}. Emits an {Approval} event indicating the updated allowance. This is not required by the EIP. See the note at the beginning of {ERC20}. Requirements: - `sender` and `recipient` cannot be the zero address. - `sender` must have a balance of at least `amount`. - the caller must have allowance for ``sender``'s tokens of at least `amount`."
					},
					"transferOwnership(address)": {
						"details": "Transfers ownership of the contract to a new account (`newOwner`). Can only be called by the current owner."
					}
				},
				"version": 1
			},
			"evm": {
				"assembly": "    /* \"Contract/Tokrnmaker1.sol\":280:2597  contract GTNToken is ERC20, Ownable {... */\n  mstore(0x40, 0x80)\n    /* \"Contract/Tokrnmaker1.sol\":633:1183  constructor(uint256 initialSupply) ERC20(\"GTNToken\", \"GTN\") {... */\n  callvalue\n  dup1\n  iszero\n  tag_1\n  jumpi\n  0x00\n  dup1\n  revert\ntag_1:\n  pop\n  mload(0x40)\n  sub(codesize, bytecodeSize)\n  dup1\n  bytecodeSize\n  dup4\n  codecopy\n  dup2\n  dup2\n  add\n  0x40\n  mstore\n  dup2\n  add\n  swap1\n  tag_2\n  swap2\n  swap1\n  tag_3\n  jump\t// in\ntag_2:\n    /* \"https://github.com/OpenZeppelin/openzeppelin-contracts/blob/v4.0.0/contracts/token/ERC20/ERC20.sol\":1842:1956  constructor (string memory name_, string memory symbol_) {... */\n  mload(0x40)\n  dup1\n  0x40\n  add\n  0x40\n  mstore\n  dup1\n  0x08\n  dup2\n  mstore\n  0x20\n  add\n  0x47544e546f6b656e000000000000000000000000000000000000000000000000\n  dup2\n  mstore\n  pop\n  mload(0x40)\n  dup1\n  0x40\n  add\n  0x40\n  mstore\n  dup1\n  0x03\n  dup2\n  mstore\n  0x20\n  add\n  0x47544e0000000000000000000000000000000000000000000000000000000000\n  dup2\n  mstore\n  pop\n    /* \"https://github.com/OpenZeppelin/openzeppelin-contracts/blob/v4.0.0/contracts/token/ERC20/ERC20.sol\":1917:1922  name_ */\n  dup2\n    /* \"https://github.com/OpenZeppelin/openzeppelin-contracts/blob/v4.0.0/contracts/token/ERC20/ERC20.sol\":1909:1914  _name */\n  0x03\n    /* \"https://github.com/OpenZeppelin/openzeppelin-contracts/blob/v4.0.0/contracts/token/ERC20/ERC20.sol\":1909:1922  _name = name_ */\n  swap1\n  dup2\n  tag_8\n  swap2\n  swap1\n  tag_9\n  jump\t// in\ntag_8:\n  pop\n    /* \"https://github.com/OpenZeppelin/openzeppelin-contracts/blob/v4.0.0/contracts/token/ERC20/ERC20.sol\":1942:1949  symbol_ */\n  dup1\n    /* \"https://github.com/OpenZeppelin/openzeppelin-contracts/blob/v4.0.0/contracts/token/ERC20/ERC20.sol\":1932:1939  _symbol */\n  0x04\n    /* \"https://github.com/OpenZeppelin/openzeppelin-contracts/blob/v4.0.0/contracts/token/ERC20/ERC20.sol\":1932:1949  _symbol = symbol_ */\n  swap1\n  dup2\n  tag_10\n  swap2\n  swap1\n  tag_9\n  jump\t// in\ntag_10:\n  pop\n    /* \"https://github.com/OpenZeppelin/openzeppelin-contracts/blob/v4.0.0/contracts/token/ERC20/ERC20.sol\":1842:1956  constructor (string memory name_, string memory symbol_) {... */\n  pop\n  pop\n    /* \"https://github.com/OpenZeppelin/openzeppelin-contracts/blob/v4.0.0/contracts/access/Ownable.sol\":867:884  address msgSender */\n  0x00\n    /* \"https://github.com/OpenZeppelin/openzeppelin-contracts/blob/v4.0.0/contracts/access/Ownable.sol\":887:899  _msgSender() */\n  tag_12\n    /* \"https://github.com/OpenZeppelin/openzeppelin-contracts/blob/v4.0.0/contracts/access/Ownable.sol\":887:897  _msgSender */\n  shl(0x20, tag_13)\n    /* \"https://github.com/OpenZeppelin/openzeppelin-contracts/blob/v4.0.0/contracts/access/Ownable.sol\":887:899  _msgSender() */\n  0x20\n  shr\n  jump\t// in\ntag_12:\n    /* \"https://github.com/OpenZeppelin/openzeppelin-contracts/blob/v4.0.0/contracts/access/Ownable.sol\":867:899  address msgSender = _msgSender() */\n  swap1\n  pop\n    /* \"https://github.com/OpenZeppelin/openzeppelin-contracts/blob/v4.0.0/contracts/access/Ownable.sol\":918:927  msgSender */\n  dup1\n    /* \"https://github.com/OpenZeppelin/openzeppelin-contracts/blob/v4.0.0/contracts/access/Ownable.sol\":909:915  _owner */\n  0x05\n  0x00\n    /* \"https://github.com/OpenZeppelin/openzeppelin-contracts/blob/v4.0.0/contracts/access/Ownable.sol\":909:927  _owner = msgSender */\n  0x0100\n  exp\n  dup2\n  sload\n  dup2\n  0xffffffffffffffffffffffffffffffffffffffff\n  mul\n  not\n  and\n  swap1\n  dup4\n  0xffffffffffffffffffffffffffffffffffffffff\n  and\n  mul\n  or\n  swap1\n  sstore\n  pop\n    /* \"https://github.com/OpenZeppelin/openzeppelin-contracts/blob/v4.0.0/contracts/access/Ownable.sol\":975:984  msgSender */\n  dup1\n    /* \"https://github.com/OpenZeppelin/openzeppelin-contracts/blob/v4.0.0/contracts/access/Ownable.sol\":942:985  OwnershipTransferred(address(0), msgSender) */\n  0xffffffffffffffffffffffffffffffffffffffff\n  and\n    /* \"https://github.com/OpenZeppelin/openzeppelin-contracts/blob/v4.0.0/contracts/access/Ownable.sol\":971:972  0 */\n  0x00\n    /* \"https://github.com/OpenZeppelin/openzeppelin-contracts/blob/v4.0.0/contracts/access/Ownable.sol\":942:985  OwnershipTransferred(address(0), msgSender) */\n  0xffffffffffffffffffffffffffffffffffffffff\n  and\n  0x8be0079c531659141344cd1fd0a4f28419497f9722a3daafe3b4186f6b6457e0\n  mload(0x40)\n  mload(0x40)\n  dup1\n  swap2\n  sub\n  swap1\n  log3\n    /* \"https://github.com/OpenZeppelin/openzeppelin-contracts/blob/v4.0.0/contracts/access/Ownable.sol\":857:992  {... */\n  pop\n    /* \"Contract/Tokrnmaker1.sol\":704:736  _mint(msg.sender, initialSupply) */\n  tag_15\n    /* \"Contract/Tokrnmaker1.sol\":710:720  msg.sender */\n  caller\n    /* \"Contract/Tokrnmaker1.sol\":722:735  initialSupply */\n  dup3\n    /* \"Contract/Tokrnmaker1.sol\":704:709  _mint */\n  shl(0x20, tag_16)\n    /* \"Contract/Tokrnmaker1.sol\":704:736  _mint(msg.sender, initialSupply) */\n  0x20\n  shr\n  jump\t// in\ntag_15:\n    /* \"Contract/Tokrnmaker1.sol\":824:834  2 * 10**18 */\n  0x1bc16d674ec80000\n    /* \"Contract/Tokrnmaker1.sol\":808:818  itemPrices */\n  0x06\n    /* \"Contract/Tokrnmaker1.sol\":808:821  itemPrices[0] */\n  0x00\n    /* \"Contract/Tokrnmaker1.sol\":819:820  0 */\n  dup1\n    /* \"Contract/Tokrnmaker1.sol\":808:821  itemPrices[0] */\n  dup2\n  mstore\n  0x20\n  add\n  swap1\n  dup2\n  mstore\n  0x20\n  add\n  0x00\n  keccak256\n    /* \"Contract/Tokrnmaker1.sol\":808:834  itemPrices[0] = 2 * 10**18 */\n  dup2\n  swap1\n  sstore\n  pop\n    /* \"Contract/Tokrnmaker1.sol\":887:897  3 * 10**18 */\n  0x29a2241af62c0000\n    /* \"Contract/Tokrnmaker1.sol\":871:881  itemPrices */\n  0x06\n    /* \"Contract/Tokrnmaker1.sol\":871:884  itemPrices[1] */\n  0x00\n    /* \"Contract/Tokrnmaker1.sol\":882:883  1 */\n  0x01\n    /* \"Contract/Tokrnmaker1.sol\":871:884  itemPrices[1] */\n  dup2\n  mstore\n  0x20\n  add\n  swap1\n  dup2\n  mstore\n  0x20\n  add\n  0x00\n  keccak256\n    /* \"Contract/Tokrnmaker1.sol\":871:897  itemPrices[1] = 3 * 10**18 */\n  dup2\n  swap1\n  sstore\n  pop\n    /* \"Contract/Tokrnmaker1.sol\":950:960  2 * 10**18 */\n  0x1bc16d674ec80000\n    /* \"Contract/Tokrnmaker1.sol\":934:944  itemPrices */\n  0x06\n    /* \"Contract/Tokrnmaker1.sol\":934:947  itemPrices[2] */\n  0x00\n    /* \"Contract/Tokrnmaker1.sol\":945:946  2 */\n  0x02\n    /* \"Contract/Tokrnmaker1.sol\":934:947  itemPrices[2] */\n  dup2\n  mstore\n  0x20\n  add\n  swap1\n  dup2\n  mstore\n  0x20\n  add\n  0x00\n  keccak256\n    /* \"Contract/Tokrnmaker1.sol\":934:960  itemPrices[2] = 2 * 10**18 */\n  dup2\n  swap1\n  sstore\n  pop\n    /* \"Contract/Tokrnmaker1.sol\":1013:1023  4 * 10**18 */\n  0x3782dace9d900000\n    /* \"Contract/Tokrnmaker1.sol\":997:1007  itemPrices */\n  0x06\n    /* \"Contract/Tokrnmaker1.sol\":997:1010  itemPrices[3] */\n  0x00\n    /* \"Contract/Tokrnmaker1.sol\":1008:1009  3 */\n  0x03\n    /* \"Contract/Tokrnmaker1.sol\":997:1010  itemPrices[3] */\n  dup2\n  mstore\n  0x20\n  add\n  swap1\n  dup2\n  mstore\n  0x20\n  add\n  0x00\n  keccak256\n    /* \"Contract/Tokrnmaker1.sol\":997:1023  itemPrices[3] = 4 * 10**18 */\n  dup2\n  swap1\n  sstore\n  pop\n    /* \"Contract/Tokrnmaker1.sol\":1076:1086  5 * 10**18 */\n  0x4563918244f40000\n    /* \"Contract/Tokrnmaker1.sol\":1060:1070  itemPrices */\n  0x06\n    /* \"Contract/Tokrnmaker1.sol\":1060:1073  itemPrices[4] */\n  0x00\n    /* \"Contract/Tokrnmaker1.sol\":1071:1072  4 */\n  0x04\n    /* \"Contract/Tokrnmaker1.sol\":1060:1073  itemPrices[4] */\n  dup2\n  mstore\n  0x20\n  add\n  swap1\n  dup2\n  mstore\n  0x20\n  add\n  0x00\n  keccak256\n    /* \"Contract/Tokrnmaker1.sol\":1060:1086  itemPrices[4] = 5 * 10**18 */\n  dup2\n  swap1\n  sstore\n  pop\n    /* \"Contract/Tokrnmaker1.sol\":1139:1149  6 * 10**18 */\n  0x53444835ec580000\n    /* \"Contract/Tokrnmaker1.sol\":1123:1133  itemPrices */\n  0x06\n    /* \"Contract/Tokrnmaker1.sol\":1123:1136  itemPrices[5] */\n  0x00\n    /* \"Contract/Tokrnmaker1.sol\":1134:1135  5 */\n  0x05\n    /* \"Contract/Tokrnmaker1.sol\":1123:1136  itemPrices[5] */\n  dup2\n  mstore\n  0x20\n  add\n  swap1\n  dup2\n  mstore\n  0x20\n  add\n  0x00\n  keccak256\n    /* \"Contract/Tokrnmaker1.sol\":1123:1149  itemPrices[5] = 6 * 10**18 */\n  dup2\n  swap1\n  sstore\n  pop\n    /* \"Contract/Tokrnmaker1.sol\":633:1183  constructor(uint256 initialSupply) ERC20(\"GTNToken\", \"GTN\") {... */\n  pop\n    /* \"Contract/Tokrnmaker1.sol\":280:2597  contract GTNToken is ERC20, Ownable {... */\n  jump(tag_17)\n    /* \"https://github.com/OpenZeppelin/openzeppelin-contracts/blob/v4.0.0/contracts/utils/Context.sol\":586:682  function _msgSender() internal view virtual returns (address) {... */\ntag_13:\n    /* \"https://github.com/OpenZeppelin/openzeppelin-contracts/blob/v4.0.0/contracts/utils/Context.sol\":639:646  address */\n  0x00\n    /* \"https://github.com/OpenZeppelin/openzeppelin-contracts/blob/v4.0.0/contracts/utils/Context.sol\":665:675  msg.sender */\n  caller\n    /* \"https://github.com/OpenZeppelin/openzeppelin-contracts/blob/v4.0.0/contracts/utils/Context.sol\":658:675  return msg.sender */\n  swap1\n  pop\n    /* \"https://github.com/OpenZeppelin/openzeppelin-contracts/blob/v4.0.0/contracts/utils/Context.sol\":586:682  function _msgSender() internal view virtual returns (address) {... */\n  swap1\n  jump\t// out\n    /* \"https://github.com/OpenZeppelin/openzeppelin-contracts/blob/v4.0.0/contracts/token/ERC20/ERC20.sol\":7940:8270  function _mint(address account, uint256 amount) internal virtual {... */\ntag_16:\n    /* \"https://github.com/OpenZeppelin/openzeppelin-contracts/blob/v4.0.0/contracts/token/ERC20/ERC20.sol\":8042:8043  0 */\n  0x00\n    /* \"https://github.com/OpenZeppelin/openzeppelin-contracts/blob/v4.0.0/contracts/token/ERC20/ERC20.sol\":8023:8044  account != address(0) */\n  0xffffffffffffffffffffffffffffffffffffffff\n  and\n    /* \"https://github.com/OpenZeppelin/openzeppelin-contracts/blob/v4.0.0/contracts/token/ERC20/ERC20.sol\":8023:8030  account */\n  dup3\n    /* \"https://github.com/OpenZeppelin/openzeppelin-contracts/blob/v4.0.0/contracts/token/ERC20/ERC20.sol\":8023:8044  account != address(0) */\n  0xffffffffffffffffffffffffffffffffffffffff\n  and\n  sub\n    /* \"https://github.com/OpenZeppelin/openzeppelin-contracts/blob/v4.0.0/contracts/token/ERC20/ERC20.sol\":8015:8080  require(account != address(0), \"ERC20: mint to the zero address\") */\n  tag_20\n  jumpi\n  mload(0x40)\n  0x08c379a000000000000000000000000000000000000000000000000000000000\n  dup2\n  mstore\n  0x04\n  add\n  tag_21\n  swap1\n  tag_22\n  jump\t// in\ntag_21:\n  mload(0x40)\n  dup1\n  swap2\n  sub\n  swap1\n  revert\ntag_20:\n    /* \"https://github.com/OpenZeppelin/openzeppelin-contracts/blob/v4.0.0/contracts/token/ERC20/ERC20.sol\":8091:8140  _beforeTokenTransfer(address(0), account, amount) */\n  tag_23\n    /* \"https://github.com/OpenZeppelin/openzeppelin-contracts/blob/v4.0.0/contracts/token/ERC20/ERC20.sol\":8120:8121  0 */\n  0x00\n    /* \"https://github.com/OpenZeppelin/openzeppelin-contracts/blob/v4.0.0/contracts/token/ERC20/ERC20.sol\":8124:8131  account */\n  dup4\n    /* \"https://github.com/OpenZeppelin/openzeppelin-contracts/blob/v4.0.0/contracts/token/ERC20/ERC20.sol\":8133:8139  amount */\n  dup4\n    /* \"https://github.com/OpenZeppelin/openzeppelin-contracts/blob/v4.0.0/contracts/token/ERC20/ERC20.sol\":8091:8111  _beforeTokenTransfer */\n  shl(0x20, tag_24)\n    /* \"https://github.com/OpenZeppelin/openzeppelin-contracts/blob/v4.0.0/contracts/token/ERC20/ERC20.sol\":8091:8140  _beforeTokenTransfer(address(0), account, amount) */\n  0x20\n  shr\n  jump\t// in\ntag_23:\n    /* \"https://github.com/OpenZeppelin/openzeppelin-contracts/blob/v4.0.0/contracts/token/ERC20/ERC20.sol\":8167:8173  amount */\n  dup1\n    /* \"https://github.com/OpenZeppelin/openzeppelin-contracts/blob/v4.0.0/contracts/token/ERC20/ERC20.sol\":8151:8163  _totalSupply */\n  0x02\n  0x00\n    /* \"https://github.com/OpenZeppelin/openzeppelin-contracts/blob/v4.0.0/contracts/token/ERC20/ERC20.sol\":8151:8173  _totalSupply += amount */\n  dup3\n  dup3\n  sload\n  tag_25\n  swap2\n  swap1\n  tag_26\n  jump\t// in\ntag_25:\n  swap3\n  pop\n  pop\n  dup2\n  swap1\n  sstore\n  pop\n    /* \"https://github.com/OpenZeppelin/openzeppelin-contracts/blob/v4.0.0/contracts/token/ERC20/ERC20.sol\":8205:8211  amount */\n  dup1\n    /* \"https://github.com/OpenZeppelin/openzeppelin-contracts/blob/v4.0.0/contracts/token/ERC20/ERC20.sol\":8183:8192  _balances */\n  0x00\n    /* \"https://github.com/OpenZeppelin/openzeppelin-contracts/blob/v4.0.0/contracts/token/ERC20/ERC20.sol\":8183:8201  _balances[account] */\n  dup1\n    /* \"https://github.com/OpenZeppelin/openzeppelin-contracts/blob/v4.0.0/contracts/token/ERC20/ERC20.sol\":8193:8200  account */\n  dup5\n    /* \"https://github.com/OpenZeppelin/openzeppelin-contracts/blob/v4.0.0/contracts/token/ERC20/ERC20.sol\":8183:8201  _balances[account] */\n  0xffffffffffffffffffffffffffffffffffffffff\n  and\n  0xffffffffffffffffffffffffffffffffffffffff\n  and\n  dup2\n  mstore\n  0x20\n  add\n  swap1\n  dup2\n  mstore\n  0x20\n  add\n  0x00\n  keccak256\n  0x00\n    /* \"https://github.com/OpenZeppelin/openzeppelin-contracts/blob/v4.0.0/contracts/token/ERC20/ERC20.sol\":8183:8211  _balances[account] += amount */\n  dup3\n  dup3\n  sload\n  tag_27\n  swap2\n  swap1\n  tag_26\n  jump\t// in\ntag_27:\n  swap3\n  pop\n  pop\n  dup2\n  swap1\n  sstore\n  pop\n    /* \"https://github.com/OpenZeppelin/openzeppelin-contracts/blob/v4.0.0/contracts/token/ERC20/ERC20.sol\":8247:8254  account */\n  dup2\n    /* \"https://github.com/OpenZeppelin/openzeppelin-contracts/blob/v4.0.0/contracts/token/ERC20/ERC20.sol\":8226:8263  Transfer(address(0), account, amount) */\n  0xffffffffffffffffffffffffffffffffffffffff\n  and\n    /* \"https://github.com/OpenZeppelin/openzeppelin-contracts/blob/v4.0.0/contracts/token/ERC20/ERC20.sol\":8243:8244  0 */\n  0x00\n    /* \"https://github.com/OpenZeppelin/openzeppelin-contracts/blob/v4.0.0/contracts/token/ERC20/ERC20.sol\":8226:8263  Transfer(address(0), account, amount) */\n  0xffffffffffffffffffffffffffffffffffffffff\n  and\n  0xddf252ad1be2c89b69c2b068fc378daa952ba7f163c4a11628f55a4df523b3ef\n    /* \"https://github.com/OpenZeppelin/openzeppelin-contracts/blob/v4.0.0/contracts/token/ERC20/ERC20.sol\":8256:8262  amount */\n  dup4\n    /* \"https://github.com/OpenZeppelin/openzeppelin-contracts/blob/v4.0.0/contracts/token/ERC20/ERC20.sol\":8226:8263  Transfer(address(0), account, amount) */\n  mload(0x40)\n  tag_28\n  swap2\n  swap1\n  tag_29\n  jump\t// in\ntag_28:\n  mload(0x40)\n  dup1\n  swap2\n  sub\n  swap1\n  log3\n    /* \"https://github.com/OpenZeppelin/openzeppelin-contracts/blob/v4.0.0/contracts/token/ERC20/ERC20.sol\":7940:8270  function _mint(address account, uint256 amount) internal virtual {... */\n  pop\n  pop\n  jump\t// out\n    /* \"https://github.com/OpenZeppelin/openzeppelin-contracts/blob/v4.0.0/contracts/token/ERC20/ERC20.sol\":10423:10515  function _beforeTokenTransfer(address from, address to, uint256 amount) internal virtual { } */\ntag_24:\n  pop\n  pop\n  pop\n  jump\t// out\n    /* \"#utility.yul\":88:205   */\ntag_32:\n    /* \"#utility.yul\":197:198   */\n  0x00\n    /* \"#utility.yul\":194:195   */\n  dup1\n    /* \"#utility.yul\":187:199   */\n  revert\n    /* \"#utility.yul\":334:411   */\ntag_34:\n    /* \"#utility.yul\":371:378   */\n  0x00\n    /* \"#utility.yul\":400:405   */\n  dup2\n    /* \"#utility.yul\":389:405   */\n  swap1\n  pop\n    /* \"#utility.yul\":334:411   */\n  swap2\n  swap1\n  pop\n  jump\t// out\n    /* \"#utility.yul\":417:539   */\ntag_35:\n    /* \"#utility.yul\":490:514   */\n  tag_67\n    /* \"#utility.yul\":508:513   */\n  dup2\n    /* \"#utility.yul\":490:514   */\n  tag_34\n  jump\t// in\ntag_67:\n    /* \"#utility.yul\":483:488   */\n  dup2\n    /* \"#utility.yul\":480:515   */\n  eq\n    /* \"#utility.yul\":470:533   */\n  tag_68\n  jumpi\n    /* \"#utility.yul\":529:530   */\n  0x00\n    /* \"#utility.yul\":526:527   */\n  dup1\n    /* \"#utility.yul\":519:531   */\n  revert\n    /* \"#utility.yul\":470:533   */\ntag_68:\n    /* \"#utility.yul\":417:539   */\n  pop\n  jump\t// out\n    /* \"#utility.yul\":545:688   */\ntag_36:\n    /* \"#utility.yul\":602:607   */\n  0x00\n    /* \"#utility.yul\":633:639   */\n  dup2\n    /* \"#utility.yul\":627:640   */\n  mload\n    /* \"#utility.yul\":618:640   */\n  swap1\n  pop\n    /* \"#utility.yul\":649:682   */\n  tag_70\n    /* \"#utility.yul\":676:681   */\n  dup2\n    /* \"#utility.yul\":649:682   */\n  tag_35\n  jump\t// in\ntag_70:\n    /* \"#utility.yul\":545:688   */\n  swap3\n  swap2\n  pop\n  pop\n  jump\t// out\n    /* \"#utility.yul\":694:1045   */\ntag_3:\n    /* \"#utility.yul\":764:770   */\n  0x00\n    /* \"#utility.yul\":813:815   */\n  0x20\n    /* \"#utility.yul\":801:810   */\n  dup3\n    /* \"#utility.yul\":792:799   */\n  dup5\n    /* \"#utility.yul\":788:811   */\n  sub\n    /* \"#utility.yul\":784:816   */\n  slt\n    /* \"#utility.yul\":781:900   */\n  iszero\n  tag_72\n  jumpi\n    /* \"#utility.yul\":819:898   */\n  tag_73\n  tag_32\n  jump\t// in\ntag_73:\n    /* \"#utility.yul\":781:900   */\ntag_72:\n    /* \"#utility.yul\":939:940   */\n  0x00\n    /* \"#utility.yul\":964:1028   */\n  tag_74\n    /* \"#utility.yul\":1020:1027   */\n  dup5\n    /* \"#utility.yul\":1011:1017   */\n  dup3\n    /* \"#utility.yul\":1000:1009   */\n  dup6\n    /* \"#utility.yul\":996:1018   */\n  add\n    /* \"#utility.yul\":964:1028   */\n  tag_36\n  jump\t// in\ntag_74:\n    /* \"#utility.yul\":954:1028   */\n  swap2\n  pop\n    /* \"#utility.yul\":910:1038   */\n  pop\n    /* \"#utility.yul\":694:1045   */\n  swap3\n  swap2\n  pop\n  pop\n  jump\t// out\n    /* \"#utility.yul\":1051:1150   */\ntag_37:\n    /* \"#utility.yul\":1103:1109   */\n  0x00\n    /* \"#utility.yul\":1137:1142   */\n  dup2\n    /* \"#utility.yul\":1131:1143   */\n  mload\n    /* \"#utility.yul\":1121:1143   */\n  swap1\n  pop\n    /* \"#utility.yul\":1051:1150   */\n  swap2\n  swap1\n  pop\n  jump\t// out\n    /* \"#utility.yul\":1156:1336   */\ntag_38:\n    /* \"#utility.yul\":1204:1281   */\n  0x4e487b7100000000000000000000000000000000000000000000000000000000\n    /* \"#utility.yul\":1201:1202   */\n  0x00\n    /* \"#utility.yul\":1194:1282   */\n  mstore\n    /* \"#utility.yul\":1301:1305   */\n  0x41\n    /* \"#utility.yul\":1298:1299   */\n  0x04\n    /* \"#utility.yul\":1291:1306   */\n  mstore\n    /* \"#utility.yul\":1325:1329   */\n  0x24\n    /* \"#utility.yul\":1322:1323   */\n  0x00\n    /* \"#utility.yul\":1315:1330   */\n  revert\n    /* \"#utility.yul\":1342:1522   */\ntag_39:\n    /* \"#utility.yul\":1390:1467   */\n  0x4e487b7100000000000000000000000000000000000000000000000000000000\n    /* \"#utility.yul\":1387:1388   */\n  0x00\n    /* \"#utility.yul\":1380:1468   */\n  mstore\n    /* \"#utility.yul\":1487:1491   */\n  0x22\n    /* \"#utility.yul\":1484:1485   */\n  0x04\n    /* \"#utility.yul\":1477:1492   */\n  mstore\n    /* \"#utility.yul\":1511:1515   */\n  0x24\n    /* \"#utility.yul\":1508:1509   */\n  0x00\n    /* \"#utility.yul\":1501:1516   */\n  revert\n    /* \"#utility.yul\":1528:1848   */\ntag_40:\n    /* \"#utility.yul\":1572:1578   */\n  0x00\n    /* \"#utility.yul\":1609:1610   */\n  0x02\n    /* \"#utility.yul\":1603:1607   */\n  dup3\n    /* \"#utility.yul\":1599:1611   */\n  div\n    /* \"#utility.yul\":1589:1611   */\n  swap1\n  pop\n    /* \"#utility.yul\":1656:1657   */\n  0x01\n    /* \"#utility.yul\":1650:1654   */\n  dup3\n    /* \"#utility.yul\":1646:1658   */\n  and\n    /* \"#utility.yul\":1677:1695   */\n  dup1\n    /* \"#utility.yul\":1667:1748   */\n  tag_79\n  jumpi\n    /* \"#utility.yul\":1733:1737   */\n  0x7f\n    /* \"#utility.yul\":1725:1731   */\n  dup3\n    /* \"#utility.yul\":1721:1738   */\n  and\n    /* \"#utility.yul\":1711:1738   */\n  swap2\n  pop\n    /* \"#utility.yul\":1667:1748   */\ntag_79:\n    /* \"#utility.yul\":1795:1797   */\n  0x20\n    /* \"#utility.yul\":1787:1793   */\n  dup3\n    /* \"#utility.yul\":1784:1798   */\n  lt\n    /* \"#utility.yul\":1764:1782   */\n  dup2\n    /* \"#utility.yul\":1761:1799   */\n  sub\n    /* \"#utility.yul\":1758:1842   */\n  tag_80\n  jumpi\n    /* \"#utility.yul\":1814:1832   */\n  tag_81\n  tag_39\n  jump\t// in\ntag_81:\n    /* \"#utility.yul\":1758:1842   */\ntag_80:\n    /* \"#utility.yul\":1579:1848   */\n  pop\n    /* \"#utility.yul\":1528:1848   */\n  swap2\n  swap1\n  pop\n  jump\t// out\n    /* \"#utility.yul\":1854:1995   */\ntag_41:\n    /* \"#utility.yul\":1903:1907   */\n  0x00\n    /* \"#utility.yul\":1926:1929   */\n  dup2\n    /* \"#utility.yul\":1918:1929   */\n  swap1\n  pop\n    /* \"#utility.yul\":1949:1952   */\n  dup2\n    /* \"#utility.yul\":1946:1947   */\n  0x00\n    /* \"#utility.yul\":1939:1953   */\n  mstore\n    /* \"#utility.yul\":1983:1987   */\n  0x20\n    /* \"#utility.yul\":1980:1981   */\n  0x00\n    /* \"#utility.yul\":1970:1988   */\n  keccak256\n    /* \"#utility.yul\":1962:1988   */\n  swap1\n  pop\n    /* \"#utility.yul\":1854:1995   */\n  swap2\n  swap1\n  pop\n  jump\t// out\n    /* \"#utility.yul\":2001:2094   */\ntag_42:\n    /* \"#utility.yul\":2038:2044   */\n  0x00\n    /* \"#utility.yul\":2085:2087   */\n  0x20\n    /* \"#utility.yul\":2080:2082   */\n  0x1f\n    /* \"#utility.yul\":2073:2078   */\n  dup4\n    /* \"#utility.yul\":2069:2083   */\n  add\n    /* \"#utility.yul\":2065:2088   */\n  div\n    /* \"#utility.yul\":2055:2088   */\n  swap1\n  pop\n    /* \"#utility.yul\":2001:2094   */\n  swap2\n  swap1\n  pop\n  jump\t// out\n    /* \"#utility.yul\":2100:2207   */\ntag_43:\n    /* \"#utility.yul\":2144:2152   */\n  0x00\n    /* \"#utility.yul\":2194:2199   */\n  dup3\n    /* \"#utility.yul\":2188:2192   */\n  dup3\n    /* \"#utility.yul\":2184:2200   */\n  shl\n    /* \"#utility.yul\":2163:2200   */\n  swap1\n  pop\n    /* \"#utility.yul\":2100:2207   */\n  swap3\n  swap2\n  pop\n  pop\n  jump\t// out\n    /* \"#utility.yul\":2213:2606   */\ntag_44:\n    /* \"#utility.yul\":2282:2288   */\n  0x00\n    /* \"#utility.yul\":2332:2333   */\n  0x08\n    /* \"#utility.yul\":2320:2330   */\n  dup4\n    /* \"#utility.yul\":2316:2334   */\n  mul\n    /* \"#utility.yul\":2355:2452   */\n  tag_86\n    /* \"#utility.yul\":2385:2451   */\n  0xffffffffffffffffffffffffffffffffffffffffffffffffffffffffffffffff\n    /* \"#utility.yul\":2374:2383   */\n  dup3\n    /* \"#utility.yul\":2355:2452   */\n  tag_43\n  jump\t// in\ntag_86:\n    /* \"#utility.yul\":2473:2512   */\n  tag_87\n    /* \"#utility.yul\":2503:2511   */\n  dup7\n    /* \"#utility.yul\":2492:2501   */\n  dup4\n    /* \"#utility.yul\":2473:2512   */\n  tag_43\n  jump\t// in\ntag_87:\n    /* \"#utility.yul\":2461:2512   */\n  swap6\n  pop\n    /* \"#utility.yul\":2545:2549   */\n  dup1\n    /* \"#utility.yul\":2541:2550   */\n  not\n    /* \"#utility.yul\":2534:2539   */\n  dup5\n    /* \"#utility.yul\":2530:2551   */\n  and\n    /* \"#utility.yul\":2521:2551   */\n  swap4\n  pop\n    /* \"#utility.yul\":2594:2598   */\n  dup1\n    /* \"#utility.yul\":2584:2592   */\n  dup7\n    /* \"#utility.yul\":2580:2599   */\n  and\n    /* \"#utility.yul\":2573:2578   */\n  dup5\n    /* \"#utility.yul\":2570:2600   */\n  or\n    /* \"#utility.yul\":2560:2600   */\n  swap3\n  pop\n    /* \"#utility.yul\":2289:2606   */\n  pop\n  pop\n    /* \"#utility.yul\":2213:2606   */\n  swap4\n  swap3\n  pop\n  pop\n  pop\n  jump\t// out\n    /* \"#utility.yul\":2612:2672   */\ntag_45:\n    /* \"#utility.yul\":2640:2643   */\n  0x00\n    /* \"#utility.yul\":2661:2666   */\n  dup2\n    /* \"#utility.yul\":2654:2666   */\n  swap1\n  pop\n    /* \"#utility.yul\":2612:2672   */\n  swap2\n  swap1\n  pop\n  jump\t// out\n    /* \"#utility.yul\":2678:2820   */\ntag_46:\n    /* \"#utility.yul\":2728:2737   */\n  0x00\n    /* \"#utility.yul\":2761:2814   */\n  tag_90\n    /* \"#utility.yul\":2779:2813   */\n  tag_91\n    /* \"#utility.yul\":2788:2812   */\n  tag_92\n    /* \"#utility.yul\":2806:2811   */\n  dup5\n    /* \"#utility.yul\":2788:2812   */\n  tag_34\n  jump\t// in\ntag_92:\n    /* \"#utility.yul\":2779:2813   */\n  tag_45\n  jump\t// in\ntag_91:\n    /* \"#utility.yul\":2761:2814   */\n  tag_34\n  jump\t// in\ntag_90:\n    /* \"#utility.yul\":2748:2814   */\n  swap1\n  pop\n    /* \"#utility.yul\":2678:2820   */\n  swap2\n  swap1\n  pop\n  jump\t// out\n    /* \"#utility.yul\":2826:2901   */\ntag_47:\n    /* \"#utility.yul\":2869:2872   */\n  0x00\n    /* \"#utility.yul\":2890:2895   */\n  dup2\n    /* \"#utility.yul\":2883:2895   */\n  swap1\n  pop\n    /* \"#utility.yul\":2826:2901   */\n  swap2\n  swap1\n  pop\n  jump\t// out\n    /* \"#utility.yul\":2907:3176   */\ntag_48:\n    /* \"#utility.yul\":3017:3056   */\n  tag_95\n    /* \"#utility.yul\":3048:3055   */\n  dup4\n    /* \"#utility.yul\":3017:3056   */\n  tag_46\n  jump\t// in\ntag_95:\n    /* \"#utility.yul\":3078:3169   */\n  tag_96\n    /* \"#utility.yul\":3127:3168   */\n  tag_97\n    /* \"#utility.yul\":3151:3167   */\n  dup3\n    /* \"#utility.yul\":3127:3168   */\n  tag_47\n  jump\t// in\ntag_97:\n    /* \"#utility.yul\":3119:3125   */\n  dup5\n    /* \"#utility.yul\":3112:3116   */\n  dup5\n    /* \"#utility.yul\":3106:3117   */\n  sload\n    /* \"#utility.yul\":3078:3169   */\n  tag_44\n  jump\t// in\ntag_96:\n    /* \"#utility.yul\":3072:3076   */\n  dup3\n    /* \"#utility.yul\":3065:3170   */\n  sstore\n    /* \"#utility.yul\":2983:3176   */\n  pop\n    /* \"#utility.yul\":2907:3176   */\n  pop\n  pop\n  pop\n  jump\t// out\n    /* \"#utility.yul\":3182:3255   */\ntag_49:\n    /* \"#utility.yul\":3227:3230   */\n  0x00\n    /* \"#utility.yul\":3182:3255   */\n  swap1\n  jump\t// out\n    /* \"#utility.yul\":3261:3450   */\ntag_50:\n    /* \"#utility.yul\":3338:3370   */\n  tag_100\n  tag_49\n  jump\t// in\ntag_100:\n    /* \"#utility.yul\":3379:3444   */\n  tag_101\n    /* \"#utility.yul\":3437:3443   */\n  dup2\n    /* \"#utility.yul\":3429:3435   */\n  dup5\n    /* \"#utility.yul\":3423:3427   */\n  dup5\n    /* \"#utility.yul\":3379:3444   */\n  tag_48\n  jump\t// in\ntag_101:\n    /* \"#utility.yul\":3314:3450   */\n  pop\n    /* \"#utility.yul\":3261:3450   */\n  pop\n  pop\n  jump\t// out\n    /* \"#utility.yul\":3456:3642   */\ntag_51:\n    /* \"#utility.yul\":3516:3636   */\ntag_103:\n    /* \"#utility.yul\":3533:3536   */\n  dup2\n    /* \"#utility.yul\":3526:3531   */\n  dup2\n    /* \"#utility.yul\":3523:3537   */\n  lt\n    /* \"#utility.yul\":3516:3636   */\n  iszero\n  tag_105\n  jumpi\n    /* \"#utility.yul\":3587:3626   */\n  tag_106\n    /* \"#utility.yul\":3624:3625   */\n  0x00\n    /* \"#utility.yul\":3617:3622   */\n  dup3\n    /* \"#utility.yul\":3587:3626   */\n  tag_50\n  jump\t// in\ntag_106:\n    /* \"#utility.yul\":3560:3561   */\n  0x01\n    /* \"#utility.yul\":3553:3558   */\n  dup2\n    /* \"#utility.yul\":3549:3562   */\n  add\n    /* \"#utility.yul\":3540:3562   */\n  swap1\n  pop\n    /* \"#utility.yul\":3516:3636   */\n  jump(tag_103)\ntag_105:\n    /* \"#utility.yul\":3456:3642   */\n  pop\n  pop\n  jump\t// out\n    /* \"#utility.yul\":3648:4191   */\ntag_52:\n    /* \"#utility.yul\":3749:3751   */\n  0x1f\n    /* \"#utility.yul\":3744:3747   */\n  dup3\n    /* \"#utility.yul\":3741:3752   */\n  gt\n    /* \"#utility.yul\":3738:4184   */\n  iszero\n  tag_108\n  jumpi\n    /* \"#utility.yul\":3783:3821   */\n  tag_109\n    /* \"#utility.yul\":3815:3820   */\n  dup2\n    /* \"#utility.yul\":3783:3821   */\n  tag_41\n  jump\t// in\ntag_109:\n    /* \"#utility.yul\":3867:3896   */\n  tag_110\n    /* \"#utility.yul\":3885:3895   */\n  dup5\n    /* \"#utility.yul\":3867:3896   */\n  tag_42\n  jump\t// in\ntag_110:\n    /* \"#utility.yul\":3857:3865   */\n  dup2\n    /* \"#utility.yul\":3853:3897   */\n  add\n    /* \"#utility.yul\":4050:4052   */\n  0x20\n    /* \"#utility.yul\":4038:4048   */\n  dup6\n    /* \"#utility.yul\":4035:4053   */\n  lt\n    /* \"#utility.yul\":4032:4081   */\n  iszero\n  tag_111\n  jumpi\n    /* \"#utility.yul\":4071:4079   */\n  dup2\n    /* \"#utility.yul\":4056:4079   */\n  swap1\n  pop\n    /* \"#utility.yul\":4032:4081   */\ntag_111:\n    /* \"#utility.yul\":4094:4174   */\n  tag_112\n    /* \"#utility.yul\":4150:4172   */\n  tag_113\n    /* \"#utility.yul\":4168:4171   */\n  dup6\n    /* \"#utility.yul\":4150:4172   */\n  tag_42\n  jump\t// in\ntag_113:\n    /* \"#utility.yul\":4140:4148   */\n  dup4\n    /* \"#utility.yul\":4136:4173   */\n  add\n    /* \"#utility.yul\":4123:4134   */\n  dup3\n    /* \"#utility.yul\":4094:4174   */\n  tag_51\n  jump\t// in\ntag_112:\n    /* \"#utility.yul\":3753:4184   */\n  pop\n  pop\n    /* \"#utility.yul\":3738:4184   */\ntag_108:\n    /* \"#utility.yul\":3648:4191   */\n  pop\n  pop\n  pop\n  jump\t// out\n    /* \"#utility.yul\":4197:4314   */\ntag_53:\n    /* \"#utility.yul\":4251:4259   */\n  0x00\n    /* \"#utility.yul\":4301:4306   */\n  dup3\n    /* \"#utility.yul\":4295:4299   */\n  dup3\n    /* \"#utility.yul\":4291:4307   */\n  shr\n    /* \"#utility.yul\":4270:4307   */\n  swap1\n  pop\n    /* \"#utility.yul\":4197:4314   */\n  swap3\n  swap2\n  pop\n  pop\n  jump\t// out\n    /* \"#utility.yul\":4320:4489   */\ntag_54:\n    /* \"#utility.yul\":4364:4370   */\n  0x00\n    /* \"#utility.yul\":4397:4448   */\n  tag_116\n    /* \"#utility.yul\":4445:4446   */\n  0x00\n    /* \"#utility.yul\":4441:4447   */\n  not\n    /* \"#utility.yul\":4433:4438   */\n  dup5\n    /* \"#utility.yul\":4430:4431   */\n  0x08\n    /* \"#utility.yul\":4426:4439   */\n  mul\n    /* \"#utility.yul\":4397:4448   */\n  tag_53\n  jump\t// in\ntag_116:\n    /* \"#utility.yul\":4393:4449   */\n  not\n    /* \"#utility.yul\":4478:4482   */\n  dup1\n    /* \"#utility.yul\":4472:4476   */\n  dup4\n    /* \"#utility.yul\":4468:4483   */\n  and\n    /* \"#utility.yul\":4458:4483   */\n  swap2\n  pop\n    /* \"#utility.yul\":4371:4489   */\n  pop\n    /* \"#utility.yul\":4320:4489   */\n  swap3\n  swap2\n  pop\n  pop\n  jump\t// out\n    /* \"#utility.yul\":4494:4789   */\ntag_55:\n    /* \"#utility.yul\":4570:4574   */\n  0x00\n    /* \"#utility.yul\":4716:4745   */\n  tag_118\n    /* \"#utility.yul\":4741:4744   */\n  dup4\n    /* \"#utility.yul\":4735:4739   */\n  dup4\n    /* \"#utility.yul\":4716:4745   */\n  tag_54\n  jump\t// in\ntag_118:\n    /* \"#utility.yul\":4708:4745   */\n  swap2\n  pop\n    /* \"#utility.yul\":4778:4781   */\n  dup3\n    /* \"#utility.yul\":4775:4776   */\n  0x02\n    /* \"#utility.yul\":4771:4782   */\n  mul\n    /* \"#utility.yul\":4765:4769   */\n  dup3\n    /* \"#utility.yul\":4762:4783   */\n  or\n    /* \"#utility.yul\":4754:4783   */\n  swap1\n  pop\n    /* \"#utility.yul\":4494:4789   */\n  swap3\n  swap2\n  pop\n  pop\n  jump\t// out\n    /* \"#utility.yul\":4794:6189   */\ntag_9:\n    /* \"#utility.yul\":4911:4948   */\n  tag_120\n    /* \"#utility.yul\":4944:4947   */\n  dup3\n    /* \"#utility.yul\":4911:4948   */\n  tag_37\n  jump\t// in\ntag_120:\n    /* \"#utility.yul\":5013:5031   */\n  0xffffffffffffffff\n    /* \"#utility.yul\":5005:5011   */\n  dup2\n    /* \"#utility.yul\":5002:5032   */\n  gt\n    /* \"#utility.yul\":4999:5055   */\n  iszero\n  tag_121\n  jumpi\n    /* \"#utility.yul\":5035:5053   */\n  tag_122\n  tag_38\n  jump\t// in\ntag_122:\n    /* \"#utility.yul\":4999:5055   */\ntag_121:\n    /* \"#utility.yul\":5079:5117   */\n  tag_123\n    /* \"#utility.yul\":5111:5115   */\n  dup3\n    /* \"#utility.yul\":5105:5116   */\n  sload\n    /* \"#utility.yul\":5079:5117   */\n  tag_40\n  jump\t// in\ntag_123:\n    /* \"#utility.yul\":5164:5231   */\n  tag_124\n    /* \"#utility.yul\":5224:5230   */\n  dup3\n    /* \"#utility.yul\":5216:5222   */\n  dup3\n    /* \"#utility.yul\":5210:5214   */\n  dup6\n    /* \"#utility.yul\":5164:5231   */\n  tag_52\n  jump\t// in\ntag_124:\n    /* \"#utility.yul\":5258:5259   */\n  0x00\n    /* \"#utility.yul\":5282:5286   */\n  0x20\n    /* \"#utility.yul\":5269:5286   */\n  swap1\n  pop\n    /* \"#utility.yul\":5314:5316   */\n  0x1f\n    /* \"#utility.yul\":5306:5312   */\n  dup4\n    /* \"#utility.yul\":5303:5317   */\n  gt\n    /* \"#utility.yul\":5331:5332   */\n  0x01\n    /* \"#utility.yul\":5326:5944   */\n  dup2\n  eq\n  tag_126\n  jumpi\n    /* \"#utility.yul\":5988:5989   */\n  0x00\n    /* \"#utility.yul\":6005:6011   */\n  dup5\n    /* \"#utility.yul\":6002:6079   */\n  iszero\n  tag_127\n  jumpi\n    /* \"#utility.yul\":6054:6063   */\n  dup3\n    /* \"#utility.yul\":6049:6052   */\n  dup8\n    /* \"#utility.yul\":6045:6064   */\n  add\n    /* \"#utility.yul\":6039:6065   */\n  mload\n    /* \"#utility.yul\":6030:6065   */\n  swap1\n  pop\n    /* \"#utility.yul\":6002:6079   */\ntag_127:\n    /* \"#utility.yul\":6105:6172   */\n  tag_128\n    /* \"#utility.yul\":6165:6171   */\n  dup6\n    /* \"#utility.yul\":6158:6163   */\n  dup3\n    /* \"#utility.yul\":6105:6172   */\n  tag_55\n  jump\t// in\ntag_128:\n    /* \"#utility.yul\":6099:6103   */\n  dup7\n    /* \"#utility.yul\":6092:6173   */\n  sstore\n    /* \"#utility.yul\":5961:6183   */\n  pop\n    /* \"#utility.yul\":5296:6183   */\n  jump(tag_125)\n    /* \"#utility.yul\":5326:5944   */\ntag_126:\n    /* \"#utility.yul\":5378:5382   */\n  0x1f\n    /* \"#utility.yul\":5374:5383   */\n  not\n    /* \"#utility.yul\":5366:5372   */\n  dup5\n    /* \"#utility.yul\":5362:5384   */\n  and\n    /* \"#utility.yul\":5412:5449   */\n  tag_129\n    /* \"#utility.yul\":5444:5448   */\n  dup7\n    /* \"#utility.yul\":5412:5449   */\n  tag_41\n  jump\t// in\ntag_129:\n    /* \"#utility.yul\":5471:5472   */\n  0x00\n    /* \"#utility.yul\":5485:5693   */\ntag_130:\n    /* \"#utility.yul\":5499:5506   */\n  dup3\n    /* \"#utility.yul\":5496:5497   */\n  dup2\n    /* \"#utility.yul\":5493:5507   */\n  lt\n    /* \"#utility.yul\":5485:5693   */\n  iszero\n  tag_132\n  jumpi\n    /* \"#utility.yul\":5578:5587   */\n  dup5\n    /* \"#utility.yul\":5573:5576   */\n  dup10\n    /* \"#utility.yul\":5569:5588   */\n  add\n    /* \"#utility.yul\":5563:5589   */\n  mload\n    /* \"#utility.yul\":5555:5561   */\n  dup3\n    /* \"#utility.yul\":5548:5590   */\n  sstore\n    /* \"#utility.yul\":5629:5630   */\n  0x01\n    /* \"#utility.yul\":5621:5627   */\n  dup3\n    /* \"#utility.yul\":5617:5631   */\n  add\n    /* \"#utility.yul\":5607:5631   */\n  swap2\n  pop\n    /* \"#utility.yul\":5676:5678   */\n  0x20\n    /* \"#utility.yul\":5665:5674   */\n  dup6\n    /* \"#utility.yul\":5661:5679   */\n  add\n    /* \"#utility.yul\":5648:5679   */\n  swap5\n  pop\n    /* \"#utility.yul\":5522:5526   */\n  0x20\n    /* \"#utility.yul\":5519:5520   */\n  dup2\n    /* \"#utility.yul\":5515:5527   */\n  add\n    /* \"#utility.yul\":5510:5527   */\n  swap1\n  pop\n    /* \"#utility.yul\":5485:5693   */\n  jump(tag_130)\ntag_132:\n    /* \"#utility.yul\":5721:5727   */\n  dup7\n    /* \"#utility.yul\":5712:5719   */\n  dup4\n    /* \"#utility.yul\":5709:5728   */\n  lt\n    /* \"#utility.yul\":5706:5885   */\n  iszero\n  tag_133\n  jumpi\n    /* \"#utility.yul\":5779:5788   */\n  dup5\n    /* \"#utility.yul\":5774:5777   */\n  dup10\n    /* \"#utility.yul\":5770:5789   */\n  add\n    /* \"#utility.yul\":5764:5790   */\n  mload\n    /* \"#utility.yul\":5822:5870   */\n  tag_134\n    /* \"#utility.yul\":5864:5868   */\n  0x1f\n    /* \"#utility.yul\":5856:5862   */\n  dup10\n    /* \"#utility.yul\":5852:5869   */\n  and\n    /* \"#utility.yul\":5841:5850   */\n  dup3\n    /* \"#utility.yul\":5822:5870   */\n  tag_54\n  jump\t// in\ntag_134:\n    /* \"#utility.yul\":5814:5820   */\n  dup4\n    /* \"#utility.yul\":5807:5871   */\n  sstore\n    /* \"#utility.yul\":5729:5885   */\n  pop\n    /* \"#utility.yul\":5706:5885   */\ntag_133:\n    /* \"#utility.yul\":5931:5932   */\n  0x01\n    /* \"#utility.yul\":5927:5928   */\n  0x02\n    /* \"#utility.yul\":5919:5925   */\n  dup9\n    /* \"#utility.yul\":5915:5929   */\n  mul\n    /* \"#utility.yul\":5911:5933   */\n  add\n    /* \"#utility.yul\":5905:5909   */\n  dup9\n    /* \"#utility.yul\":5898:5934   */\n  sstore\n    /* \"#utility.yul\":5333:5944   */\n  pop\n  pop\n  pop\n    /* \"#utility.yul\":5296:6183   */\ntag_125:\n  pop\n    /* \"#utility.yul\":4886:6189   */\n  pop\n  pop\n  pop\n    /* \"#utility.yul\":4794:6189   */\n  pop\n  pop\n  jump\t// out\n    /* \"#utility.yul\":6195:6364   */\ntag_56:\n    /* \"#utility.yul\":6279:6290   */\n  0x00\n    /* \"#utility.yul\":6313:6319   */\n  dup3\n    /* \"#utility.yul\":6308:6311   */\n  dup3\n    /* \"#utility.yul\":6301:6320   */\n  mstore\n    /* \"#utility.yul\":6353:6357   */\n  0x20\n    /* \"#utility.yul\":6348:6351   */\n  dup3\n    /* \"#utility.yul\":6344:6358   */\n  add\n    /* \"#utility.yul\":6329:6358   */\n  swap1\n  pop\n    /* \"#utility.yul\":6195:6364   */\n  swap3\n  swap2\n  pop\n  pop\n  jump\t// out\n    /* \"#utility.yul\":6370:6551   */\ntag_57:\n    /* \"#utility.yul\":6510:6543   */\n  0x45524332303a206d696e7420746f20746865207a65726f206164647265737300\n    /* \"#utility.yul\":6506:6507   */\n  0x00\n    /* \"#utility.yul\":6498:6504   */\n  dup3\n    /* \"#utility.yul\":6494:6508   */\n  add\n    /* \"#utility.yul\":6487:6544   */\n  mstore\n    /* \"#utility.yul\":6370:6551   */\n  pop\n  jump\t// out\n    /* \"#utility.yul\":6557:6923   */\ntag_58:\n    /* \"#utility.yul\":6699:6702   */\n  0x00\n    /* \"#utility.yul\":6720:6787   */\n  tag_138\n    /* \"#utility.yul\":6784:6786   */\n  0x1f\n    /* \"#utility.yul\":6779:6782   */\n  dup4\n    /* \"#utility.yul\":6720:6787   */\n  tag_56\n  jump\t// in\ntag_138:\n    /* \"#utility.yul\":6713:6787   */\n  swap2\n  pop\n    /* \"#utility.yul\":6796:6889   */\n  tag_139\n    /* \"#utility.yul\":6885:6888   */\n  dup3\n    /* \"#utility.yul\":6796:6889   */\n  tag_57\n  jump\t// in\ntag_139:\n    /* \"#utility.yul\":6914:6916   */\n  0x20\n    /* \"#utility.yul\":6909:6912   */\n  dup3\n    /* \"#utility.yul\":6905:6917   */\n  add\n    /* \"#utility.yul\":6898:6917   */\n  swap1\n  pop\n    /* \"#utility.yul\":6557:6923   */\n  swap2\n  swap1\n  pop\n  jump\t// out\n    /* \"#utility.yul\":6929:7348   */\ntag_22:\n    /* \"#utility.yul\":7095:7099   */\n  0x00\n    /* \"#utility.yul\":7133:7135   */\n  0x20\n    /* \"#utility.yul\":7122:7131   */\n  dup3\n    /* \"#utility.yul\":7118:7136   */\n  add\n    /* \"#utility.yul\":7110:7136   */\n  swap1\n  pop\n    /* \"#utility.yul\":7182:7191   */\n  dup2\n    /* \"#utility.yul\":7176:7180   */\n  dup2\n    /* \"#utility.yul\":7172:7192   */\n  sub\n    /* \"#utility.yul\":7168:7169   */\n  0x00\n    /* \"#utility.yul\":7157:7166   */\n  dup4\n    /* \"#utility.yul\":7153:7170   */\n  add\n    /* \"#utility.yul\":7146:7193   */\n  mstore\n    /* \"#utility.yul\":7210:7341   */\n  tag_141\n    /* \"#utility.yul\":7336:7340   */\n  dup2\n    /* \"#utility.yul\":7210:7341   */\n  tag_58\n  jump\t// in\ntag_141:\n    /* \"#utility.yul\":7202:7341   */\n  swap1\n  pop\n    /* \"#utility.yul\":6929:7348   */\n  swap2\n  swap1\n  pop\n  jump\t// out\n    /* \"#utility.yul\":7354:7534   */\ntag_59:\n    /* \"#utility.yul\":7402:7479   */\n  0x4e487b7100000000000000000000000000000000000000000000000000000000\n    /* \"#utility.yul\":7399:7400   */\n  0x00\n    /* \"#utility.yul\":7392:7480   */\n  mstore\n    /* \"#utility.yul\":7499:7503   */\n  0x11\n    /* \"#utility.yul\":7496:7497   */\n  0x04\n    /* \"#utility.yul\":7489:7504   */\n  mstore\n    /* \"#utility.yul\":7523:7527   */\n  0x24\n    /* \"#utility.yul\":7520:7521   */\n  0x00\n    /* \"#utility.yul\":7513:7528   */\n  revert\n    /* \"#utility.yul\":7540:7731   */\ntag_26:\n    /* \"#utility.yul\":7580:7583   */\n  0x00\n    /* \"#utility.yul\":7599:7619   */\n  tag_144\n    /* \"#utility.yul\":7617:7618   */\n  dup3\n    /* \"#utility.yul\":7599:7619   */\n  tag_34\n  jump\t// in\ntag_144:\n    /* \"#utility.yul\":7594:7619   */\n  swap2\n  pop\n    /* \"#utility.yul\":7633:7653   */\n  tag_145\n    /* \"#utility.yul\":7651:7652   */\n  dup4\n    /* \"#utility.yul\":7633:7653   */\n  tag_34\n  jump\t// in\ntag_145:\n    /* \"#utility.yul\":7628:7653   */\n  swap3\n  pop\n    /* \"#utility.yul\":7676:7677   */\n  dup3\n    /* \"#utility.yul\":7673:7674   */\n  dup3\n    /* \"#utility.yul\":7669:7678   */\n  add\n    /* \"#utility.yul\":7662:7678   */\n  swap1\n  pop\n    /* \"#utility.yul\":7697:7700   */\n  dup1\n    /* \"#utility.yul\":7694:7695   */\n  dup3\n    /* \"#utility.yul\":7691:7701   */\n  gt\n    /* \"#utility.yul\":7688:7724   */\n  iszero\n  tag_146\n  jumpi\n    /* \"#utility.yul\":7704:7722   */\n  tag_147\n  tag_59\n  jump\t// in\ntag_147:\n    /* \"#utility.yul\":7688:7724   */\ntag_146:\n    /* \"#utility.yul\":7540:7731   */\n  swap3\n  swap2\n  pop\n  pop\n  jump\t// out\n    /* \"#utility.yul\":7737:7855   */\ntag_60:\n    /* \"#utility.yul\":7824:7848   */\n  tag_149\n    /* \"#utility.yul\":7842:7847   */\n  dup2\n    /* \"#utility.yul\":7824:7848   */\n  tag_34\n  jump\t// in\ntag_149:\n    /* \"#utility.yul\":7819:7822   */\n  dup3\n    /* \"#utility.yul\":7812:7849   */\n  mstore\n    /* \"#utility.yul\":7737:7855   */\n  pop\n  pop\n  jump\t// out\n    /* \"#utility.yul\":7861:8083   */\ntag_29:\n    /* \"#utility.yul\":7954:7958   */\n  0x00\n    /* \"#utility.yul\":7992:7994   */\n  0x20\n    /* \"#utility.yul\":7981:7990   */\n  dup3\n    /* \"#utility.yul\":7977:7995   */\n  add\n    /* \"#utility.yul\":7969:7995   */\n  swap1\n  pop\n    /* \"#utility.yul\":8005:8076   */\n  tag_151\n    /* \"#utility.yul\":8073:8074   */\n  0x00\n    /* \"#utility.yul\":8062:8071   */\n  dup4\n    /* \"#utility.yul\":8058:8075   */\n  add\n    /* \"#utility.yul\":8049:8055   */\n  dup5\n    /* \"#utility.yul\":8005:8076   */\n  tag_60\n  jump\t// in\ntag_151:\n    /* \"#utility.yul\":7861:8083   */\n  swap3\n  swap2\n  pop\n  pop\n  jump\t// out\n    /* \"Contract/Tokrnmaker1.sol\":280:2597  contract GTNToken is ERC20, Ownable {... */\ntag_17:\n  dataSize(sub_0)\n  dup1\n  dataOffset(sub_0)\n  0x00\n  codecopy\n  0x00\n  return\nstop\n\nsub_0: assembly {\n        /* \"Contract/Tokrnmaker1.sol\":280:2597  contract GTNToken is ERC20, Ownable {... */\n      mstore(0x40, 0x80)\n      callvalue\n      dup1\n      iszero\n      tag_1\n      jumpi\n      0x00\n      dup1\n      revert\n    tag_1:\n      pop\n      jumpi(tag_2, lt(calldatasize, 0x04))\n      shr(0xe0, calldataload(0x00))\n      dup1\n      0x715018a6\n      gt\n      tag_23\n      jumpi\n      dup1\n      0xbf91ad9e\n      gt\n      tag_24\n      jumpi\n      dup1\n      0xbf91ad9e\n      eq\n      tag_18\n      jumpi\n      dup1\n      0xc2b3b3c7\n      eq\n      tag_19\n      jumpi\n      dup1\n      0xdd62ed3e\n      eq\n      tag_20\n      jumpi\n      dup1\n      0xe7fb74c7\n      eq\n      tag_21\n      jumpi\n      dup1\n      0xf2fde38b\n      eq\n      tag_22\n      jumpi\n      jump(tag_2)\n    tag_24:\n      dup1\n      0x715018a6\n      eq\n      tag_13\n      jumpi\n      dup1\n      0x8da5cb5b\n      eq\n      tag_14\n      jumpi\n      dup1\n      0x95d89b41\n      eq\n      tag_15\n      jumpi\n      dup1\n      0xa457c2d7\n      eq\n      tag_16\n      jumpi\n      dup1\n      0xa9059cbb\n      eq\n      tag_17\n      jumpi\n      jump(tag_2)\n    tag_23:\n      dup1\n      0x23b872dd\n      gt\n      tag_25\n      jumpi\n      dup1\n      0x23b872dd\n      eq\n      tag_8\n      jumpi\n      dup1\n      0x313ce567\n      eq\n      tag_9\n      jumpi\n      dup1\n      0x39509351\n      eq\n      tag_10\n      jumpi\n      dup1\n      0x4229c35e\n      eq\n      tag_11\n      jumpi\n      dup1\n      0x70a08231\n      eq\n      tag_12\n      jumpi\n      jump(tag_2)\n    tag_25:\n      dup1\n      0x06fdde03\n      eq\n      tag_3\n      jumpi\n      dup1\n      0x095ea7b3\n      eq\n      tag_4\n      jumpi\n      dup1\n      0x18160ddd\n      eq\n      tag_5\n      jumpi\n      dup1\n      0x209936fe\n      eq\n      tag_6\n      jumpi\n      dup1\n      0x2293e27c\n      eq\n      tag_7\n      jumpi\n    tag_2:\n      0x00\n      dup1\n      revert\n        /* \"https://github.com/OpenZeppelin/openzeppelin-contracts/blob/v4.0.0/contracts/token/ERC20/ERC20.sol\":2021:2110  function name() public view virtual returns (string memory) {... */\n    tag_3:\n      tag_26\n      tag_27\n      jump\t// in\n    tag_26:\n      mload(0x40)\n      tag_28\n      swap2\n      swap1\n      tag_29\n      jump\t// in\n    tag_28:\n      mload(0x40)\n      dup1\n      swap2\n      sub\n      swap1\n      return\n        /* \"https://github.com/OpenZeppelin/openzeppelin-contracts/blob/v4.0.0/contracts/token/ERC20/ERC20.sol\":4091:4257  function approve(address spender, uint256 amount) public virtual override returns (bool) {... */\n    tag_4:\n      tag_30\n      0x04\n      dup1\n      calldatasize\n      sub\n      dup2\n      add\n      swap1\n      tag_31\n      swap2\n      swap1\n      tag_32\n      jump\t// in\n    tag_31:\n      tag_33\n      jump\t// in\n    tag_30:\n      mload(0x40)\n      tag_34\n      swap2\n      swap1\n      tag_35\n      jump\t// in\n    tag_34:\n      mload(0x40)\n      dup1\n      swap2\n      sub\n      swap1\n      return\n        /* \"https://github.com/OpenZeppelin/openzeppelin-contracts/blob/v4.0.0/contracts/token/ERC20/ERC20.sol\":3082:3188  function totalSupply() public view virtual override returns (uint256) {... */\n    tag_5:\n      tag_36\n      tag_37\n      jump\t// in\n    tag_36:\n      mload(0x40)\n      tag_38\n      swap2\n      swap1\n      tag_39\n      jump\t// in\n    tag_38:\n      mload(0x40)\n      dup1\n      swap2\n      sub\n      swap1\n      return\n        /* \"Contract/Tokrnmaker1.sol\":375:442  mapping(address => mapping(uint256 => bool)) public purchaseHistory */\n    tag_6:\n      tag_40\n      0x04\n      dup1\n      calldatasize\n      sub\n      dup2\n      add\n      swap1\n      tag_41\n      swap2\n      swap1\n      tag_32\n      jump\t// in\n    tag_41:\n      tag_42\n      jump\t// in\n    tag_40:\n      mload(0x40)\n      tag_43\n      swap2\n      swap1\n      tag_35\n      jump\t// in\n    tag_43:\n      mload(0x40)\n      dup1\n      swap2\n      sub\n      swap1\n      return\n        /* \"Contract/Tokrnmaker1.sol\":2284:2424  function hasPurchasedItem(address user, uint256 itemId) external view returns (bool) {... */\n    tag_7:\n      tag_44\n      0x04\n      dup1\n      calldatasize\n      sub\n      dup2\n      add\n      swap1\n      tag_45\n      swap2\n      swap1\n      tag_32\n      jump\t// in\n    tag_45:\n      tag_46\n      jump\t// in\n    tag_44:\n      mload(0x40)\n      tag_47\n      swap2\n      swap1\n      tag_35\n      jump\t// in\n    tag_47:\n      mload(0x40)\n      dup1\n      swap2\n      sub\n      swap1\n      return\n        /* \"https://github.com/OpenZeppelin/openzeppelin-contracts/blob/v4.0.0/contracts/token/ERC20/ERC20.sol\":4724:5138  function transferFrom(address sender, address recipient, uint256 amount) public virtual override returns (bool) {... */\n    tag_8:\n      tag_48\n      0x04\n      dup1\n      calldatasize\n      sub\n      dup2\n      add\n      swap1\n      tag_49\n      swap2\n      swap1\n      tag_50\n      jump\t// in\n    tag_49:\n      tag_51\n      jump\t// in\n    tag_48:\n      mload(0x40)\n      tag_52\n      swap2\n      swap1\n      tag_35\n      jump\t// in\n    tag_52:\n      mload(0x40)\n      dup1\n      swap2\n      sub\n      swap1\n      return\n        /* \"https://github.com/OpenZeppelin/openzeppelin-contracts/blob/v4.0.0/contracts/token/ERC20/ERC20.sol\":2940:3022  function decimals() public view virtual returns (uint8) {... */\n    tag_9:\n      tag_53\n      tag_54\n      jump\t// in\n    tag_53:\n      mload(0x40)\n      tag_55\n      swap2\n      swap1\n      tag_56\n      jump\t// in\n    tag_55:\n      mload(0x40)\n      dup1\n      swap2\n      sub\n      swap1\n      return\n        /* \"https://github.com/OpenZeppelin/openzeppelin-contracts/blob/v4.0.0/contracts/token/ERC20/ERC20.sol\":5533:5745  function increaseAllowance(address spender, uint256 addedValue) public virtual returns (bool) {... */\n    tag_10:\n      tag_57\n      0x04\n      dup1\n      calldatasize\n      sub\n      dup2\n      add\n      swap1\n      tag_58\n      swap2\n      swap1\n      tag_32\n      jump\t// in\n    tag_58:\n      tag_59\n      jump\t// in\n    tag_57:\n      mload(0x40)\n      tag_60\n      swap2\n      swap1\n      tag_35\n      jump\t// in\n    tag_60:\n      mload(0x40)\n      dup1\n      swap2\n      sub\n      swap1\n      return\n        /* \"Contract/Tokrnmaker1.sol\":1257:1478  function setItemPrice(uint256 itemId, uint256 price) external onlyOwner {... */\n    tag_11:\n      tag_61\n      0x04\n      dup1\n      calldatasize\n      sub\n      dup2\n      add\n      swap1\n      tag_62\n      swap2\n      swap1\n      tag_63\n      jump\t// in\n    tag_62:\n      tag_64\n      jump\t// in\n    tag_61:\n      stop\n        /* \"https://github.com/OpenZeppelin/openzeppelin-contracts/blob/v4.0.0/contracts/token/ERC20/ERC20.sol\":3246:3371  function balanceOf(address account) public view virtual override returns (uint256) {... */\n    tag_12:\n      tag_65\n      0x04\n      dup1\n      calldatasize\n      sub\n      dup2\n      add\n      swap1\n      tag_66\n      swap2\n      swap1\n      tag_67\n      jump\t// in\n    tag_66:\n      tag_68\n      jump\t// in\n    tag_65:\n      mload(0x40)\n      tag_69\n      swap2\n      swap1\n      tag_39\n      jump\t// in\n    tag_69:\n      mload(0x40)\n      dup1\n      swap2\n      sub\n      swap1\n      return\n        /* \"https://github.com/OpenZeppelin/openzeppelin-contracts/blob/v4.0.0/contracts/access/Ownable.sol\":1700:1845  function renounceOwnership() public virtual onlyOwner {... */\n    tag_13:\n      tag_70\n      tag_71\n      jump\t// in\n    tag_70:\n      stop\n        /* \"https://github.com/OpenZeppelin/openzeppelin-contracts/blob/v4.0.0/contracts/access/Ownable.sol\":1068:1153  function owner() public view virtual returns (address) {... */\n    tag_14:\n      tag_72\n      tag_73\n      jump\t// in\n    tag_72:\n      mload(0x40)\n      tag_74\n      swap2\n      swap1\n      tag_75\n      jump\t// in\n    tag_74:\n      mload(0x40)\n      dup1\n      swap2\n      sub\n      swap1\n      return\n        /* \"https://github.com/OpenZeppelin/openzeppelin-contracts/blob/v4.0.0/contracts/token/ERC20/ERC20.sol\":2223:2316  function symbol() public view virtual returns (string memory) {... */\n    tag_15:\n      tag_76\n      tag_77\n      jump\t// in\n    tag_76:\n      mload(0x40)\n      tag_78\n      swap2\n      swap1\n      tag_29\n      jump\t// in\n    tag_78:\n      mload(0x40)\n      dup1\n      swap2\n      sub\n      swap1\n      return\n        /* \"https://github.com/OpenZeppelin/openzeppelin-contracts/blob/v4.0.0/contracts/token/ERC20/ERC20.sol\":6232:6603  function decreaseAllowance(address spender, uint256 subtractedValue) public virtual returns (bool) {... */\n    tag_16:\n      tag_79\n      0x04\n      dup1\n      calldatasize\n      sub\n      dup2\n      add\n      swap1\n      tag_80\n      swap2\n      swap1\n      tag_32\n      jump\t// in\n    tag_80:\n      tag_81\n      jump\t// in\n    tag_79:\n      mload(0x40)\n      tag_82\n      swap2\n      swap1\n      tag_35\n      jump\t// in\n    tag_82:\n      mload(0x40)\n      dup1\n      swap2\n      sub\n      swap1\n      return\n        /* \"https://github.com/OpenZeppelin/openzeppelin-contracts/blob/v4.0.0/contracts/token/ERC20/ERC20.sol\":3574:3746  function transfer(address recipient, uint256 amount) public virtual override returns (bool) {... */\n    tag_17:\n      tag_83\n      0x04\n      dup1\n      calldatasize\n      sub\n      dup2\n      add\n      swap1\n      tag_84\n      swap2\n      swap1\n      tag_32\n      jump\t// in\n    tag_84:\n      tag_85\n      jump\t// in\n    tag_83:\n      mload(0x40)\n      tag_86\n      swap2\n      swap1\n      tag_35\n      jump\t// in\n    tag_86:\n      mload(0x40)\n      dup1\n      swap2\n      sub\n      swap1\n      return\n        /* \"Contract/Tokrnmaker1.sol\":323:368  mapping(uint256 => uint256) public itemPrices */\n    tag_18:\n      tag_87\n      0x04\n      dup1\n      calldatasize\n      sub\n      dup2\n      add\n      swap1\n      tag_88\n      swap2\n      swap1\n      tag_89\n      jump\t// in\n    tag_88:\n      tag_90\n      jump\t// in\n    tag_87:\n      mload(0x40)\n      tag_91\n      swap2\n      swap1\n      tag_39\n      jump\t// in\n    tag_91:\n      mload(0x40)\n      dup1\n      swap2\n      sub\n      swap1\n      return\n        /* \"Contract/Tokrnmaker1.sol\":2492:2594  function mintGTN(address recipient, uint256 amount) public {... */\n    tag_19:\n      tag_92\n      0x04\n      dup1\n      calldatasize\n      sub\n      dup2\n      add\n      swap1\n      tag_93\n      swap2\n      swap1\n      tag_32\n      jump\t// in\n    tag_93:\n      tag_94\n      jump\t// in\n    tag_92:\n      stop\n        /* \"https://github.com/OpenZeppelin/openzeppelin-contracts/blob/v4.0.0/contracts/token/ERC20/ERC20.sol\":3804:3953  function allowance(address owner, address spender) public view virtual override returns (uint256) {... */\n    tag_20:\n      tag_95\n      0x04\n      dup1\n      calldatasize\n      sub\n      dup2\n      add\n      swap1\n      tag_96\n      swap2\n      swap1\n      tag_97\n      jump\t// in\n    tag_96:\n      tag_98\n      jump\t// in\n    tag_95:\n      mload(0x40)\n      tag_99\n      swap2\n      swap1\n      tag_39\n      jump\t// in\n    tag_99:\n      mload(0x40)\n      dup1\n      swap2\n      sub\n      swap1\n      return\n        /* \"Contract/Tokrnmaker1.sol\":1565:2194  function buyItem(uint256 itemId) external {... */\n    tag_21:\n      tag_100\n      0x04\n      dup1\n      calldatasize\n      sub\n      dup2\n      add\n      swap1\n      tag_101\n      swap2\n      swap1\n      tag_89\n      jump\t// in\n    tag_101:\n      tag_102\n      jump\t// in\n    tag_100:\n      stop\n        /* \"https://github.com/OpenZeppelin/openzeppelin-contracts/blob/v4.0.0/contracts/access/Ownable.sol\":1994:2234  function transferOwnership(address newOwner) public virtual onlyOwner {... */\n    tag_22:\n      tag_103\n      0x04\n      dup1\n      calldatasize\n      sub\n      dup2\n      add\n      swap1\n      tag_104\n      swap2\n      swap1\n      tag_67\n      jump\t// in\n    tag_104:\n      tag_105\n      jump\t// in\n    tag_103:\n      stop\n        /* \"https://github.com/OpenZeppelin/openzeppelin-contracts/blob/v4.0.0/contracts/token/ERC20/ERC20.sol\":2021:2110  function name() public view virtual returns (string memory) {... */\n    tag_27:\n        /* \"https://github.com/OpenZeppelin/openzeppelin-contracts/blob/v4.0.0/contracts/token/ERC20/ERC20.sol\":2066:2079  string memory */\n      0x60\n        /* \"https://github.com/OpenZeppelin/openzeppelin-contracts/blob/v4.0.0/contracts/token/ERC20/ERC20.sol\":2098:2103  _name */\n      0x03\n        /* \"https://github.com/OpenZeppelin/openzeppelin-contracts/blob/v4.0.0/contracts/token/ERC20/ERC20.sol\":2091:2103  return _name */\n      dup1\n      sload\n      tag_107\n      swap1\n      tag_108\n      jump\t// in\n    tag_107:\n      dup1\n      0x1f\n      add\n      0x20\n      dup1\n      swap2\n      div\n      mul\n      0x20\n      add\n      mload(0x40)\n      swap1\n      dup2\n      add\n      0x40\n      mstore\n      dup1\n      swap3\n      swap2\n      swap1\n      dup2\n      dup2\n      mstore\n      0x20\n      add\n      dup3\n      dup1\n      sload\n      tag_109\n      swap1\n      tag_108\n      jump\t// in\n    tag_109:\n      dup1\n      iszero\n      tag_110\n      jumpi\n      dup1\n      0x1f\n      lt\n      tag_111\n      jumpi\n      0x0100\n      dup1\n      dup4\n      sload\n      div\n      mul\n      dup4\n      mstore\n      swap2\n      0x20\n      add\n      swap2\n      jump(tag_110)\n    tag_111:\n      dup3\n      add\n      swap2\n      swap1\n      0x00\n      mstore\n      keccak256(0x00, 0x20)\n      swap1\n    tag_112:\n      dup2\n      sload\n      dup2\n      mstore\n      swap1\n      0x01\n      add\n      swap1\n      0x20\n      add\n      dup1\n      dup4\n      gt\n      tag_112\n      jumpi\n      dup3\n      swap1\n      sub\n      0x1f\n      and\n      dup3\n      add\n      swap2\n    tag_110:\n      pop\n      pop\n      pop\n      pop\n      pop\n      swap1\n      pop\n        /* \"https://github.com/OpenZeppelin/openzeppelin-contracts/blob/v4.0.0/contracts/token/ERC20/ERC20.sol\":2021:2110  function name() public view virtual returns (string memory) {... */\n      swap1\n      jump\t// out\n        /* \"https://github.com/OpenZeppelin/openzeppelin-contracts/blob/v4.0.0/contracts/token/ERC20/ERC20.sol\":4091:4257  function approve(address spender, uint256 amount) public virtual override returns (bool) {... */\n    tag_33:\n        /* \"https://github.com/OpenZeppelin/openzeppelin-contracts/blob/v4.0.0/contracts/token/ERC20/ERC20.sol\":4174:4178  bool */\n      0x00\n        /* \"https://github.com/OpenZeppelin/openzeppelin-contracts/blob/v4.0.0/contracts/token/ERC20/ERC20.sol\":4190:4229  _approve(_msgSender(), spender, amount) */\n      tag_114\n        /* \"https://github.com/OpenZeppelin/openzeppelin-contracts/blob/v4.0.0/contracts/token/ERC20/ERC20.sol\":4199:4211  _msgSender() */\n      tag_115\n        /* \"https://github.com/OpenZeppelin/openzeppelin-contracts/blob/v4.0.0/contracts/token/ERC20/ERC20.sol\":4199:4209  _msgSender */\n      tag_116\n        /* \"https://github.com/OpenZeppelin/openzeppelin-contracts/blob/v4.0.0/contracts/token/ERC20/ERC20.sol\":4199:4211  _msgSender() */\n      jump\t// in\n    tag_115:\n        /* \"https://github.com/OpenZeppelin/openzeppelin-contracts/blob/v4.0.0/contracts/token/ERC20/ERC20.sol\":4213:4220  spender */\n      dup5\n        /* \"https://github.com/OpenZeppelin/openzeppelin-contracts/blob/v4.0.0/contracts/token/ERC20/ERC20.sol\":4222:4228  amount */\n      dup5\n        /* \"https://github.com/OpenZeppelin/openzeppelin-contracts/blob/v4.0.0/contracts/token/ERC20/ERC20.sol\":4190:4198  _approve */\n      tag_117\n        /* \"https://github.com/OpenZeppelin/openzeppelin-contracts/blob/v4.0.0/contracts/token/ERC20/ERC20.sol\":4190:4229  _approve(_msgSender(), spender, amount) */\n      jump\t// in\n    tag_114:\n        /* \"https://github.com/OpenZeppelin/openzeppelin-contracts/blob/v4.0.0/contracts/token/ERC20/ERC20.sol\":4246:4250  true */\n      0x01\n        /* \"https://github.com/OpenZeppelin/openzeppelin-contracts/blob/v4.0.0/contracts/token/ERC20/ERC20.sol\":4239:4250  return true */\n      swap1\n      pop\n        /* \"https://github.com/OpenZeppelin/openzeppelin-contracts/blob/v4.0.0/contracts/token/ERC20/ERC20.sol\":4091:4257  function approve(address spender, uint256 amount) public virtual override returns (bool) {... */\n      swap3\n      swap2\n      pop\n      pop\n      jump\t// out\n        /* \"https://github.com/OpenZeppelin/openzeppelin-contracts/blob/v4.0.0/contracts/token/ERC20/ERC20.sol\":3082:3188  function totalSupply() public view virtual override returns (uint256) {... */\n    tag_37:\n        /* \"https://github.com/OpenZeppelin/openzeppelin-contracts/blob/v4.0.0/contracts/token/ERC20/ERC20.sol\":3143:3150  uint256 */\n      0x00\n        /* \"https://github.com/OpenZeppelin/openzeppelin-contracts/blob/v4.0.0/contracts/token/ERC20/ERC20.sol\":3169:3181  _totalSupply */\n      sload(0x02)\n        /* \"https://github.com/OpenZeppelin/openzeppelin-contracts/blob/v4.0.0/contracts/token/ERC20/ERC20.sol\":3162:3181  return _totalSupply */\n      swap1\n      pop\n        /* \"https://github.com/OpenZeppelin/openzeppelin-contracts/blob/v4.0.0/contracts/token/ERC20/ERC20.sol\":3082:3188  function totalSupply() public view virtual override returns (uint256) {... */\n      swap1\n      jump\t// out\n        /* \"Contract/Tokrnmaker1.sol\":375:442  mapping(address => mapping(uint256 => bool)) public purchaseHistory */\n    tag_42:\n      mstore(0x20, 0x07)\n      dup2\n      0x00\n      mstore\n      mstore(0x20, keccak256(0x00, 0x40))\n      dup1\n      0x00\n      mstore\n      keccak256(0x00, 0x40)\n      0x00\n      swap2\n      pop\n      swap2\n      pop\n      swap1\n      sload\n      swap1\n      0x0100\n      exp\n      swap1\n      div\n      0xff\n      and\n      dup2\n      jump\t// out\n        /* \"Contract/Tokrnmaker1.sol\":2284:2424  function hasPurchasedItem(address user, uint256 itemId) external view returns (bool) {... */\n    tag_46:\n        /* \"Contract/Tokrnmaker1.sol\":2363:2367  bool */\n      0x00\n        /* \"Contract/Tokrnmaker1.sol\":2387:2402  purchaseHistory */\n      0x07\n        /* \"Contract/Tokrnmaker1.sol\":2387:2408  purchaseHistory[user] */\n      0x00\n        /* \"Contract/Tokrnmaker1.sol\":2403:2407  user */\n      dup5\n        /* \"Contract/Tokrnmaker1.sol\":2387:2408  purchaseHistory[user] */\n      0xffffffffffffffffffffffffffffffffffffffff\n      and\n      0xffffffffffffffffffffffffffffffffffffffff\n      and\n      dup2\n      mstore\n      0x20\n      add\n      swap1\n      dup2\n      mstore\n      0x20\n      add\n      0x00\n      keccak256\n        /* \"Contract/Tokrnmaker1.sol\":2387:2416  purchaseHistory[user][itemId] */\n      0x00\n        /* \"Contract/Tokrnmaker1.sol\":2409:2415  itemId */\n      dup4\n        /* \"Contract/Tokrnmaker1.sol\":2387:2416  purchaseHistory[user][itemId] */\n      dup2\n      mstore\n      0x20\n      add\n      swap1\n      dup2\n      mstore\n      0x20\n      add\n      0x00\n      keccak256\n      0x00\n      swap1\n      sload\n      swap1\n      0x0100\n      exp\n      swap1\n      div\n      0xff\n      and\n        /* \"Contract/Tokrnmaker1.sol\":2380:2416  return purchaseHistory[user][itemId] */\n      swap1\n      pop\n        /* \"Contract/Tokrnmaker1.sol\":2284:2424  function hasPurchasedItem(address user, uint256 itemId) external view returns (bool) {... */\n      swap3\n      swap2\n      pop\n      pop\n      jump\t// out\n        /* \"https://github.com/OpenZeppelin/openzeppelin-contracts/blob/v4.0.0/contracts/token/ERC20/ERC20.sol\":4724:5138  function transferFrom(address sender, address recipient, uint256 amount) public virtual override returns (bool) {... */\n    tag_51:\n        /* \"https://github.com/OpenZeppelin/openzeppelin-contracts/blob/v4.0.0/contracts/token/ERC20/ERC20.sol\":4830:4834  bool */\n      0x00\n        /* \"https://github.com/OpenZeppelin/openzeppelin-contracts/blob/v4.0.0/contracts/token/ERC20/ERC20.sol\":4846:4882  _transfer(sender, recipient, amount) */\n      tag_121\n        /* \"https://github.com/OpenZeppelin/openzeppelin-contracts/blob/v4.0.0/contracts/token/ERC20/ERC20.sol\":4856:4862  sender */\n      dup5\n        /* \"https://github.com/OpenZeppelin/openzeppelin-contracts/blob/v4.0.0/contracts/token/ERC20/ERC20.sol\":4864:4873  recipient */\n      dup5\n        /* \"https://github.com/OpenZeppelin/openzeppelin-contracts/blob/v4.0.0/contracts/token/ERC20/ERC20.sol\":4875:4881  amount */\n      dup5\n        /* \"https://github.com/OpenZeppelin/openzeppelin-contracts/blob/v4.0.0/contracts/token/ERC20/ERC20.sol\":4846:4855  _transfer */\n      tag_122\n        /* \"https://github.com/OpenZeppelin/openzeppelin-contracts/blob/v4.0.0/contracts/token/ERC20/ERC20.sol\":4846:4882  _transfer(sender, recipient, amount) */\n      jump\t// in\n    tag_121:\n        /* \"https://github.com/OpenZeppelin/openzeppelin-contracts/blob/v4.0.0/contracts/token/ERC20/ERC20.sol\":4893:4917  uint256 currentAllowance */\n      0x00\n        /* \"https://github.com/OpenZeppelin/openzeppelin-contracts/blob/v4.0.0/contracts/token/ERC20/ERC20.sol\":4920:4931  _allowances */\n      0x01\n        /* \"https://github.com/OpenZeppelin/openzeppelin-contracts/blob/v4.0.0/contracts/token/ERC20/ERC20.sol\":4920:4939  _allowances[sender] */\n      0x00\n        /* \"https://github.com/OpenZeppelin/openzeppelin-contracts/blob/v4.0.0/contracts/token/ERC20/ERC20.sol\":4932:4938  sender */\n      dup7\n        /* \"https://github.com/OpenZeppelin/openzeppelin-contracts/blob/v4.0.0/contracts/token/ERC20/ERC20.sol\":4920:4939  _allowances[sender] */\n      0xffffffffffffffffffffffffffffffffffffffff\n      and\n      0xffffffffffffffffffffffffffffffffffffffff\n      and\n      dup2\n      mstore\n      0x20\n      add\n      swap1\n      dup2\n      mstore\n      0x20\n      add\n      0x00\n      keccak256\n        /* \"https://github.com/OpenZeppelin/openzeppelin-contracts/blob/v4.0.0/contracts/token/ERC20/ERC20.sol\":4920:4953  _allowances[sender][_msgSender()] */\n      0x00\n        /* \"https://github.com/OpenZeppelin/openzeppelin-contracts/blob/v4.0.0/contracts/token/ERC20/ERC20.sol\":4940:4952  _msgSender() */\n      tag_123\n        /* \"https://github.com/OpenZeppelin/openzeppelin-contracts/blob/v4.0.0/contracts/token/ERC20/ERC20.sol\":4940:4950  _msgSender */\n      tag_116\n        /* \"https://github.com/OpenZeppelin/openzeppelin-contracts/blob/v4.0.0/contracts/token/ERC20/ERC20.sol\":4940:4952  _msgSender() */\n      jump\t// in\n    tag_123:\n        /* \"https://github.com/OpenZeppelin/openzeppelin-contracts/blob/v4.0.0/contracts/token/ERC20/ERC20.sol\":4920:4953  _allowances[sender][_msgSender()] */\n      0xffffffffffffffffffffffffffffffffffffffff\n      and\n      0xffffffffffffffffffffffffffffffffffffffff\n      and\n      dup2\n      mstore\n      0x20\n      add\n      swap1\n      dup2\n      mstore\n      0x20\n      add\n      0x00\n      keccak256\n      sload\n        /* \"https://github.com/OpenZeppelin/openzeppelin-contracts/blob/v4.0.0/contracts/token/ERC20/ERC20.sol\":4893:4953  uint256 currentAllowance = _allowances[sender][_msgSender()] */\n      swap1\n      pop\n        /* \"https://github.com/OpenZeppelin/openzeppelin-contracts/blob/v4.0.0/contracts/token/ERC20/ERC20.sol\":4991:4997  amount */\n      dup3\n        /* \"https://github.com/OpenZeppelin/openzeppelin-contracts/blob/v4.0.0/contracts/token/ERC20/ERC20.sol\":4971:4987  currentAllowance */\n      dup2\n        /* \"https://github.com/OpenZeppelin/openzeppelin-contracts/blob/v4.0.0/contracts/token/ERC20/ERC20.sol\":4971:4997  currentAllowance >= amount */\n      lt\n      iszero\n        /* \"https://github.com/OpenZeppelin/openzeppelin-contracts/blob/v4.0.0/contracts/token/ERC20/ERC20.sol\":4963:5042  require(currentAllowance >= amount, \"ERC20: transfer amount exceeds allowance\") */\n      tag_124\n      jumpi\n      mload(0x40)\n      0x08c379a000000000000000000000000000000000000000000000000000000000\n      dup2\n      mstore\n      0x04\n      add\n      tag_125\n      swap1\n      tag_126\n      jump\t// in\n    tag_125:\n      mload(0x40)\n      dup1\n      swap2\n      sub\n      swap1\n      revert\n    tag_124:\n        /* \"https://github.com/OpenZeppelin/openzeppelin-contracts/blob/v4.0.0/contracts/token/ERC20/ERC20.sol\":5052:5109  _approve(sender, _msgSender(), currentAllowance - amount) */\n      tag_127\n        /* \"https://github.com/OpenZeppelin/openzeppelin-contracts/blob/v4.0.0/contracts/token/ERC20/ERC20.sol\":5061:5067  sender */\n      dup6\n        /* \"https://github.com/OpenZeppelin/openzeppelin-contracts/blob/v4.0.0/contracts/token/ERC20/ERC20.sol\":5069:5081  _msgSender() */\n      tag_128\n        /* \"https://github.com/OpenZeppelin/openzeppelin-contracts/blob/v4.0.0/contracts/token/ERC20/ERC20.sol\":5069:5079  _msgSender */\n      tag_116\n        /* \"https://github.com/OpenZeppelin/openzeppelin-contracts/blob/v4.0.0/contracts/token/ERC20/ERC20.sol\":5069:5081  _msgSender() */\n      jump\t// in\n    tag_128:\n        /* \"https://github.com/OpenZeppelin/openzeppelin-contracts/blob/v4.0.0/contracts/token/ERC20/ERC20.sol\":5102:5108  amount */\n      dup6\n        /* \"https://github.com/OpenZeppelin/openzeppelin-contracts/blob/v4.0.0/contracts/token/ERC20/ERC20.sol\":5083:5099  currentAllowance */\n      dup5\n        /* \"https://github.com/OpenZeppelin/openzeppelin-contracts/blob/v4.0.0/contracts/token/ERC20/ERC20.sol\":5083:5108  currentAllowance - amount */\n      tag_129\n      swap2\n      swap1\n      tag_130\n      jump\t// in\n    tag_129:\n        /* \"https://github.com/OpenZeppelin/openzeppelin-contracts/blob/v4.0.0/contracts/token/ERC20/ERC20.sol\":5052:5060  _approve */\n      tag_117\n        /* \"https://github.com/OpenZeppelin/openzeppelin-contracts/blob/v4.0.0/contracts/token/ERC20/ERC20.sol\":5052:5109  _approve(sender, _msgSender(), currentAllowance - amount) */\n      jump\t// in\n    tag_127:\n        /* \"https://github.com/OpenZeppelin/openzeppelin-contracts/blob/v4.0.0/contracts/token/ERC20/ERC20.sol\":5127:5131  true */\n      0x01\n        /* \"https://github.com/OpenZeppelin/openzeppelin-contracts/blob/v4.0.0/contracts/token/ERC20/ERC20.sol\":5120:5131  return true */\n      swap2\n      pop\n      pop\n        /* \"https://github.com/OpenZeppelin/openzeppelin-contracts/blob/v4.0.0/contracts/token/ERC20/ERC20.sol\":4724:5138  function transferFrom(address sender, address recipient, uint256 amount) public virtual override returns (bool) {... */\n      swap4\n      swap3\n      pop\n      pop\n      pop\n      jump\t// out\n        /* \"https://github.com/OpenZeppelin/openzeppelin-contracts/blob/v4.0.0/contracts/token/ERC20/ERC20.sol\":2940:3022  function decimals() public view virtual returns (uint8) {... */\n    tag_54:\n        /* \"https://github.com/OpenZeppelin/openzeppelin-contracts/blob/v4.0.0/contracts/token/ERC20/ERC20.sol\":2989:2994  uint8 */\n      0x00\n        /* \"https://github.com/OpenZeppelin/openzeppelin-contracts/blob/v4.0.0/contracts/token/ERC20/ERC20.sol\":3013:3015  18 */\n      0x12\n        /* \"https://github.com/OpenZeppelin/openzeppelin-contracts/blob/v4.0.0/contracts/token/ERC20/ERC20.sol\":3006:3015  return 18 */\n      swap1\n      pop\n        /* \"https://github.com/OpenZeppelin/openzeppelin-contracts/blob/v4.0.0/contracts/token/ERC20/ERC20.sol\":2940:3022  function decimals() public view virtual returns (uint8) {... */\n      swap1\n      jump\t// out\n        /* \"https://github.com/OpenZeppelin/openzeppelin-contracts/blob/v4.0.0/contracts/token/ERC20/ERC20.sol\":5533:5745  function increaseAllowance(address spender, uint256 addedValue) public virtual returns (bool) {... */\n    tag_59:\n        /* \"https://github.com/OpenZeppelin/openzeppelin-contracts/blob/v4.0.0/contracts/token/ERC20/ERC20.sol\":5621:5625  bool */\n      0x00\n        /* \"https://github.com/OpenZeppelin/openzeppelin-contracts/blob/v4.0.0/contracts/token/ERC20/ERC20.sol\":5637:5717  _approve(_msgSender(), spender, _allowances[_msgSender()][spender] + addedValue) */\n      tag_133\n        /* \"https://github.com/OpenZeppelin/openzeppelin-contracts/blob/v4.0.0/contracts/token/ERC20/ERC20.sol\":5646:5658  _msgSender() */\n      tag_134\n        /* \"https://github.com/OpenZeppelin/openzeppelin-contracts/blob/v4.0.0/contracts/token/ERC20/ERC20.sol\":5646:5656  _msgSender */\n      tag_116\n        /* \"https://github.com/OpenZeppelin/openzeppelin-contracts/blob/v4.0.0/contracts/token/ERC20/ERC20.sol\":5646:5658  _msgSender() */\n      jump\t// in\n    tag_134:\n        /* \"https://github.com/OpenZeppelin/openzeppelin-contracts/blob/v4.0.0/contracts/token/ERC20/ERC20.sol\":5660:5667  spender */\n      dup5\n        /* \"https://github.com/OpenZeppelin/openzeppelin-contracts/blob/v4.0.0/contracts/token/ERC20/ERC20.sol\":5706:5716  addedValue */\n      dup5\n        /* \"https://github.com/OpenZeppelin/openzeppelin-contracts/blob/v4.0.0/contracts/token/ERC20/ERC20.sol\":5669:5680  _allowances */\n      0x01\n        /* \"https://github.com/OpenZeppelin/openzeppelin-contracts/blob/v4.0.0/contracts/token/ERC20/ERC20.sol\":5669:5694  _allowances[_msgSender()] */\n      0x00\n        /* \"https://github.com/OpenZeppelin/openzeppelin-contracts/blob/v4.0.0/contracts/token/ERC20/ERC20.sol\":5681:5693  _msgSender() */\n      tag_135\n        /* \"https://github.com/OpenZeppelin/openzeppelin-contracts/blob/v4.0.0/contracts/token/ERC20/ERC20.sol\":5681:5691  _msgSender */\n      tag_116\n        /* \"https://github.com/OpenZeppelin/openzeppelin-contracts/blob/v4.0.0/contracts/token/ERC20/ERC20.sol\":5681:5693  _msgSender() */\n      jump\t// in\n    tag_135:\n        /* \"https://github.com/OpenZeppelin/openzeppelin-contracts/blob/v4.0.0/contracts/token/ERC20/ERC20.sol\":5669:5694  _allowances[_msgSender()] */\n      0xffffffffffffffffffffffffffffffffffffffff\n      and\n      0xffffffffffffffffffffffffffffffffffffffff\n      and\n      dup2\n      mstore\n      0x20\n      add\n      swap1\n      dup2\n      mstore\n      0x20\n      add\n      0x00\n      keccak256\n        /* \"https://github.com/OpenZeppelin/openzeppelin-contracts/blob/v4.0.0/contracts/token/ERC20/ERC20.sol\":5669:5703  _allowances[_msgSender()][spender] */\n      0x00\n        /* \"https://github.com/OpenZeppelin/openzeppelin-contracts/blob/v4.0.0/contracts/token/ERC20/ERC20.sol\":5695:5702  spender */\n      dup9\n        /* \"https://github.com/OpenZeppelin/openzeppelin-contracts/blob/v4.0.0/contracts/token/ERC20/ERC20.sol\":5669:5703  _allowances[_msgSender()][spender] */\n      0xffffffffffffffffffffffffffffffffffffffff\n      and\n      0xffffffffffffffffffffffffffffffffffffffff\n      and\n      dup2\n      mstore\n      0x20\n      add\n      swap1\n      dup2\n      mstore\n      0x20\n      add\n      0x00\n      keccak256\n      sload\n        /* \"https://github.com/OpenZeppelin/openzeppelin-contracts/blob/v4.0.0/contracts/token/ERC20/ERC20.sol\":5669:5716  _allowances[_msgSender()][spender] + addedValue */\n      tag_136\n      swap2\n      swap1\n      tag_137\n      jump\t// in\n    tag_136:\n        /* \"https://github.com/OpenZeppelin/openzeppelin-contracts/blob/v4.0.0/contracts/token/ERC20/ERC20.sol\":5637:5645  _approve */\n      tag_117\n        /* \"https://github.com/OpenZeppelin/openzeppelin-contracts/blob/v4.0.0/contracts/token/ERC20/ERC20.sol\":5637:5717  _approve(_msgSender(), spender, _allowances[_msgSender()][spender] + addedValue) */\n      jump\t// in\n    tag_133:\n        /* \"https://github.com/OpenZeppelin/openzeppelin-contracts/blob/v4.0.0/contracts/token/ERC20/ERC20.sol\":5734:5738  true */\n      0x01\n        /* \"https://github.com/OpenZeppelin/openzeppelin-contracts/blob/v4.0.0/contracts/token/ERC20/ERC20.sol\":5727:5738  return true */\n      swap1\n      pop\n        /* \"https://github.com/OpenZeppelin/openzeppelin-contracts/blob/v4.0.0/contracts/token/ERC20/ERC20.sol\":5533:5745  function increaseAllowance(address spender, uint256 addedValue) public virtual returns (bool) {... */\n      swap3\n      swap2\n      pop\n      pop\n      jump\t// out\n        /* \"Contract/Tokrnmaker1.sol\":1257:1478  function setItemPrice(uint256 itemId, uint256 price) external onlyOwner {... */\n    tag_64:\n        /* \"https://github.com/OpenZeppelin/openzeppelin-contracts/blob/v4.0.0/contracts/access/Ownable.sol\":1291:1303  _msgSender() */\n      tag_139\n        /* \"https://github.com/OpenZeppelin/openzeppelin-contracts/blob/v4.0.0/contracts/access/Ownable.sol\":1291:1301  _msgSender */\n      tag_116\n        /* \"https://github.com/OpenZeppelin/openzeppelin-contracts/blob/v4.0.0/contracts/access/Ownable.sol\":1291:1303  _msgSender() */\n      jump\t// in\n    tag_139:\n        /* \"https://github.com/OpenZeppelin/openzeppelin-contracts/blob/v4.0.0/contracts/access/Ownable.sol\":1280:1303  owner() == _msgSender() */\n      0xffffffffffffffffffffffffffffffffffffffff\n      and\n        /* \"https://github.com/OpenZeppelin/openzeppelin-contracts/blob/v4.0.0/contracts/access/Ownable.sol\":1280:1287  owner() */\n      tag_140\n        /* \"https://github.com/OpenZeppelin/openzeppelin-contracts/blob/v4.0.0/contracts/access/Ownable.sol\":1280:1285  owner */\n      tag_73\n        /* \"https://github.com/OpenZeppelin/openzeppelin-contracts/blob/v4.0.0/contracts/access/Ownable.sol\":1280:1287  owner() */\n      jump\t// in\n    tag_140:\n        /* \"https://github.com/OpenZeppelin/openzeppelin-contracts/blob/v4.0.0/contracts/access/Ownable.sol\":1280:1303  owner() == _msgSender() */\n      0xffffffffffffffffffffffffffffffffffffffff\n      and\n      eq\n        /* \"https://github.com/OpenZeppelin/openzeppelin-contracts/blob/v4.0.0/contracts/access/Ownable.sol\":1272:1340  require(owner() == _msgSender(), \"Ownable: caller is not the owner\") */\n      tag_141\n      jumpi\n      mload(0x40)\n      0x08c379a000000000000000000000000000000000000000000000000000000000\n      dup2\n      mstore\n      0x04\n      add\n      tag_142\n      swap1\n      tag_143\n      jump\t// in\n    tag_142:\n      mload(0x40)\n      dup1\n      swap2\n      sub\n      swap1\n      revert\n    tag_141:\n        /* \"Contract/Tokrnmaker1.sol\":1356:1357  0 */\n      0x00\n        /* \"Contract/Tokrnmaker1.sol\":1348:1353  price */\n      dup2\n        /* \"Contract/Tokrnmaker1.sol\":1348:1357  price > 0 */\n      gt\n        /* \"Contract/Tokrnmaker1.sol\":1340:1390  require(price > 0, \"Price must be greater than 0\") */\n      tag_145\n      jumpi\n      mload(0x40)\n      0x08c379a000000000000000000000000000000000000000000000000000000000\n      dup2\n      mstore\n      0x04\n      add\n      tag_146\n      swap1\n      tag_147\n      jump\t// in\n    tag_146:\n      mload(0x40)\n      dup1\n      swap2\n      sub\n      swap1\n      revert\n    tag_145:\n        /* \"Contract/Tokrnmaker1.sol\":1422:1427  price */\n      dup1\n        /* \"Contract/Tokrnmaker1.sol\":1401:1411  itemPrices */\n      0x06\n        /* \"Contract/Tokrnmaker1.sol\":1401:1419  itemPrices[itemId] */\n      0x00\n        /* \"Contract/Tokrnmaker1.sol\":1412:1418  itemId */\n      dup5\n        /* \"Contract/Tokrnmaker1.sol\":1401:1419  itemPrices[itemId] */\n      dup2\n      mstore\n      0x20\n      add\n      swap1\n      dup2\n      mstore\n      0x20\n      add\n      0x00\n      keccak256\n        /* \"Contract/Tokrnmaker1.sol\":1401:1427  itemPrices[itemId] = price */\n      dup2\n      swap1\n      sstore\n      pop\n        /* \"Contract/Tokrnmaker1.sol\":1443:1470  ItemPriceSet(itemId, price) */\n      0x53973a0aa9eb26609e2a6bb41f5235722e699b14e88f6eb24fc85c51167529d8\n        /* \"Contract/Tokrnmaker1.sol\":1456:1462  itemId */\n      dup3\n        /* \"Contract/Tokrnmaker1.sol\":1464:1469  price */\n      dup3\n        /* \"Contract/Tokrnmaker1.sol\":1443:1470  ItemPriceSet(itemId, price) */\n      mload(0x40)\n      tag_148\n      swap3\n      swap2\n      swap1\n      tag_149\n      jump\t// in\n    tag_148:\n      mload(0x40)\n      dup1\n      swap2\n      sub\n      swap1\n      log1\n        /* \"Contract/Tokrnmaker1.sol\":1257:1478  function setItemPrice(uint256 itemId, uint256 price) external onlyOwner {... */\n      pop\n      pop\n      jump\t// out\n        /* \"https://github.com/OpenZeppelin/openzeppelin-contracts/blob/v4.0.0/contracts/token/ERC20/ERC20.sol\":3246:3371  function balanceOf(address account) public view virtual override returns (uint256) {... */\n    tag_68:\n        /* \"https://github.com/OpenZeppelin/openzeppelin-contracts/blob/v4.0.0/contracts/token/ERC20/ERC20.sol\":3320:3327  uint256 */\n      0x00\n        /* \"https://github.com/OpenZeppelin/openzeppelin-contracts/blob/v4.0.0/contracts/token/ERC20/ERC20.sol\":3346:3355  _balances */\n      dup1\n        /* \"https://github.com/OpenZeppelin/openzeppelin-contracts/blob/v4.0.0/contracts/token/ERC20/ERC20.sol\":3346:3364  _balances[account] */\n      0x00\n        /* \"https://github.com/OpenZeppelin/openzeppelin-contracts/blob/v4.0.0/contracts/token/ERC20/ERC20.sol\":3356:3363  account */\n      dup4\n        /* \"https://github.com/OpenZeppelin/openzeppelin-contracts/blob/v4.0.0/contracts/token/ERC20/ERC20.sol\":3346:3364  _balances[account] */\n      0xffffffffffffffffffffffffffffffffffffffff\n      and\n      0xffffffffffffffffffffffffffffffffffffffff\n      and\n      dup2\n      mstore\n      0x20\n      add\n      swap1\n      dup2\n      mstore\n      0x20\n      add\n      0x00\n      keccak256\n      sload\n        /* \"https://github.com/OpenZeppelin/openzeppelin-contracts/blob/v4.0.0/contracts/token/ERC20/ERC20.sol\":3339:3364  return _balances[account] */\n      swap1\n      pop\n        /* \"https://github.com/OpenZeppelin/openzeppelin-contracts/blob/v4.0.0/contracts/token/ERC20/ERC20.sol\":3246:3371  function balanceOf(address account) public view virtual override returns (uint256) {... */\n      swap2\n      swap1\n      pop\n      jump\t// out\n        /* \"https://github.com/OpenZeppelin/openzeppelin-contracts/blob/v4.0.0/contracts/access/Ownable.sol\":1700:1845  function renounceOwnership() public virtual onlyOwner {... */\n    tag_71:\n        /* \"https://github.com/OpenZeppelin/openzeppelin-contracts/blob/v4.0.0/contracts/access/Ownable.sol\":1291:1303  _msgSender() */\n      tag_152\n        /* \"https://github.com/OpenZeppelin/openzeppelin-contracts/blob/v4.0.0/contracts/access/Ownable.sol\":1291:1301  _msgSender */\n      tag_116\n        /* \"https://github.com/OpenZeppelin/openzeppelin-contracts/blob/v4.0.0/contracts/access/Ownable.sol\":1291:1303  _msgSender() */\n      jump\t// in\n    tag_152:\n        /* \"https://github.com/OpenZeppelin/openzeppelin-contracts/blob/v4.0.0/contracts/access/Ownable.sol\":1280:1303  owner() == _msgSender() */\n      0xffffffffffffffffffffffffffffffffffffffff\n      and\n        /* \"https://github.com/OpenZeppelin/openzeppelin-contracts/blob/v4.0.0/contracts/access/Ownable.sol\":1280:1287  owner() */\n      tag_153\n        /* \"https://github.com/OpenZeppelin/openzeppelin-contracts/blob/v4.0.0/contracts/access/Ownable.sol\":1280:1285  owner */\n      tag_73\n        /* \"https://github.com/OpenZeppelin/openzeppelin-contracts/blob/v4.0.0/contracts/access/Ownable.sol\":1280:1287  owner() */\n      jump\t// in\n    tag_153:\n        /* \"https://github.com/OpenZeppelin/openzeppelin-contracts/blob/v4.0.0/contracts/access/Ownable.sol\":1280:1303  owner() == _msgSender() */\n      0xffffffffffffffffffffffffffffffffffffffff\n      and\n      eq\n        /* \"https://github.com/OpenZeppelin/openzeppelin-contracts/blob/v4.0.0/contracts/access/Ownable.sol\":1272:1340  require(owner() == _msgSender(), \"Ownable: caller is not the owner\") */\n      tag_154\n      jumpi\n      mload(0x40)\n      0x08c379a000000000000000000000000000000000000000000000000000000000\n      dup2\n      mstore\n      0x04\n      add\n      tag_155\n      swap1\n      tag_143\n      jump\t// in\n    tag_155:\n      mload(0x40)\n      dup1\n      swap2\n      sub\n      swap1\n      revert\n    tag_154:\n        /* \"https://github.com/OpenZeppelin/openzeppelin-contracts/blob/v4.0.0/contracts/access/Ownable.sol\":1806:1807  0 */\n      0x00\n        /* \"https://github.com/OpenZeppelin/openzeppelin-contracts/blob/v4.0.0/contracts/access/Ownable.sol\":1769:1809  OwnershipTransferred(_owner, address(0)) */\n      0xffffffffffffffffffffffffffffffffffffffff\n      and\n        /* \"https://github.com/OpenZeppelin/openzeppelin-contracts/blob/v4.0.0/contracts/access/Ownable.sol\":1790:1796  _owner */\n      0x05\n      0x00\n      swap1\n      sload\n      swap1\n      0x0100\n      exp\n      swap1\n      div\n      0xffffffffffffffffffffffffffffffffffffffff\n      and\n        /* \"https://github.com/OpenZeppelin/openzeppelin-contracts/blob/v4.0.0/contracts/access/Ownable.sol\":1769:1809  OwnershipTransferred(_owner, address(0)) */\n      0xffffffffffffffffffffffffffffffffffffffff\n      and\n      0x8be0079c531659141344cd1fd0a4f28419497f9722a3daafe3b4186f6b6457e0\n      mload(0x40)\n      mload(0x40)\n      dup1\n      swap2\n      sub\n      swap1\n      log3\n        /* \"https://github.com/OpenZeppelin/openzeppelin-contracts/blob/v4.0.0/contracts/access/Ownable.sol\":1836:1837  0 */\n      0x00\n        /* \"https://github.com/OpenZeppelin/openzeppelin-contracts/blob/v4.0.0/contracts/access/Ownable.sol\":1819:1825  _owner */\n      0x05\n      0x00\n        /* \"https://github.com/OpenZeppelin/openzeppelin-contracts/blob/v4.0.0/contracts/access/Ownable.sol\":1819:1838  _owner = address(0) */\n      0x0100\n      exp\n      dup2\n      sload\n      dup2\n      0xffffffffffffffffffffffffffffffffffffffff\n      mul\n      not\n      and\n      swap1\n      dup4\n      0xffffffffffffffffffffffffffffffffffffffff\n      and\n      mul\n      or\n      swap1\n      sstore\n      pop\n        /* \"https://github.com/OpenZeppelin/openzeppelin-contracts/blob/v4.0.0/contracts/access/Ownable.sol\":1700:1845  function renounceOwnership() public virtual onlyOwner {... */\n      jump\t// out\n        /* \"https://github.com/OpenZeppelin/openzeppelin-contracts/blob/v4.0.0/contracts/access/Ownable.sol\":1068:1153  function owner() public view virtual returns (address) {... */\n    tag_73:\n        /* \"https://github.com/OpenZeppelin/openzeppelin-contracts/blob/v4.0.0/contracts/access/Ownable.sol\":1114:1121  address */\n      0x00\n        /* \"https://github.com/OpenZeppelin/openzeppelin-contracts/blob/v4.0.0/contracts/access/Ownable.sol\":1140:1146  _owner */\n      0x05\n      0x00\n      swap1\n      sload\n      swap1\n      0x0100\n      exp\n      swap1\n      div\n      0xffffffffffffffffffffffffffffffffffffffff\n      and\n        /* \"https://github.com/OpenZeppelin/openzeppelin-contracts/blob/v4.0.0/contracts/access/Ownable.sol\":1133:1146  return _owner */\n      swap1\n      pop\n        /* \"https://github.com/OpenZeppelin/openzeppelin-contracts/blob/v4.0.0/contracts/access/Ownable.sol\":1068:1153  function owner() public view virtual returns (address) {... */\n      swap1\n      jump\t// out\n        /* \"https://github.com/OpenZeppelin/openzeppelin-contracts/blob/v4.0.0/contracts/token/ERC20/ERC20.sol\":2223:2316  function symbol() public view virtual returns (string memory) {... */\n    tag_77:\n        /* \"https://github.com/OpenZeppelin/openzeppelin-contracts/blob/v4.0.0/contracts/token/ERC20/ERC20.sol\":2270:2283  string memory */\n      0x60\n        /* \"https://github.com/OpenZeppelin/openzeppelin-contracts/blob/v4.0.0/contracts/token/ERC20/ERC20.sol\":2302:2309  _symbol */\n      0x04\n        /* \"https://github.com/OpenZeppelin/openzeppelin-contracts/blob/v4.0.0/contracts/token/ERC20/ERC20.sol\":2295:2309  return _symbol */\n      dup1\n      sload\n      tag_159\n      swap1\n      tag_108\n      jump\t// in\n    tag_159:\n      dup1\n      0x1f\n      add\n      0x20\n      dup1\n      swap2\n      div\n      mul\n      0x20\n      add\n      mload(0x40)\n      swap1\n      dup2\n      add\n      0x40\n      mstore\n      dup1\n      swap3\n      swap2\n      swap1\n      dup2\n      dup2\n      mstore\n      0x20\n      add\n      dup3\n      dup1\n      sload\n      tag_160\n      swap1\n      tag_108\n      jump\t// in\n    tag_160:\n      dup1\n      iszero\n      tag_161\n      jumpi\n      dup1\n      0x1f\n      lt\n      tag_162\n      jumpi\n      0x0100\n      dup1\n      dup4\n      sload\n      div\n      mul\n      dup4\n      mstore\n      swap2\n      0x20\n      add\n      swap2\n      jump(tag_161)\n    tag_162:\n      dup3\n      add\n      swap2\n      swap1\n      0x00\n      mstore\n      keccak256(0x00, 0x20)\n      swap1\n    tag_163:\n      dup2\n      sload\n      dup2\n      mstore\n      swap1\n      0x01\n      add\n      swap1\n      0x20\n      add\n      dup1\n      dup4\n      gt\n      tag_163\n      jumpi\n      dup3\n      swap1\n      sub\n      0x1f\n      and\n      dup3\n      add\n      swap2\n    tag_161:\n      pop\n      pop\n      pop\n      pop\n      pop\n      swap1\n      pop\n        /* \"https://github.com/OpenZeppelin/openzeppelin-contracts/blob/v4.0.0/contracts/token/ERC20/ERC20.sol\":2223:2316  function symbol() public view virtual returns (string memory) {... */\n      swap1\n      jump\t// out\n        /* \"https://github.com/OpenZeppelin/openzeppelin-contracts/blob/v4.0.0/contracts/token/ERC20/ERC20.sol\":6232:6603  function decreaseAllowance(address spender, uint256 subtractedValue) public virtual returns (bool) {... */\n    tag_81:\n        /* \"https://github.com/OpenZeppelin/openzeppelin-contracts/blob/v4.0.0/contracts/token/ERC20/ERC20.sol\":6325:6329  bool */\n      0x00\n        /* \"https://github.com/OpenZeppelin/openzeppelin-contracts/blob/v4.0.0/contracts/token/ERC20/ERC20.sol\":6341:6365  uint256 currentAllowance */\n      dup1\n        /* \"https://github.com/OpenZeppelin/openzeppelin-contracts/blob/v4.0.0/contracts/token/ERC20/ERC20.sol\":6368:6379  _allowances */\n      0x01\n        /* \"https://github.com/OpenZeppelin/openzeppelin-contracts/blob/v4.0.0/contracts/token/ERC20/ERC20.sol\":6368:6393  _allowances[_msgSender()] */\n      0x00\n        /* \"https://github.com/OpenZeppelin/openzeppelin-contracts/blob/v4.0.0/contracts/token/ERC20/ERC20.sol\":6380:6392  _msgSender() */\n      tag_165\n        /* \"https://github.com/OpenZeppelin/openzeppelin-contracts/blob/v4.0.0/contracts/token/ERC20/ERC20.sol\":6380:6390  _msgSender */\n      tag_116\n        /* \"https://github.com/OpenZeppelin/openzeppelin-contracts/blob/v4.0.0/contracts/token/ERC20/ERC20.sol\":6380:6392  _msgSender() */\n      jump\t// in\n    tag_165:\n        /* \"https://github.com/OpenZeppelin/openzeppelin-contracts/blob/v4.0.0/contracts/token/ERC20/ERC20.sol\":6368:6393  _allowances[_msgSender()] */\n      0xffffffffffffffffffffffffffffffffffffffff\n      and\n      0xffffffffffffffffffffffffffffffffffffffff\n      and\n      dup2\n      mstore\n      0x20\n      add\n      swap1\n      dup2\n      mstore\n      0x20\n      add\n      0x00\n      keccak256\n        /* \"https://github.com/OpenZeppelin/openzeppelin-contracts/blob/v4.0.0/contracts/token/ERC20/ERC20.sol\":6368:6402  _allowances[_msgSender()][spender] */\n      0x00\n        /* \"https://github.com/OpenZeppelin/openzeppelin-contracts/blob/v4.0.0/contracts/token/ERC20/ERC20.sol\":6394:6401  spender */\n      dup6\n        /* \"https://github.com/OpenZeppelin/openzeppelin-contracts/blob/v4.0.0/contracts/token/ERC20/ERC20.sol\":6368:6402  _allowances[_msgSender()][spender] */\n      0xffffffffffffffffffffffffffffffffffffffff\n      and\n      0xffffffffffffffffffffffffffffffffffffffff\n      and\n      dup2\n      mstore\n      0x20\n      add\n      swap1\n      dup2\n      mstore\n      0x20\n      add\n      0x00\n      keccak256\n      sload\n        /* \"https://github.com/OpenZeppelin/openzeppelin-contracts/blob/v4.0.0/contracts/token/ERC20/ERC20.sol\":6341:6402  uint256 currentAllowance = _allowances[_msgSender()][spender] */\n      swap1\n      pop\n        /* \"https://github.com/OpenZeppelin/openzeppelin-contracts/blob/v4.0.0/contracts/token/ERC20/ERC20.sol\":6440:6455  subtractedValue */\n      dup3\n        /* \"https://github.com/OpenZeppelin/openzeppelin-contracts/blob/v4.0.0/contracts/token/ERC20/ERC20.sol\":6420:6436  currentAllowance */\n      dup2\n        /* \"https://github.com/OpenZeppelin/openzeppelin-contracts/blob/v4.0.0/contracts/token/ERC20/ERC20.sol\":6420:6455  currentAllowance >= subtractedValue */\n      lt\n      iszero\n        /* \"https://github.com/OpenZeppelin/openzeppelin-contracts/blob/v4.0.0/contracts/token/ERC20/ERC20.sol\":6412:6497  require(currentAllowance >= subtractedValue, \"ERC20: decreased allowance below zero\") */\n      tag_166\n      jumpi\n      mload(0x40)\n      0x08c379a000000000000000000000000000000000000000000000000000000000\n      dup2\n      mstore\n      0x04\n      add\n      tag_167\n      swap1\n      tag_168\n      jump\t// in\n    tag_167:\n      mload(0x40)\n      dup1\n      swap2\n      sub\n      swap1\n      revert\n    tag_166:\n        /* \"https://github.com/OpenZeppelin/openzeppelin-contracts/blob/v4.0.0/contracts/token/ERC20/ERC20.sol\":6507:6574  _approve(_msgSender(), spender, currentAllowance - subtractedValue) */\n      tag_169\n        /* \"https://github.com/OpenZeppelin/openzeppelin-contracts/blob/v4.0.0/contracts/token/ERC20/ERC20.sol\":6516:6528  _msgSender() */\n      tag_170\n        /* \"https://github.com/OpenZeppelin/openzeppelin-contracts/blob/v4.0.0/contracts/token/ERC20/ERC20.sol\":6516:6526  _msgSender */\n      tag_116\n        /* \"https://github.com/OpenZeppelin/openzeppelin-contracts/blob/v4.0.0/contracts/token/ERC20/ERC20.sol\":6516:6528  _msgSender() */\n      jump\t// in\n    tag_170:\n        /* \"https://github.com/OpenZeppelin/openzeppelin-contracts/blob/v4.0.0/contracts/token/ERC20/ERC20.sol\":6530:6537  spender */\n      dup6\n        /* \"https://github.com/OpenZeppelin/openzeppelin-contracts/blob/v4.0.0/contracts/token/ERC20/ERC20.sol\":6558:6573  subtractedValue */\n      dup6\n        /* \"https://github.com/OpenZeppelin/openzeppelin-contracts/blob/v4.0.0/contracts/token/ERC20/ERC20.sol\":6539:6555  currentAllowance */\n      dup5\n        /* \"https://github.com/OpenZeppelin/openzeppelin-contracts/blob/v4.0.0/contracts/token/ERC20/ERC20.sol\":6539:6573  currentAllowance - subtractedValue */\n      tag_171\n      swap2\n      swap1\n      tag_130\n      jump\t// in\n    tag_171:\n        /* \"https://github.com/OpenZeppelin/openzeppelin-contracts/blob/v4.0.0/contracts/token/ERC20/ERC20.sol\":6507:6515  _approve */\n      tag_117\n        /* \"https://github.com/OpenZeppelin/openzeppelin-contracts/blob/v4.0.0/contracts/token/ERC20/ERC20.sol\":6507:6574  _approve(_msgSender(), spender, currentAllowance - subtractedValue) */\n      jump\t// in\n    tag_169:\n        /* \"https://github.com/OpenZeppelin/openzeppelin-contracts/blob/v4.0.0/contracts/token/ERC20/ERC20.sol\":6592:6596  true */\n      0x01\n        /* \"https://github.com/OpenZeppelin/openzeppelin-contracts/blob/v4.0.0/contracts/token/ERC20/ERC20.sol\":6585:6596  return true */\n      swap2\n      pop\n      pop\n        /* \"https://github.com/OpenZeppelin/openzeppelin-contracts/blob/v4.0.0/contracts/token/ERC20/ERC20.sol\":6232:6603  function decreaseAllowance(address spender, uint256 subtractedValue) public virtual returns (bool) {... */\n      swap3\n      swap2\n      pop\n      pop\n      jump\t// out\n        /* \"https://github.com/OpenZeppelin/openzeppelin-contracts/blob/v4.0.0/contracts/token/ERC20/ERC20.sol\":3574:3746  function transfer(address recipient, uint256 amount) public virtual override returns (bool) {... */\n    tag_85:\n        /* \"https://github.com/OpenZeppelin/openzeppelin-contracts/blob/v4.0.0/contracts/token/ERC20/ERC20.sol\":3660:3664  bool */\n      0x00\n        /* \"https://github.com/OpenZeppelin/openzeppelin-contracts/blob/v4.0.0/contracts/token/ERC20/ERC20.sol\":3676:3718  _transfer(_msgSender(), recipient, amount) */\n      tag_173\n        /* \"https://github.com/OpenZeppelin/openzeppelin-contracts/blob/v4.0.0/contracts/token/ERC20/ERC20.sol\":3686:3698  _msgSender() */\n      tag_174\n        /* \"https://github.com/OpenZeppelin/openzeppelin-contracts/blob/v4.0.0/contracts/token/ERC20/ERC20.sol\":3686:3696  _msgSender */\n      tag_116\n        /* \"https://github.com/OpenZeppelin/openzeppelin-contracts/blob/v4.0.0/contracts/token/ERC20/ERC20.sol\":3686:3698  _msgSender() */\n      jump\t// in\n    tag_174:\n        /* \"https://github.com/OpenZeppelin/openzeppelin-contracts/blob/v4.0.0/contracts/token/ERC20/ERC20.sol\":3700:3709  recipient */\n      dup5\n        /* \"https://github.com/OpenZeppelin/openzeppelin-contracts/blob/v4.0.0/contracts/token/ERC20/ERC20.sol\":3711:3717  amount */\n      dup5\n        /* \"https://github.com/OpenZeppelin/openzeppelin-contracts/blob/v4.0.0/contracts/token/ERC20/ERC20.sol\":3676:3685  _transfer */\n      tag_122\n        /* \"https://github.com/OpenZeppelin/openzeppelin-contracts/blob/v4.0.0/contracts/token/ERC20/ERC20.sol\":3676:3718  _transfer(_msgSender(), recipient, amount) */\n      jump\t// in\n    tag_173:\n        /* \"https://github.com/OpenZeppelin/openzeppelin-contracts/blob/v4.0.0/contracts/token/ERC20/ERC20.sol\":3735:3739  true */\n      0x01\n        /* \"https://github.com/OpenZeppelin/openzeppelin-contracts/blob/v4.0.0/contracts/token/ERC20/ERC20.sol\":3728:3739  return true */\n      swap1\n      pop\n        /* \"https://github.com/OpenZeppelin/openzeppelin-contracts/blob/v4.0.0/contracts/token/ERC20/ERC20.sol\":3574:3746  function transfer(address recipient, uint256 amount) public virtual override returns (bool) {... */\n      swap3\n      swap2\n      pop\n      pop\n      jump\t// out\n        /* \"Contract/Tokrnmaker1.sol\":323:368  mapping(uint256 => uint256) public itemPrices */\n    tag_90:\n      mstore(0x20, 0x06)\n      dup1\n      0x00\n      mstore\n      keccak256(0x00, 0x40)\n      0x00\n      swap2\n      pop\n      swap1\n      pop\n      sload\n      dup2\n      jump\t// out\n        /* \"Contract/Tokrnmaker1.sol\":2492:2594  function mintGTN(address recipient, uint256 amount) public {... */\n    tag_94:\n        /* \"Contract/Tokrnmaker1.sol\":2562:2586  _mint(recipient, amount) */\n      tag_176\n        /* \"Contract/Tokrnmaker1.sol\":2568:2577  recipient */\n      dup3\n        /* \"Contract/Tokrnmaker1.sol\":2579:2585  amount */\n      dup3\n        /* \"Contract/Tokrnmaker1.sol\":2562:2567  _mint */\n      tag_177\n        /* \"Contract/Tokrnmaker1.sol\":2562:2586  _mint(recipient, amount) */\n      jump\t// in\n    tag_176:\n        /* \"Contract/Tokrnmaker1.sol\":2492:2594  function mintGTN(address recipient, uint256 amount) public {... */\n      pop\n      pop\n      jump\t// out\n        /* \"https://github.com/OpenZeppelin/openzeppelin-contracts/blob/v4.0.0/contracts/token/ERC20/ERC20.sol\":3804:3953  function allowance(address owner, address spender) public view virtual override returns (uint256) {... */\n    tag_98:\n        /* \"https://github.com/OpenZeppelin/openzeppelin-contracts/blob/v4.0.0/contracts/token/ERC20/ERC20.sol\":3893:3900  uint256 */\n      0x00\n        /* \"https://github.com/OpenZeppelin/openzeppelin-contracts/blob/v4.0.0/contracts/token/ERC20/ERC20.sol\":3919:3930  _allowances */\n      0x01\n        /* \"https://github.com/OpenZeppelin/openzeppelin-contracts/blob/v4.0.0/contracts/token/ERC20/ERC20.sol\":3919:3937  _allowances[owner] */\n      0x00\n        /* \"https://github.com/OpenZeppelin/openzeppelin-contracts/blob/v4.0.0/contracts/token/ERC20/ERC20.sol\":3931:3936  owner */\n      dup5\n        /* \"https://github.com/OpenZeppelin/openzeppelin-contracts/blob/v4.0.0/contracts/token/ERC20/ERC20.sol\":3919:3937  _allowances[owner] */\n      0xffffffffffffffffffffffffffffffffffffffff\n      and\n      0xffffffffffffffffffffffffffffffffffffffff\n      and\n      dup2\n      mstore\n      0x20\n      add\n      swap1\n      dup2\n      mstore\n      0x20\n      add\n      0x00\n      keccak256\n        /* \"https://github.com/OpenZeppelin/openzeppelin-contracts/blob/v4.0.0/contracts/token/ERC20/ERC20.sol\":3919:3946  _allowances[owner][spender] */\n      0x00\n        /* \"https://github.com/OpenZeppelin/openzeppelin-contracts/blob/v4.0.0/contracts/token/ERC20/ERC20.sol\":3938:3945  spender */\n      dup4\n        /* \"https://github.com/OpenZeppelin/openzeppelin-contracts/blob/v4.0.0/contracts/token/ERC20/ERC20.sol\":3919:3946  _allowances[owner][spender] */\n      0xffffffffffffffffffffffffffffffffffffffff\n      and\n      0xffffffffffffffffffffffffffffffffffffffff\n      and\n      dup2\n      mstore\n      0x20\n      add\n      swap1\n      dup2\n      mstore\n      0x20\n      add\n      0x00\n      keccak256\n      sload\n        /* \"https://github.com/OpenZeppelin/openzeppelin-contracts/blob/v4.0.0/contracts/token/ERC20/ERC20.sol\":3912:3946  return _allowances[owner][spender] */\n      swap1\n      pop\n        /* \"https://github.com/OpenZeppelin/openzeppelin-contracts/blob/v4.0.0/contracts/token/ERC20/ERC20.sol\":3804:3953  function allowance(address owner, address spender) public view virtual override returns (uint256) {... */\n      swap3\n      swap2\n      pop\n      pop\n      jump\t// out\n        /* \"Contract/Tokrnmaker1.sol\":1565:2194  function buyItem(uint256 itemId) external {... */\n    tag_102:\n        /* \"Contract/Tokrnmaker1.sol\":1618:1631  uint256 price */\n      0x00\n        /* \"Contract/Tokrnmaker1.sol\":1634:1644  itemPrices */\n      0x06\n        /* \"Contract/Tokrnmaker1.sol\":1634:1652  itemPrices[itemId] */\n      0x00\n        /* \"Contract/Tokrnmaker1.sol\":1645:1651  itemId */\n      dup4\n        /* \"Contract/Tokrnmaker1.sol\":1634:1652  itemPrices[itemId] */\n      dup2\n      mstore\n      0x20\n      add\n      swap1\n      dup2\n      mstore\n      0x20\n      add\n      0x00\n      keccak256\n      sload\n        /* \"Contract/Tokrnmaker1.sol\":1618:1652  uint256 price = itemPrices[itemId] */\n      swap1\n      pop\n        /* \"Contract/Tokrnmaker1.sol\":1679:1680  0 */\n      0x00\n        /* \"Contract/Tokrnmaker1.sol\":1671:1676  price */\n      dup2\n        /* \"Contract/Tokrnmaker1.sol\":1671:1680  price > 0 */\n      gt\n        /* \"Contract/Tokrnmaker1.sol\":1663:1710  require(price > 0, \"This item is not for sale\") */\n      tag_180\n      jumpi\n      mload(0x40)\n      0x08c379a000000000000000000000000000000000000000000000000000000000\n      dup2\n      mstore\n      0x04\n      add\n      tag_181\n      swap1\n      tag_182\n      jump\t// in\n    tag_181:\n      mload(0x40)\n      dup1\n      swap2\n      sub\n      swap1\n      revert\n    tag_180:\n        /* \"Contract/Tokrnmaker1.sol\":1743:1750  owner() */\n      tag_183\n        /* \"Contract/Tokrnmaker1.sol\":1743:1748  owner */\n      tag_73\n        /* \"Contract/Tokrnmaker1.sol\":1743:1750  owner() */\n      jump\t// in\n    tag_183:\n        /* \"Contract/Tokrnmaker1.sol\":1729:1750  msg.sender != owner() */\n      0xffffffffffffffffffffffffffffffffffffffff\n      and\n        /* \"Contract/Tokrnmaker1.sol\":1729:1739  msg.sender */\n      caller\n        /* \"Contract/Tokrnmaker1.sol\":1729:1750  msg.sender != owner() */\n      0xffffffffffffffffffffffffffffffffffffffff\n      and\n      sub\n        /* \"Contract/Tokrnmaker1.sol\":1721:1778  require(msg.sender != owner(), \"Admin cannot buy items!\") */\n      tag_184\n      jumpi\n      mload(0x40)\n      0x08c379a000000000000000000000000000000000000000000000000000000000\n      dup2\n      mstore\n      0x04\n      add\n      tag_185\n      swap1\n      tag_186\n      jump\t// in\n    tag_185:\n      mload(0x40)\n      dup1\n      swap2\n      sub\n      swap1\n      revert\n    tag_184:\n        /* \"Contract/Tokrnmaker1.sol\":1822:1827  price */\n      dup1\n        /* \"Contract/Tokrnmaker1.sol\":1797:1818  balanceOf(msg.sender) */\n      tag_187\n        /* \"Contract/Tokrnmaker1.sol\":1807:1817  msg.sender */\n      caller\n        /* \"Contract/Tokrnmaker1.sol\":1797:1806  balanceOf */\n      tag_68\n        /* \"Contract/Tokrnmaker1.sol\":1797:1818  balanceOf(msg.sender) */\n      jump\t// in\n    tag_187:\n        /* \"Contract/Tokrnmaker1.sol\":1797:1827  balanceOf(msg.sender) >= price */\n      lt\n      iszero\n        /* \"Contract/Tokrnmaker1.sol\":1789:1857  require(balanceOf(msg.sender) >= price, \"Insufficient GTN balance!\") */\n      tag_188\n      jumpi\n      mload(0x40)\n      0x08c379a000000000000000000000000000000000000000000000000000000000\n      dup2\n      mstore\n      0x04\n      add\n      tag_189\n      swap1\n      tag_190\n      jump\t// in\n    tag_189:\n      mload(0x40)\n      dup1\n      swap2\n      sub\n      swap1\n      revert\n    tag_188:\n        /* \"Contract/Tokrnmaker1.sol\":1877:1892  purchaseHistory */\n      0x07\n        /* \"Contract/Tokrnmaker1.sol\":1877:1904  purchaseHistory[msg.sender] */\n      0x00\n        /* \"Contract/Tokrnmaker1.sol\":1893:1903  msg.sender */\n      caller\n        /* \"Contract/Tokrnmaker1.sol\":1877:1904  purchaseHistory[msg.sender] */\n      0xffffffffffffffffffffffffffffffffffffffff\n      and\n      0xffffffffffffffffffffffffffffffffffffffff\n      and\n      dup2\n      mstore\n      0x20\n      add\n      swap1\n      dup2\n      mstore\n      0x20\n      add\n      0x00\n      keccak256\n        /* \"Contract/Tokrnmaker1.sol\":1877:1912  purchaseHistory[msg.sender][itemId] */\n      0x00\n        /* \"Contract/Tokrnmaker1.sol\":1905:1911  itemId */\n      dup4\n        /* \"Contract/Tokrnmaker1.sol\":1877:1912  purchaseHistory[msg.sender][itemId] */\n      dup2\n      mstore\n      0x20\n      add\n      swap1\n      dup2\n      mstore\n      0x20\n      add\n      0x00\n      keccak256\n      0x00\n      swap1\n      sload\n      swap1\n      0x0100\n      exp\n      swap1\n      div\n      0xff\n      and\n        /* \"Contract/Tokrnmaker1.sol\":1876:1912  !purchaseHistory[msg.sender][itemId] */\n      iszero\n        /* \"Contract/Tokrnmaker1.sol\":1868:1938  require(!purchaseHistory[msg.sender][itemId], \"You have already skin\") */\n      tag_191\n      jumpi\n      mload(0x40)\n      0x08c379a000000000000000000000000000000000000000000000000000000000\n      dup2\n      mstore\n      0x04\n      add\n      tag_192\n      swap1\n      tag_193\n      jump\t// in\n    tag_192:\n      mload(0x40)\n      dup1\n      swap2\n      sub\n      swap1\n      revert\n    tag_191:\n        /* \"Contract/Tokrnmaker1.sol\":1951:1988  _transfer(msg.sender, owner(), price) */\n      tag_194\n        /* \"Contract/Tokrnmaker1.sol\":1961:1971  msg.sender */\n      caller\n        /* \"Contract/Tokrnmaker1.sol\":1973:1980  owner() */\n      tag_195\n        /* \"Contract/Tokrnmaker1.sol\":1973:1978  owner */\n      tag_73\n        /* \"Contract/Tokrnmaker1.sol\":1973:1980  owner() */\n      jump\t// in\n    tag_195:\n        /* \"Contract/Tokrnmaker1.sol\":1982:1987  price */\n      dup4\n        /* \"Contract/Tokrnmaker1.sol\":1951:1960  _transfer */\n      tag_122\n        /* \"Contract/Tokrnmaker1.sol\":1951:1988  _transfer(msg.sender, owner(), price) */\n      jump\t// in\n    tag_194:\n        /* \"Contract/Tokrnmaker1.sol\":2093:2097  true */\n      0x01\n        /* \"Contract/Tokrnmaker1.sol\":2055:2070  purchaseHistory */\n      0x07\n        /* \"Contract/Tokrnmaker1.sol\":2055:2082  purchaseHistory[msg.sender] */\n      0x00\n        /* \"Contract/Tokrnmaker1.sol\":2071:2081  msg.sender */\n      caller\n        /* \"Contract/Tokrnmaker1.sol\":2055:2082  purchaseHistory[msg.sender] */\n      0xffffffffffffffffffffffffffffffffffffffff\n      and\n      0xffffffffffffffffffffffffffffffffffffffff\n      and\n      dup2\n      mstore\n      0x20\n      add\n      swap1\n      dup2\n      mstore\n      0x20\n      add\n      0x00\n      keccak256\n        /* \"Contract/Tokrnmaker1.sol\":2055:2090  purchaseHistory[msg.sender][itemId] */\n      0x00\n        /* \"Contract/Tokrnmaker1.sol\":2083:2089  itemId */\n      dup5\n        /* \"Contract/Tokrnmaker1.sol\":2055:2090  purchaseHistory[msg.sender][itemId] */\n      dup2\n      mstore\n      0x20\n      add\n      swap1\n      dup2\n      mstore\n      0x20\n      add\n      0x00\n      keccak256\n      0x00\n        /* \"Contract/Tokrnmaker1.sol\":2055:2097  purchaseHistory[msg.sender][itemId] = true */\n      0x0100\n      exp\n      dup2\n      sload\n      dup2\n      0xff\n      mul\n      not\n      and\n      swap1\n      dup4\n      iszero\n      iszero\n      mul\n      or\n      swap1\n      sstore\n      pop\n        /* \"Contract/Tokrnmaker1.sol\":2160:2170  msg.sender */\n      caller\n        /* \"Contract/Tokrnmaker1.sol\":2149:2186  ItemBought(msg.sender, itemId, price) */\n      0xffffffffffffffffffffffffffffffffffffffff\n      and\n      0xfe2094c9ff56716cb07edf0cff82da158f346cb3bb2d89703228ab4eb0c329b6\n        /* \"Contract/Tokrnmaker1.sol\":2172:2178  itemId */\n      dup4\n        /* \"Contract/Tokrnmaker1.sol\":2180:2185  price */\n      dup4\n        /* \"Contract/Tokrnmaker1.sol\":2149:2186  ItemBought(msg.sender, itemId, price) */\n      mload(0x40)\n      tag_196\n      swap3\n      swap2\n      swap1\n      tag_149\n      jump\t// in\n    tag_196:\n      mload(0x40)\n      dup1\n      swap2\n      sub\n      swap1\n      log2\n        /* \"Contract/Tokrnmaker1.sol\":1607:2194  {... */\n      pop\n        /* \"Contract/Tokrnmaker1.sol\":1565:2194  function buyItem(uint256 itemId) external {... */\n      pop\n      jump\t// out\n        /* \"https://github.com/OpenZeppelin/openzeppelin-contracts/blob/v4.0.0/contracts/access/Ownable.sol\":1994:2234  function transferOwnership(address newOwner) public virtual onlyOwner {... */\n    tag_105:\n        /* \"https://github.com/OpenZeppelin/openzeppelin-contracts/blob/v4.0.0/contracts/access/Ownable.sol\":1291:1303  _msgSender() */\n      tag_198\n        /* \"https://github.com/OpenZeppelin/openzeppelin-contracts/blob/v4.0.0/contracts/access/Ownable.sol\":1291:1301  _msgSender */\n      tag_116\n        /* \"https://github.com/OpenZeppelin/openzeppelin-contracts/blob/v4.0.0/contracts/access/Ownable.sol\":1291:1303  _msgSender() */\n      jump\t// in\n    tag_198:\n        /* \"https://github.com/OpenZeppelin/openzeppelin-contracts/blob/v4.0.0/contracts/access/Ownable.sol\":1280:1303  owner() == _msgSender() */\n      0xffffffffffffffffffffffffffffffffffffffff\n      and\n        /* \"https://github.com/OpenZeppelin/openzeppelin-contracts/blob/v4.0.0/contracts/access/Ownable.sol\":1280:1287  owner() */\n      tag_199\n        /* \"https://github.com/OpenZeppelin/openzeppelin-contracts/blob/v4.0.0/contracts/access/Ownable.sol\":1280:1285  owner */\n      tag_73\n        /* \"https://github.com/OpenZeppelin/openzeppelin-contracts/blob/v4.0.0/contracts/access/Ownable.sol\":1280:1287  owner() */\n      jump\t// in\n    tag_199:\n        /* \"https://github.com/OpenZeppelin/openzeppelin-contracts/blob/v4.0.0/contracts/access/Ownable.sol\":1280:1303  owner() == _msgSender() */\n      0xffffffffffffffffffffffffffffffffffffffff\n      and\n      eq\n        /* \"https://github.com/OpenZeppelin/openzeppelin-contracts/blob/v4.0.0/contracts/access/Ownable.sol\":1272:1340  require(owner() == _msgSender(), \"Ownable: caller is not the owner\") */\n      tag_200\n      jumpi\n      mload(0x40)\n      0x08c379a000000000000000000000000000000000000000000000000000000000\n      dup2\n      mstore\n      0x04\n      add\n      tag_201\n      swap1\n      tag_143\n      jump\t// in\n    tag_201:\n      mload(0x40)\n      dup1\n      swap2\n      sub\n      swap1\n      revert\n    tag_200:\n        /* \"https://github.com/OpenZeppelin/openzeppelin-contracts/blob/v4.0.0/contracts/access/Ownable.sol\":2102:2103  0 */\n      0x00\n        /* \"https://github.com/OpenZeppelin/openzeppelin-contracts/blob/v4.0.0/contracts/access/Ownable.sol\":2082:2104  newOwner != address(0) */\n      0xffffffffffffffffffffffffffffffffffffffff\n      and\n        /* \"https://github.com/OpenZeppelin/openzeppelin-contracts/blob/v4.0.0/contracts/access/Ownable.sol\":2082:2090  newOwner */\n      dup2\n        /* \"https://github.com/OpenZeppelin/openzeppelin-contracts/blob/v4.0.0/contracts/access/Ownable.sol\":2082:2104  newOwner != address(0) */\n      0xffffffffffffffffffffffffffffffffffffffff\n      and\n      sub\n        /* \"https://github.com/OpenZeppelin/openzeppelin-contracts/blob/v4.0.0/contracts/access/Ownable.sol\":2074:2147  require(newOwner != address(0), \"Ownable: new owner is the zero address\") */\n      tag_203\n      jumpi\n      mload(0x40)\n      0x08c379a000000000000000000000000000000000000000000000000000000000\n      dup2\n      mstore\n      0x04\n      add\n      tag_204\n      swap1\n      tag_205\n      jump\t// in\n    tag_204:\n      mload(0x40)\n      dup1\n      swap2\n      sub\n      swap1\n      revert\n    tag_203:\n        /* \"https://github.com/OpenZeppelin/openzeppelin-contracts/blob/v4.0.0/contracts/access/Ownable.sol\":2191:2199  newOwner */\n      dup1\n        /* \"https://github.com/OpenZeppelin/openzeppelin-contracts/blob/v4.0.0/contracts/access/Ownable.sol\":2162:2200  OwnershipTransferred(_owner, newOwner) */\n      0xffffffffffffffffffffffffffffffffffffffff\n      and\n        /* \"https://github.com/OpenZeppelin/openzeppelin-contracts/blob/v4.0.0/contracts/access/Ownable.sol\":2183:2189  _owner */\n      0x05\n      0x00\n      swap1\n      sload\n      swap1\n      0x0100\n      exp\n      swap1\n      div\n      0xffffffffffffffffffffffffffffffffffffffff\n      and\n        /* \"https://github.com/OpenZeppelin/openzeppelin-contracts/blob/v4.0.0/contracts/access/Ownable.sol\":2162:2200  OwnershipTransferred(_owner, newOwner) */\n      0xffffffffffffffffffffffffffffffffffffffff\n      and\n      0x8be0079c531659141344cd1fd0a4f28419497f9722a3daafe3b4186f6b6457e0\n      mload(0x40)\n      mload(0x40)\n      dup1\n      swap2\n      sub\n      swap1\n      log3\n        /* \"https://github.com/OpenZeppelin/openzeppelin-contracts/blob/v4.0.0/contracts/access/Ownable.sol\":2219:2227  newOwner */\n      dup1\n        /* \"https://github.com/OpenZeppelin/openzeppelin-contracts/blob/v4.0.0/contracts/access/Ownable.sol\":2210:2216  _owner */\n      0x05\n      0x00\n        /* \"https://github.com/OpenZeppelin/openzeppelin-contracts/blob/v4.0.0/contracts/access/Ownable.sol\":2210:2227  _owner = newOwner */\n      0x0100\n      exp\n      dup2\n      sload\n      dup2\n      0xffffffffffffffffffffffffffffffffffffffff\n      mul\n      not\n      and\n      swap1\n      dup4\n      0xffffffffffffffffffffffffffffffffffffffff\n      and\n      mul\n      or\n      swap1\n      sstore\n      pop\n        /* \"https://github.com/OpenZeppelin/openzeppelin-contracts/blob/v4.0.0/contracts/access/Ownable.sol\":1994:2234  function transferOwnership(address newOwner) public virtual onlyOwner {... */\n      pop\n      jump\t// out\n        /* \"https://github.com/OpenZeppelin/openzeppelin-contracts/blob/v4.0.0/contracts/utils/Context.sol\":586:682  function _msgSender() internal view virtual returns (address) {... */\n    tag_116:\n        /* \"https://github.com/OpenZeppelin/openzeppelin-contracts/blob/v4.0.0/contracts/utils/Context.sol\":639:646  address */\n      0x00\n        /* \"https://github.com/OpenZeppelin/openzeppelin-contracts/blob/v4.0.0/contracts/utils/Context.sol\":665:675  msg.sender */\n      caller\n        /* \"https://github.com/OpenZeppelin/openzeppelin-contracts/blob/v4.0.0/contracts/utils/Context.sol\":658:675  return msg.sender */\n      swap1\n      pop\n        /* \"https://github.com/OpenZeppelin/openzeppelin-contracts/blob/v4.0.0/contracts/utils/Context.sol\":586:682  function _msgSender() internal view virtual returns (address) {... */\n      swap1\n      jump\t// out\n        /* \"https://github.com/OpenZeppelin/openzeppelin-contracts/blob/v4.0.0/contracts/token/ERC20/ERC20.sol\":9496:9836  function _approve(address owner, address spender, uint256 amount) internal virtual {... */\n    tag_117:\n        /* \"https://github.com/OpenZeppelin/openzeppelin-contracts/blob/v4.0.0/contracts/token/ERC20/ERC20.sol\":9614:9615  0 */\n      0x00\n        /* \"https://github.com/OpenZeppelin/openzeppelin-contracts/blob/v4.0.0/contracts/token/ERC20/ERC20.sol\":9597:9616  owner != address(0) */\n      0xffffffffffffffffffffffffffffffffffffffff\n      and\n        /* \"https://github.com/OpenZeppelin/openzeppelin-contracts/blob/v4.0.0/contracts/token/ERC20/ERC20.sol\":9597:9602  owner */\n      dup4\n        /* \"https://github.com/OpenZeppelin/openzeppelin-contracts/blob/v4.0.0/contracts/token/ERC20/ERC20.sol\":9597:9616  owner != address(0) */\n      0xffffffffffffffffffffffffffffffffffffffff\n      and\n      sub\n        /* \"https://github.com/OpenZeppelin/openzeppelin-contracts/blob/v4.0.0/contracts/token/ERC20/ERC20.sol\":9589:9657  require(owner != address(0), \"ERC20: approve from the zero address\") */\n      tag_208\n      jumpi\n      mload(0x40)\n      0x08c379a000000000000000000000000000000000000000000000000000000000\n      dup2\n      mstore\n      0x04\n      add\n      tag_209\n      swap1\n      tag_210\n      jump\t// in\n    tag_209:\n      mload(0x40)\n      dup1\n      swap2\n      sub\n      swap1\n      revert\n    tag_208:\n        /* \"https://github.com/OpenZeppelin/openzeppelin-contracts/blob/v4.0.0/contracts/token/ERC20/ERC20.sol\":9694:9695  0 */\n      0x00\n        /* \"https://github.com/OpenZeppelin/openzeppelin-contracts/blob/v4.0.0/contracts/token/ERC20/ERC20.sol\":9675:9696  spender != address(0) */\n      0xffffffffffffffffffffffffffffffffffffffff\n      and\n        /* \"https://github.com/OpenZeppelin/openzeppelin-contracts/blob/v4.0.0/contracts/token/ERC20/ERC20.sol\":9675:9682  spender */\n      dup3\n        /* \"https://github.com/OpenZeppelin/openzeppelin-contracts/blob/v4.0.0/contracts/token/ERC20/ERC20.sol\":9675:9696  spender != address(0) */\n      0xffffffffffffffffffffffffffffffffffffffff\n      and\n      sub\n        /* \"https://github.com/OpenZeppelin/openzeppelin-contracts/blob/v4.0.0/contracts/token/ERC20/ERC20.sol\":9667:9735  require(spender != address(0), \"ERC20: approve to the zero address\") */\n      tag_211\n      jumpi\n      mload(0x40)\n      0x08c379a000000000000000000000000000000000000000000000000000000000\n      dup2\n      mstore\n      0x04\n      add\n      tag_212\n      swap1\n      tag_213\n      jump\t// in\n    tag_212:\n      mload(0x40)\n      dup1\n      swap2\n      sub\n      swap1\n      revert\n    tag_211:\n        /* \"https://github.com/OpenZeppelin/openzeppelin-contracts/blob/v4.0.0/contracts/token/ERC20/ERC20.sol\":9776:9782  amount */\n      dup1\n        /* \"https://github.com/OpenZeppelin/openzeppelin-contracts/blob/v4.0.0/contracts/token/ERC20/ERC20.sol\":9746:9757  _allowances */\n      0x01\n        /* \"https://github.com/OpenZeppelin/openzeppelin-contracts/blob/v4.0.0/contracts/token/ERC20/ERC20.sol\":9746:9764  _allowances[owner] */\n      0x00\n        /* \"https://github.com/OpenZeppelin/openzeppelin-contracts/blob/v4.0.0/contracts/token/ERC20/ERC20.sol\":9758:9763  owner */\n      dup6\n        /* \"https://github.com/OpenZeppelin/openzeppelin-contracts/blob/v4.0.0/contracts/token/ERC20/ERC20.sol\":9746:9764  _allowances[owner] */\n      0xffffffffffffffffffffffffffffffffffffffff\n      and\n      0xffffffffffffffffffffffffffffffffffffffff\n      and\n      dup2\n      mstore\n      0x20\n      add\n      swap1\n      dup2\n      mstore\n      0x20\n      add\n      0x00\n      keccak256\n        /* \"https://github.com/OpenZeppelin/openzeppelin-contracts/blob/v4.0.0/contracts/token/ERC20/ERC20.sol\":9746:9773  _allowances[owner][spender] */\n      0x00\n        /* \"https://github.com/OpenZeppelin/openzeppelin-contracts/blob/v4.0.0/contracts/token/ERC20/ERC20.sol\":9765:9772  spender */\n      dup5\n        /* \"https://github.com/OpenZeppelin/openzeppelin-contracts/blob/v4.0.0/contracts/token/ERC20/ERC20.sol\":9746:9773  _allowances[owner][spender] */\n      0xffffffffffffffffffffffffffffffffffffffff\n      and\n      0xffffffffffffffffffffffffffffffffffffffff\n      and\n      dup2\n      mstore\n      0x20\n      add\n      swap1\n      dup2\n      mstore\n      0x20\n      add\n      0x00\n      keccak256\n        /* \"https://github.com/OpenZeppelin/openzeppelin-contracts/blob/v4.0.0/contracts/token/ERC20/ERC20.sol\":9746:9782  _allowances[owner][spender] = amount */\n      dup2\n      swap1\n      sstore\n      pop\n        /* \"https://github.com/OpenZeppelin/openzeppelin-contracts/blob/v4.0.0/contracts/token/ERC20/ERC20.sol\":9813:9820  spender */\n      dup2\n        /* \"https://github.com/OpenZeppelin/openzeppelin-contracts/blob/v4.0.0/contracts/token/ERC20/ERC20.sol\":9797:9829  Approval(owner, spender, amount) */\n      0xffffffffffffffffffffffffffffffffffffffff\n      and\n        /* \"https://github.com/OpenZeppelin/openzeppelin-contracts/blob/v4.0.0/contracts/token/ERC20/ERC20.sol\":9806:9811  owner */\n      dup4\n        /* \"https://github.com/OpenZeppelin/openzeppelin-contracts/blob/v4.0.0/contracts/token/ERC20/ERC20.sol\":9797:9829  Approval(owner, spender, amount) */\n      0xffffffffffffffffffffffffffffffffffffffff\n      and\n      0x8c5be1e5ebec7d5bd14f71427d1e84f3dd0314c0f7b2291e5b200ac8c7c3b925\n        /* \"https://github.com/OpenZeppelin/openzeppelin-contracts/blob/v4.0.0/contracts/token/ERC20/ERC20.sol\":9822:9828  amount */\n      dup4\n        /* \"https://github.com/OpenZeppelin/openzeppelin-contracts/blob/v4.0.0/contracts/token/ERC20/ERC20.sol\":9797:9829  Approval(owner, spender, amount) */\n      mload(0x40)\n      tag_214\n      swap2\n      swap1\n      tag_39\n      jump\t// in\n    tag_214:\n      mload(0x40)\n      dup1\n      swap2\n      sub\n      swap1\n      log3\n        /* \"https://github.com/OpenZeppelin/openzeppelin-contracts/blob/v4.0.0/contracts/token/ERC20/ERC20.sol\":9496:9836  function _approve(address owner, address spender, uint256 amount) internal virtual {... */\n      pop\n      pop\n      pop\n      jump\t// out\n        /* \"https://github.com/OpenZeppelin/openzeppelin-contracts/blob/v4.0.0/contracts/token/ERC20/ERC20.sol\":7077:7669  function _transfer(address sender, address recipient, uint256 amount) internal virtual {... */\n    tag_122:\n        /* \"https://github.com/OpenZeppelin/openzeppelin-contracts/blob/v4.0.0/contracts/token/ERC20/ERC20.sol\":7200:7201  0 */\n      0x00\n        /* \"https://github.com/OpenZeppelin/openzeppelin-contracts/blob/v4.0.0/contracts/token/ERC20/ERC20.sol\":7182:7202  sender != address(0) */\n      0xffffffffffffffffffffffffffffffffffffffff\n      and\n        /* \"https://github.com/OpenZeppelin/openzeppelin-contracts/blob/v4.0.0/contracts/token/ERC20/ERC20.sol\":7182:7188  sender */\n      dup4\n        /* \"https://github.com/OpenZeppelin/openzeppelin-contracts/blob/v4.0.0/contracts/token/ERC20/ERC20.sol\":7182:7202  sender != address(0) */\n      0xffffffffffffffffffffffffffffffffffffffff\n      and\n      sub\n        /* \"https://github.com/OpenZeppelin/openzeppelin-contracts/blob/v4.0.0/contracts/token/ERC20/ERC20.sol\":7174:7244  require(sender != address(0), \"ERC20: transfer from the zero address\") */\n      tag_216\n      jumpi\n      mload(0x40)\n      0x08c379a000000000000000000000000000000000000000000000000000000000\n      dup2\n      mstore\n      0x04\n      add\n      tag_217\n      swap1\n      tag_218\n      jump\t// in\n    tag_217:\n      mload(0x40)\n      dup1\n      swap2\n      sub\n      swap1\n      revert\n    tag_216:\n        /* \"https://github.com/OpenZeppelin/openzeppelin-contracts/blob/v4.0.0/contracts/token/ERC20/ERC20.sol\":7283:7284  0 */\n      0x00\n        /* \"https://github.com/OpenZeppelin/openzeppelin-contracts/blob/v4.0.0/contracts/token/ERC20/ERC20.sol\":7262:7285  recipient != address(0) */\n      0xffffffffffffffffffffffffffffffffffffffff\n      and\n        /* \"https://github.com/OpenZeppelin/openzeppelin-contracts/blob/v4.0.0/contracts/token/ERC20/ERC20.sol\":7262:7271  recipient */\n      dup3\n        /* \"https://github.com/OpenZeppelin/openzeppelin-contracts/blob/v4.0.0/contracts/token/ERC20/ERC20.sol\":7262:7285  recipient != address(0) */\n      0xffffffffffffffffffffffffffffffffffffffff\n      and\n      sub\n        /* \"https://github.com/OpenZeppelin/openzeppelin-contracts/blob/v4.0.0/contracts/token/ERC20/ERC20.sol\":7254:7325  require(recipient != address(0), \"ERC20: transfer to the zero address\") */\n      tag_219\n      jumpi\n      mload(0x40)\n      0x08c379a000000000000000000000000000000000000000000000000000000000\n      dup2\n      mstore\n      0x04\n      add\n      tag_220\n      swap1\n      tag_221\n      jump\t// in\n    tag_220:\n      mload(0x40)\n      dup1\n      swap2\n      sub\n      swap1\n      revert\n    tag_219:\n        /* \"https://github.com/OpenZeppelin/openzeppelin-contracts/blob/v4.0.0/contracts/token/ERC20/ERC20.sol\":7336:7383  _beforeTokenTransfer(sender, recipient, amount) */\n      tag_222\n        /* \"https://github.com/OpenZeppelin/openzeppelin-contracts/blob/v4.0.0/contracts/token/ERC20/ERC20.sol\":7357:7363  sender */\n      dup4\n        /* \"https://github.com/OpenZeppelin/openzeppelin-contracts/blob/v4.0.0/contracts/token/ERC20/ERC20.sol\":7365:7374  recipient */\n      dup4\n        /* \"https://github.com/OpenZeppelin/openzeppelin-contracts/blob/v4.0.0/contracts/token/ERC20/ERC20.sol\":7376:7382  amount */\n      dup4\n        /* \"https://github.com/OpenZeppelin/openzeppelin-contracts/blob/v4.0.0/contracts/token/ERC20/ERC20.sol\":7336:7356  _beforeTokenTransfer */\n      tag_223\n        /* \"https://github.com/OpenZeppelin/openzeppelin-contracts/blob/v4.0.0/contracts/token/ERC20/ERC20.sol\":7336:7383  _beforeTokenTransfer(sender, recipient, amount) */\n      jump\t// in\n    tag_222:\n        /* \"https://github.com/OpenZeppelin/openzeppelin-contracts/blob/v4.0.0/contracts/token/ERC20/ERC20.sol\":7394:7415  uint256 senderBalance */\n      0x00\n        /* \"https://github.com/OpenZeppelin/openzeppelin-contracts/blob/v4.0.0/contracts/token/ERC20/ERC20.sol\":7418:7427  _balances */\n      dup1\n        /* \"https://github.com/OpenZeppelin/openzeppelin-contracts/blob/v4.0.0/contracts/token/ERC20/ERC20.sol\":7418:7435  _balances[sender] */\n      0x00\n        /* \"https://github.com/OpenZeppelin/openzeppelin-contracts/blob/v4.0.0/contracts/token/ERC20/ERC20.sol\":7428:7434  sender */\n      dup6\n        /* \"https://github.com/OpenZeppelin/openzeppelin-contracts/blob/v4.0.0/contracts/token/ERC20/ERC20.sol\":7418:7435  _balances[sender] */\n      0xffffffffffffffffffffffffffffffffffffffff\n      and\n      0xffffffffffffffffffffffffffffffffffffffff\n      and\n      dup2\n      mstore\n      0x20\n      add\n      swap1\n      dup2\n      mstore\n      0x20\n      add\n      0x00\n      keccak256\n      sload\n        /* \"https://github.com/OpenZeppelin/openzeppelin-contracts/blob/v4.0.0/contracts/token/ERC20/ERC20.sol\":7394:7435  uint256 senderBalance = _balances[sender] */\n      swap1\n      pop\n        /* \"https://github.com/OpenZeppelin/openzeppelin-contracts/blob/v4.0.0/contracts/token/ERC20/ERC20.sol\":7470:7476  amount */\n      dup2\n        /* \"https://github.com/OpenZeppelin/openzeppelin-contracts/blob/v4.0.0/contracts/token/ERC20/ERC20.sol\":7453:7466  senderBalance */\n      dup2\n        /* \"https://github.com/OpenZeppelin/openzeppelin-contracts/blob/v4.0.0/contracts/token/ERC20/ERC20.sol\":7453:7476  senderBalance >= amount */\n      lt\n      iszero\n        /* \"https://github.com/OpenZeppelin/openzeppelin-contracts/blob/v4.0.0/contracts/token/ERC20/ERC20.sol\":7445:7519  require(senderBalance >= amount, \"ERC20: transfer amount exceeds balance\") */\n      tag_224\n      jumpi\n      mload(0x40)\n      0x08c379a000000000000000000000000000000000000000000000000000000000\n      dup2\n      mstore\n      0x04\n      add\n      tag_225\n      swap1\n      tag_226\n      jump\t// in\n    tag_225:\n      mload(0x40)\n      dup1\n      swap2\n      sub\n      swap1\n      revert\n    tag_224:\n        /* \"https://github.com/OpenZeppelin/openzeppelin-contracts/blob/v4.0.0/contracts/token/ERC20/ERC20.sol\":7565:7571  amount */\n      dup2\n        /* \"https://github.com/OpenZeppelin/openzeppelin-contracts/blob/v4.0.0/contracts/token/ERC20/ERC20.sol\":7549:7562  senderBalance */\n      dup2\n        /* \"https://github.com/OpenZeppelin/openzeppelin-contracts/blob/v4.0.0/contracts/token/ERC20/ERC20.sol\":7549:7571  senderBalance - amount */\n      tag_227\n      swap2\n      swap1\n      tag_130\n      jump\t// in\n    tag_227:\n        /* \"https://github.com/OpenZeppelin/openzeppelin-contracts/blob/v4.0.0/contracts/token/ERC20/ERC20.sol\":7529:7538  _balances */\n      0x00\n        /* \"https://github.com/OpenZeppelin/openzeppelin-contracts/blob/v4.0.0/contracts/token/ERC20/ERC20.sol\":7529:7546  _balances[sender] */\n      dup1\n        /* \"https://github.com/OpenZeppelin/openzeppelin-contracts/blob/v4.0.0/contracts/token/ERC20/ERC20.sol\":7539:7545  sender */\n      dup7\n        /* \"https://github.com/OpenZeppelin/openzeppelin-contracts/blob/v4.0.0/contracts/token/ERC20/ERC20.sol\":7529:7546  _balances[sender] */\n      0xffffffffffffffffffffffffffffffffffffffff\n      and\n      0xffffffffffffffffffffffffffffffffffffffff\n      and\n      dup2\n      mstore\n      0x20\n      add\n      swap1\n      dup2\n      mstore\n      0x20\n      add\n      0x00\n      keccak256\n        /* \"https://github.com/OpenZeppelin/openzeppelin-contracts/blob/v4.0.0/contracts/token/ERC20/ERC20.sol\":7529:7571  _balances[sender] = senderBalance - amount */\n      dup2\n      swap1\n      sstore\n      pop\n        /* \"https://github.com/OpenZeppelin/openzeppelin-contracts/blob/v4.0.0/contracts/token/ERC20/ERC20.sol\":7605:7611  amount */\n      dup2\n        /* \"https://github.com/OpenZeppelin/openzeppelin-contracts/blob/v4.0.0/contracts/token/ERC20/ERC20.sol\":7581:7590  _balances */\n      0x00\n        /* \"https://github.com/OpenZeppelin/openzeppelin-contracts/blob/v4.0.0/contracts/token/ERC20/ERC20.sol\":7581:7601  _balances[recipient] */\n      dup1\n        /* \"https://github.com/OpenZeppelin/openzeppelin-contracts/blob/v4.0.0/contracts/token/ERC20/ERC20.sol\":7591:7600  recipient */\n      dup6\n        /* \"https://github.com/OpenZeppelin/openzeppelin-contracts/blob/v4.0.0/contracts/token/ERC20/ERC20.sol\":7581:7601  _balances[recipient] */\n      0xffffffffffffffffffffffffffffffffffffffff\n      and\n      0xffffffffffffffffffffffffffffffffffffffff\n      and\n      dup2\n      mstore\n      0x20\n      add\n      swap1\n      dup2\n      mstore\n      0x20\n      add\n      0x00\n      keccak256\n      0x00\n        /* \"https://github.com/OpenZeppelin/openzeppelin-contracts/blob/v4.0.0/contracts/token/ERC20/ERC20.sol\":7581:7611  _balances[recipient] += amount */\n      dup3\n      dup3\n      sload\n      tag_228\n      swap2\n      swap1\n      tag_137\n      jump\t// in\n    tag_228:\n      swap3\n      pop\n      pop\n      dup2\n      swap1\n      sstore\n      pop\n        /* \"https://github.com/OpenZeppelin/openzeppelin-contracts/blob/v4.0.0/contracts/token/ERC20/ERC20.sol\":7644:7653  recipient */\n      dup3\n        /* \"https://github.com/OpenZeppelin/openzeppelin-contracts/blob/v4.0.0/contracts/token/ERC20/ERC20.sol\":7627:7662  Transfer(sender, recipient, amount) */\n      0xffffffffffffffffffffffffffffffffffffffff\n      and\n        /* \"https://github.com/OpenZeppelin/openzeppelin-contracts/blob/v4.0.0/contracts/token/ERC20/ERC20.sol\":7636:7642  sender */\n      dup5\n        /* \"https://github.com/OpenZeppelin/openzeppelin-contracts/blob/v4.0.0/contracts/token/ERC20/ERC20.sol\":7627:7662  Transfer(sender, recipient, amount) */\n      0xffffffffffffffffffffffffffffffffffffffff\n      and\n      0xddf252ad1be2c89b69c2b068fc378daa952ba7f163c4a11628f55a4df523b3ef\n        /* \"https://github.com/OpenZeppelin/openzeppelin-contracts/blob/v4.0.0/contracts/token/ERC20/ERC20.sol\":7655:7661  amount */\n      dup5\n        /* \"https://github.com/OpenZeppelin/openzeppelin-contracts/blob/v4.0.0/contracts/token/ERC20/ERC20.sol\":7627:7662  Transfer(sender, recipient, amount) */\n      mload(0x40)\n      tag_229\n      swap2\n      swap1\n      tag_39\n      jump\t// in\n    tag_229:\n      mload(0x40)\n      dup1\n      swap2\n      sub\n      swap1\n      log3\n        /* \"https://github.com/OpenZeppelin/openzeppelin-contracts/blob/v4.0.0/contracts/token/ERC20/ERC20.sol\":7164:7669  {... */\n      pop\n        /* \"https://github.com/OpenZeppelin/openzeppelin-contracts/blob/v4.0.0/contracts/token/ERC20/ERC20.sol\":7077:7669  function _transfer(address sender, address recipient, uint256 amount) internal virtual {... */\n      pop\n      pop\n      pop\n      jump\t// out\n        /* \"https://github.com/OpenZeppelin/openzeppelin-contracts/blob/v4.0.0/contracts/token/ERC20/ERC20.sol\":7940:8270  function _mint(address account, uint256 amount) internal virtual {... */\n    tag_177:\n        /* \"https://github.com/OpenZeppelin/openzeppelin-contracts/blob/v4.0.0/contracts/token/ERC20/ERC20.sol\":8042:8043  0 */\n      0x00\n        /* \"https://github.com/OpenZeppelin/openzeppelin-contracts/blob/v4.0.0/contracts/token/ERC20/ERC20.sol\":8023:8044  account != address(0) */\n      0xffffffffffffffffffffffffffffffffffffffff\n      and\n        /* \"https://github.com/OpenZeppelin/openzeppelin-contracts/blob/v4.0.0/contracts/token/ERC20/ERC20.sol\":8023:8030  account */\n      dup3\n        /* \"https://github.com/OpenZeppelin/openzeppelin-contracts/blob/v4.0.0/contracts/token/ERC20/ERC20.sol\":8023:8044  account != address(0) */\n      0xffffffffffffffffffffffffffffffffffffffff\n      and\n      sub\n        /* \"https://github.com/OpenZeppelin/openzeppelin-contracts/blob/v4.0.0/contracts/token/ERC20/ERC20.sol\":8015:8080  require(account != address(0), \"ERC20: mint to the zero address\") */\n      tag_231\n      jumpi\n      mload(0x40)\n      0x08c379a000000000000000000000000000000000000000000000000000000000\n      dup2\n      mstore\n      0x04\n      add\n      tag_232\n      swap1\n      tag_233\n      jump\t// in\n    tag_232:\n      mload(0x40)\n      dup1\n      swap2\n      sub\n      swap1\n      revert\n    tag_231:\n        /* \"https://github.com/OpenZeppelin/openzeppelin-contracts/blob/v4.0.0/contracts/token/ERC20/ERC20.sol\":8091:8140  _beforeTokenTransfer(address(0), account, amount) */\n      tag_234\n        /* \"https://github.com/OpenZeppelin/openzeppelin-contracts/blob/v4.0.0/contracts/token/ERC20/ERC20.sol\":8120:8121  0 */\n      0x00\n        /* \"https://github.com/OpenZeppelin/openzeppelin-contracts/blob/v4.0.0/contracts/token/ERC20/ERC20.sol\":8124:8131  account */\n      dup4\n        /* \"https://github.com/OpenZeppelin/openzeppelin-contracts/blob/v4.0.0/contracts/token/ERC20/ERC20.sol\":8133:8139  amount */\n      dup4\n        /* \"https://github.com/OpenZeppelin/openzeppelin-contracts/blob/v4.0.0/contracts/token/ERC20/ERC20.sol\":8091:8111  _beforeTokenTransfer */\n      tag_223\n        /* \"https://github.com/OpenZeppelin/openzeppelin-contracts/blob/v4.0.0/contracts/token/ERC20/ERC20.sol\":8091:8140  _beforeTokenTransfer(address(0), account, amount) */\n      jump\t// in\n    tag_234:\n        /* \"https://github.com/OpenZeppelin/openzeppelin-contracts/blob/v4.0.0/contracts/token/ERC20/ERC20.sol\":8167:8173  amount */\n      dup1\n        /* \"https://github.com/OpenZeppelin/openzeppelin-contracts/blob/v4.0.0/contracts/token/ERC20/ERC20.sol\":8151:8163  _totalSupply */\n      0x02\n      0x00\n        /* \"https://github.com/OpenZeppelin/openzeppelin-contracts/blob/v4.0.0/contracts/token/ERC20/ERC20.sol\":8151:8173  _totalSupply += amount */\n      dup3\n      dup3\n      sload\n      tag_235\n      swap2\n      swap1\n      tag_137\n      jump\t// in\n    tag_235:\n      swap3\n      pop\n      pop\n      dup2\n      swap1\n      sstore\n      pop\n        /* \"https://github.com/OpenZeppelin/openzeppelin-contracts/blob/v4.0.0/contracts/token/ERC20/ERC20.sol\":8205:8211  amount */\n      dup1\n        /* \"https://github.com/OpenZeppelin/openzeppelin-contracts/blob/v4.0.0/contracts/token/ERC20/ERC20.sol\":8183:8192  _balances */\n      0x00\n        /* \"https://github.com/OpenZeppelin/openzeppelin-contracts/blob/v4.0.0/contracts/token/ERC20/ERC20.sol\":8183:8201  _balances[account] */\n      dup1\n        /* \"https://github.com/OpenZeppelin/openzeppelin-contracts/blob/v4.0.0/contracts/token/ERC20/ERC20.sol\":8193:8200  account */\n      dup5\n        /* \"https://github.com/OpenZeppelin/openzeppelin-contracts/blob/v4.0.0/contracts/token/ERC20/ERC20.sol\":8183:8201  _balances[account] */\n      0xffffffffffffffffffffffffffffffffffffffff\n      and\n      0xffffffffffffffffffffffffffffffffffffffff\n      and\n      dup2\n      mstore\n      0x20\n      add\n      swap1\n      dup2\n      mstore\n      0x20\n      add\n      0x00\n      keccak256\n      0x00\n        /* \"https://github.com/OpenZeppelin/openzeppelin-contracts/blob/v4.0.0/contracts/token/ERC20/ERC20.sol\":8183:8211  _balances[account] += amount */\n      dup3\n      dup3\n      sload\n      tag_236\n      swap2\n      swap1\n      tag_137\n      jump\t// in\n    tag_236:\n      swap3\n      pop\n      pop\n      dup2\n      swap1\n      sstore\n      pop\n        /* \"https://github.com/OpenZeppelin/openzeppelin-contracts/blob/v4.0.0/contracts/token/ERC20/ERC20.sol\":8247:8254  account */\n      dup2\n        /* \"https://github.com/OpenZeppelin/openzeppelin-contracts/blob/v4.0.0/contracts/token/ERC20/ERC20.sol\":8226:8263  Transfer(address(0), account, amount) */\n      0xffffffffffffffffffffffffffffffffffffffff\n      and\n        /* \"https://github.com/OpenZeppelin/openzeppelin-contracts/blob/v4.0.0/contracts/token/ERC20/ERC20.sol\":8243:8244  0 */\n      0x00\n        /* \"https://github.com/OpenZeppelin/openzeppelin-contracts/blob/v4.0.0/contracts/token/ERC20/ERC20.sol\":8226:8263  Transfer(address(0), account, amount) */\n      0xffffffffffffffffffffffffffffffffffffffff\n      and\n      0xddf252ad1be2c89b69c2b068fc378daa952ba7f163c4a11628f55a4df523b3ef\n        /* \"https://github.com/OpenZeppelin/openzeppelin-contracts/blob/v4.0.0/contracts/token/ERC20/ERC20.sol\":8256:8262  amount */\n      dup4\n        /* \"https://github.com/OpenZeppelin/openzeppelin-contracts/blob/v4.0.0/contracts/token/ERC20/ERC20.sol\":8226:8263  Transfer(address(0), account, amount) */\n      mload(0x40)\n      tag_237\n      swap2\n      swap1\n      tag_39\n      jump\t// in\n    tag_237:\n      mload(0x40)\n      dup1\n      swap2\n      sub\n      swap1\n      log3\n        /* \"https://github.com/OpenZeppelin/openzeppelin-contracts/blob/v4.0.0/contracts/token/ERC20/ERC20.sol\":7940:8270  function _mint(address account, uint256 amount) internal virtual {... */\n      pop\n      pop\n      jump\t// out\n        /* \"https://github.com/OpenZeppelin/openzeppelin-contracts/blob/v4.0.0/contracts/token/ERC20/ERC20.sol\":10423:10515  function _beforeTokenTransfer(address from, address to, uint256 amount) internal virtual { } */\n    tag_223:\n      pop\n      pop\n      pop\n      jump\t// out\n        /* \"#utility.yul\":7:106   */\n    tag_239:\n        /* \"#utility.yul\":59:65   */\n      0x00\n        /* \"#utility.yul\":93:98   */\n      dup2\n        /* \"#utility.yul\":87:99   */\n      mload\n        /* \"#utility.yul\":77:99   */\n      swap1\n      pop\n        /* \"#utility.yul\":7:106   */\n      swap2\n      swap1\n      pop\n      jump\t// out\n        /* \"#utility.yul\":112:281   */\n    tag_240:\n        /* \"#utility.yul\":196:207   */\n      0x00\n        /* \"#utility.yul\":230:236   */\n      dup3\n        /* \"#utility.yul\":225:228   */\n      dup3\n        /* \"#utility.yul\":218:237   */\n      mstore\n        /* \"#utility.yul\":270:274   */\n      0x20\n        /* \"#utility.yul\":265:268   */\n      dup3\n        /* \"#utility.yul\":261:275   */\n      add\n        /* \"#utility.yul\":246:275   */\n      swap1\n      pop\n        /* \"#utility.yul\":112:281   */\n      swap3\n      swap2\n      pop\n      pop\n      jump\t// out\n        /* \"#utility.yul\":287:533   */\n    tag_241:\n        /* \"#utility.yul\":368:369   */\n      0x00\n        /* \"#utility.yul\":378:491   */\n    tag_296:\n        /* \"#utility.yul\":392:398   */\n      dup4\n        /* \"#utility.yul\":389:390   */\n      dup2\n        /* \"#utility.yul\":386:399   */\n      lt\n        /* \"#utility.yul\":378:491   */\n      iszero\n      tag_298\n      jumpi\n        /* \"#utility.yul\":477:478   */\n      dup1\n        /* \"#utility.yul\":472:475   */\n      dup3\n        /* \"#utility.yul\":468:479   */\n      add\n        /* \"#utility.yul\":462:480   */\n      mload\n        /* \"#utility.yul\":458:459   */\n      dup2\n        /* \"#utility.yul\":453:456   */\n      dup5\n        /* \"#utility.yul\":449:460   */\n      add\n        /* \"#utility.yul\":442:481   */\n      mstore\n        /* \"#utility.yul\":414:416   */\n      0x20\n        /* \"#utility.yul\":411:412   */\n      dup2\n        /* \"#utility.yul\":407:417   */\n      add\n        /* \"#utility.yul\":402:417   */\n      swap1\n      pop\n        /* \"#utility.yul\":378:491   */\n      jump(tag_296)\n    tag_298:\n        /* \"#utility.yul\":525:526   */\n      0x00\n        /* \"#utility.yul\":516:522   */\n      dup5\n        /* \"#utility.yul\":511:514   */\n      dup5\n        /* \"#utility.yul\":507:523   */\n      add\n        /* \"#utility.yul\":500:527   */\n      mstore\n        /* \"#utility.yul\":349:533   */\n      pop\n        /* \"#utility.yul\":287:533   */\n      pop\n      pop\n      pop\n      jump\t// out\n        /* \"#utility.yul\":539:641   */\n    tag_242:\n        /* \"#utility.yul\":580:586   */\n      0x00\n        /* \"#utility.yul\":631:633   */\n      0x1f\n        /* \"#utility.yul\":627:634   */\n      not\n        /* \"#utility.yul\":622:624   */\n      0x1f\n        /* \"#utility.yul\":615:620   */\n      dup4\n        /* \"#utility.yul\":611:625   */\n      add\n        /* \"#utility.yul\":607:635   */\n      and\n        /* \"#utility.yul\":597:635   */\n      swap1\n      pop\n        /* \"#utility.yul\":539:641   */\n      swap2\n      swap1\n      pop\n      jump\t// out\n        /* \"#utility.yul\":647:1024   */\n    tag_243:\n        /* \"#utility.yul\":735:738   */\n      0x00\n        /* \"#utility.yul\":763:802   */\n      tag_301\n        /* \"#utility.yul\":796:801   */\n      dup3\n        /* \"#utility.yul\":763:802   */\n      tag_239\n      jump\t// in\n    tag_301:\n        /* \"#utility.yul\":818:889   */\n      tag_302\n        /* \"#utility.yul\":882:888   */\n      dup2\n        /* \"#utility.yul\":877:880   */\n      dup6\n        /* \"#utility.yul\":818:889   */\n      tag_240\n      jump\t// in\n    tag_302:\n        /* \"#utility.yul\":811:889   */\n      swap4\n      pop\n        /* \"#utility.yul\":898:963   */\n      tag_303\n        /* \"#utility.yul\":956:962   */\n      dup2\n        /* \"#utility.yul\":951:954   */\n      dup6\n        /* \"#utility.yul\":944:948   */\n      0x20\n        /* \"#utility.yul\":937:942   */\n      dup7\n        /* \"#utility.yul\":933:949   */\n      add\n        /* \"#utility.yul\":898:963   */\n      tag_241\n      jump\t// in\n    tag_303:\n        /* \"#utility.yul\":988:1017   */\n      tag_304\n        /* \"#utility.yul\":1010:1016   */\n      dup2\n        /* \"#utility.yul\":988:1017   */\n      tag_242\n      jump\t// in\n    tag_304:\n        /* \"#utility.yul\":983:986   */\n      dup5\n        /* \"#utility.yul\":979:1018   */\n      add\n        /* \"#utility.yul\":972:1018   */\n      swap2\n      pop\n        /* \"#utility.yul\":739:1024   */\n      pop\n        /* \"#utility.yul\":647:1024   */\n      swap3\n      swap2\n      pop\n      pop\n      jump\t// out\n        /* \"#utility.yul\":1030:1343   */\n    tag_29:\n        /* \"#utility.yul\":1143:1147   */\n      0x00\n        /* \"#utility.yul\":1181:1183   */\n      0x20\n        /* \"#utility.yul\":1170:1179   */\n      dup3\n        /* \"#utility.yul\":1166:1184   */\n      add\n        /* \"#utility.yul\":1158:1184   */\n      swap1\n      pop\n        /* \"#utility.yul\":1230:1239   */\n      dup2\n        /* \"#utility.yul\":1224:1228   */\n      dup2\n        /* \"#utility.yul\":1220:1240   */\n      sub\n        /* \"#utility.yul\":1216:1217   */\n      0x00\n        /* \"#utility.yul\":1205:1214   */\n      dup4\n        /* \"#utility.yul\":1201:1218   */\n      add\n        /* \"#utility.yul\":1194:1241   */\n      mstore\n        /* \"#utility.yul\":1258:1336   */\n      tag_306\n        /* \"#utility.yul\":1331:1335   */\n      dup2\n        /* \"#utility.yul\":1322:1328   */\n      dup5\n        /* \"#utility.yul\":1258:1336   */\n      tag_243\n      jump\t// in\n    tag_306:\n        /* \"#utility.yul\":1250:1336   */\n      swap1\n      pop\n        /* \"#utility.yul\":1030:1343   */\n      swap3\n      swap2\n      pop\n      pop\n      jump\t// out\n        /* \"#utility.yul\":1430:1547   */\n    tag_245:\n        /* \"#utility.yul\":1539:1540   */\n      0x00\n        /* \"#utility.yul\":1536:1537   */\n      dup1\n        /* \"#utility.yul\":1529:1541   */\n      revert\n        /* \"#utility.yul\":1676:1802   */\n    tag_247:\n        /* \"#utility.yul\":1713:1720   */\n      0x00\n        /* \"#utility.yul\":1753:1795   */\n      0xffffffffffffffffffffffffffffffffffffffff\n        /* \"#utility.yul\":1746:1751   */\n      dup3\n        /* \"#utility.yul\":1742:1796   */\n      and\n        /* \"#utility.yul\":1731:1796   */\n      swap1\n      pop\n        /* \"#utility.yul\":1676:1802   */\n      swap2\n      swap1\n      pop\n      jump\t// out\n        /* \"#utility.yul\":1808:1904   */\n    tag_248:\n        /* \"#utility.yul\":1845:1852   */\n      0x00\n        /* \"#utility.yul\":1874:1898   */\n      tag_312\n        /* \"#utility.yul\":1892:1897   */\n      dup3\n        /* \"#utility.yul\":1874:1898   */\n      tag_247\n      jump\t// in\n    tag_312:\n        /* \"#utility.yul\":1863:1898   */\n      swap1\n      pop\n        /* \"#utility.yul\":1808:1904   */\n      swap2\n      swap1\n      pop\n      jump\t// out\n        /* \"#utility.yul\":1910:2032   */\n    tag_249:\n        /* \"#utility.yul\":1983:2007   */\n      tag_314\n        /* \"#utility.yul\":2001:2006   */\n      dup2\n        /* \"#utility.yul\":1983:2007   */\n      tag_248\n      jump\t// in\n    tag_314:\n        /* \"#utility.yul\":1976:1981   */\n      dup2\n        /* \"#utility.yul\":1973:2008   */\n      eq\n        /* \"#utility.yul\":1963:2026   */\n      tag_315\n      jumpi\n        /* \"#utility.yul\":2022:2023   */\n      0x00\n        /* \"#utility.yul\":2019:2020   */\n      dup1\n        /* \"#utility.yul\":2012:2024   */\n      revert\n        /* \"#utility.yul\":1963:2026   */\n    tag_315:\n        /* \"#utility.yul\":1910:2032   */\n      pop\n      jump\t// out\n        /* \"#utility.yul\":2038:2177   */\n    tag_250:\n        /* \"#utility.yul\":2084:2089   */\n      0x00\n        /* \"#utility.yul\":2122:2128   */\n      dup2\n        /* \"#utility.yul\":2109:2129   */\n      calldataload\n        /* \"#utility.yul\":2100:2129   */\n      swap1\n      pop\n        /* \"#utility.yul\":2138:2171   */\n      tag_317\n        /* \"#utility.yul\":2165:2170   */\n      dup2\n        /* \"#utility.yul\":2138:2171   */\n      tag_249\n      jump\t// in\n    tag_317:\n        /* \"#utility.yul\":2038:2177   */\n      swap3\n      swap2\n      pop\n      pop\n      jump\t// out\n        /* \"#utility.yul\":2183:2260   */\n    tag_251:\n        /* \"#utility.yul\":2220:2227   */\n      0x00\n        /* \"#utility.yul\":2249:2254   */\n      dup2\n        /* \"#utility.yul\":2238:2254   */\n      swap1\n      pop\n        /* \"#utility.yul\":2183:2260   */\n      swap2\n      swap1\n      pop\n      jump\t// out\n        /* \"#utility.yul\":2266:2388   */\n    tag_252:\n        /* \"#utility.yul\":2339:2363   */\n      tag_320\n        /* \"#utility.yul\":2357:2362   */\n      dup2\n        /* \"#utility.yul\":2339:2363   */\n      tag_251\n      jump\t// in\n    tag_320:\n        /* \"#utility.yul\":2332:2337   */\n      dup2\n        /* \"#utility.yul\":2329:2364   */\n      eq\n        /* \"#utility.yul\":2319:2382   */\n      tag_321\n      jumpi\n        /* \"#utility.yul\":2378:2379   */\n      0x00\n        /* \"#utility.yul\":2375:2376   */\n      dup1\n        /* \"#utility.yul\":2368:2380   */\n      revert\n        /* \"#utility.yul\":2319:2382   */\n    tag_321:\n        /* \"#utility.yul\":2266:2388   */\n      pop\n      jump\t// out\n        /* \"#utility.yul\":2394:2533   */\n    tag_253:\n        /* \"#utility.yul\":2440:2445   */\n      0x00\n        /* \"#utility.yul\":2478:2484   */\n      dup2\n        /* \"#utility.yul\":2465:2485   */\n      calldataload\n        /* \"#utility.yul\":2456:2485   */\n      swap1\n      pop\n        /* \"#utility.yul\":2494:2527   */\n      tag_323\n        /* \"#utility.yul\":2521:2526   */\n      dup2\n        /* \"#utility.yul\":2494:2527   */\n      tag_252\n      jump\t// in\n    tag_323:\n        /* \"#utility.yul\":2394:2533   */\n      swap3\n      swap2\n      pop\n      pop\n      jump\t// out\n        /* \"#utility.yul\":2539:3013   */\n    tag_32:\n        /* \"#utility.yul\":2607:2613   */\n      0x00\n        /* \"#utility.yul\":2615:2621   */\n      dup1\n        /* \"#utility.yul\":2664:2666   */\n      0x40\n        /* \"#utility.yul\":2652:2661   */\n      dup4\n        /* \"#utility.yul\":2643:2650   */\n      dup6\n        /* \"#utility.yul\":2639:2662   */\n      sub\n        /* \"#utility.yul\":2635:2667   */\n      slt\n        /* \"#utility.yul\":2632:2751   */\n      iszero\n      tag_325\n      jumpi\n        /* \"#utility.yul\":2670:2749   */\n      tag_326\n      tag_245\n      jump\t// in\n    tag_326:\n        /* \"#utility.yul\":2632:2751   */\n    tag_325:\n        /* \"#utility.yul\":2790:2791   */\n      0x00\n        /* \"#utility.yul\":2815:2868   */\n      tag_327\n        /* \"#utility.yul\":2860:2867   */\n      dup6\n        /* \"#utility.yul\":2851:2857   */\n      dup3\n        /* \"#utility.yul\":2840:2849   */\n      dup7\n        /* \"#utility.yul\":2836:2858   */\n      add\n        /* \"#utility.yul\":2815:2868   */\n      tag_250\n      jump\t// in\n    tag_327:\n        /* \"#utility.yul\":2805:2868   */\n      swap3\n      pop\n        /* \"#utility.yul\":2761:2878   */\n      pop\n        /* \"#utility.yul\":2917:2919   */\n      0x20\n        /* \"#utility.yul\":2943:2996   */\n      tag_328\n        /* \"#utility.yul\":2988:2995   */\n      dup6\n        /* \"#utility.yul\":2979:2985   */\n      dup3\n        /* \"#utility.yul\":2968:2977   */\n      dup7\n        /* \"#utility.yul\":2964:2986   */\n      add\n        /* \"#utility.yul\":2943:2996   */\n      tag_253\n      jump\t// in\n    tag_328:\n        /* \"#utility.yul\":2933:2996   */\n      swap2\n      pop\n        /* \"#utility.yul\":2888:3006   */\n      pop\n        /* \"#utility.yul\":2539:3013   */\n      swap3\n      pop\n      swap3\n      swap1\n      pop\n      jump\t// out\n        /* \"#utility.yul\":3019:3109   */\n    tag_254:\n        /* \"#utility.yul\":3053:3060   */\n      0x00\n        /* \"#utility.yul\":3096:3101   */\n      dup2\n        /* \"#utility.yul\":3089:3102   */\n      iszero\n        /* \"#utility.yul\":3082:3103   */\n      iszero\n        /* \"#utility.yul\":3071:3103   */\n      swap1\n      pop\n        /* \"#utility.yul\":3019:3109   */\n      swap2\n      swap1\n      pop\n      jump\t// out\n        /* \"#utility.yul\":3115:3224   */\n    tag_255:\n        /* \"#utility.yul\":3196:3217   */\n      tag_331\n        /* \"#utility.yul\":3211:3216   */\n      dup2\n        /* \"#utility.yul\":3196:3217   */\n      tag_254\n      jump\t// in\n    tag_331:\n        /* \"#utility.yul\":3191:3194   */\n      dup3\n        /* \"#utility.yul\":3184:3218   */\n      mstore\n        /* \"#utility.yul\":3115:3224   */\n      pop\n      pop\n      jump\t// out\n        /* \"#utility.yul\":3230:3440   */\n    tag_35:\n        /* \"#utility.yul\":3317:3321   */\n      0x00\n        /* \"#utility.yul\":3355:3357   */\n      0x20\n        /* \"#utility.yul\":3344:3353   */\n      dup3\n        /* \"#utility.yul\":3340:3358   */\n      add\n        /* \"#utility.yul\":3332:3358   */\n      swap1\n      pop\n        /* \"#utility.yul\":3368:3433   */\n      tag_333\n        /* \"#utility.yul\":3430:3431   */\n      0x00\n        /* \"#utility.yul\":3419:3428   */\n      dup4\n        /* \"#utility.yul\":3415:3432   */\n      add\n        /* \"#utility.yul\":3406:3412   */\n      dup5\n        /* \"#utility.yul\":3368:3433   */\n      tag_255\n      jump\t// in\n    tag_333:\n        /* \"#utility.yul\":3230:3440   */\n      swap3\n      swap2\n      pop\n      pop\n      jump\t// out\n        /* \"#utility.yul\":3446:3564   */\n    tag_256:\n        /* \"#utility.yul\":3533:3557   */\n      tag_335\n        /* \"#utility.yul\":3551:3556   */\n      dup2\n        /* \"#utility.yul\":3533:3557   */\n      tag_251\n      jump\t// in\n    tag_335:\n        /* \"#utility.yul\":3528:3531   */\n      dup3\n        /* \"#utility.yul\":3521:3558   */\n      mstore\n        /* \"#utility.yul\":3446:3564   */\n      pop\n      pop\n      jump\t// out\n        /* \"#utility.yul\":3570:3792   */\n    tag_39:\n        /* \"#utility.yul\":3663:3667   */\n      0x00\n        /* \"#utility.yul\":3701:3703   */\n      0x20\n        /* \"#utility.yul\":3690:3699   */\n      dup3\n        /* \"#utility.yul\":3686:3704   */\n      add\n        /* \"#utility.yul\":3678:3704   */\n      swap1\n      pop\n        /* \"#utility.yul\":3714:3785   */\n      tag_337\n        /* \"#utility.yul\":3782:3783   */\n      0x00\n        /* \"#utility.yul\":3771:3780   */\n      dup4\n        /* \"#utility.yul\":3767:3784   */\n      add\n        /* \"#utility.yul\":3758:3764   */\n      dup5\n        /* \"#utility.yul\":3714:3785   */\n      tag_256\n      jump\t// in\n    tag_337:\n        /* \"#utility.yul\":3570:3792   */\n      swap3\n      swap2\n      pop\n      pop\n      jump\t// out\n        /* \"#utility.yul\":3798:4417   */\n    tag_50:\n        /* \"#utility.yul\":3875:3881   */\n      0x00\n        /* \"#utility.yul\":3883:3889   */\n      dup1\n        /* \"#utility.yul\":3891:3897   */\n      0x00\n        /* \"#utility.yul\":3940:3942   */\n      0x60\n        /* \"#utility.yul\":3928:3937   */\n      dup5\n        /* \"#utility.yul\":3919:3926   */\n      dup7\n        /* \"#utility.yul\":3915:3938   */\n      sub\n        /* \"#utility.yul\":3911:3943   */\n      slt\n        /* \"#utility.yul\":3908:4027   */\n      iszero\n      tag_339\n      jumpi\n        /* \"#utility.yul\":3946:4025   */\n      tag_340\n      tag_245\n      jump\t// in\n    tag_340:\n        /* \"#utility.yul\":3908:4027   */\n    tag_339:\n        /* \"#utility.yul\":4066:4067   */\n      0x00\n        /* \"#utility.yul\":4091:4144   */\n      tag_341\n        /* \"#utility.yul\":4136:4143   */\n      dup7\n        /* \"#utility.yul\":4127:4133   */\n      dup3\n        /* \"#utility.yul\":4116:4125   */\n      dup8\n        /* \"#utility.yul\":4112:4134   */\n      add\n        /* \"#utility.yul\":4091:4144   */\n      tag_250\n      jump\t// in\n    tag_341:\n        /* \"#utility.yul\":4081:4144   */\n      swap4\n      pop\n        /* \"#utility.yul\":4037:4154   */\n      pop\n        /* \"#utility.yul\":4193:4195   */\n      0x20\n        /* \"#utility.yul\":4219:4272   */\n      tag_342\n        /* \"#utility.yul\":4264:4271   */\n      dup7\n        /* \"#utility.yul\":4255:4261   */\n      dup3\n        /* \"#utility.yul\":4244:4253   */\n      dup8\n        /* \"#utility.yul\":4240:4262   */\n      add\n        /* \"#utility.yul\":4219:4272   */\n      tag_250\n      jump\t// in\n    tag_342:\n        /* \"#utility.yul\":4209:4272   */\n      swap3\n      pop\n        /* \"#utility.yul\":4164:4282   */\n      pop\n        /* \"#utility.yul\":4321:4323   */\n      0x40\n        /* \"#utility.yul\":4347:4400   */\n      tag_343\n        /* \"#utility.yul\":4392:4399   */\n      dup7\n        /* \"#utility.yul\":4383:4389   */\n      dup3\n        /* \"#utility.yul\":4372:4381   */\n      dup8\n        /* \"#utility.yul\":4368:4390   */\n      add\n        /* \"#utility.yul\":4347:4400   */\n      tag_253\n      jump\t// in\n    tag_343:\n        /* \"#utility.yul\":4337:4400   */\n      swap2\n      pop\n        /* \"#utility.yul\":4292:4410   */\n      pop\n        /* \"#utility.yul\":3798:4417   */\n      swap3\n      pop\n      swap3\n      pop\n      swap3\n      jump\t// out\n        /* \"#utility.yul\":4423:4509   */\n    tag_257:\n        /* \"#utility.yul\":4458:4465   */\n      0x00\n        /* \"#utility.yul\":4498:4502   */\n      0xff\n        /* \"#utility.yul\":4491:4496   */\n      dup3\n        /* \"#utility.yul\":4487:4503   */\n      and\n        /* \"#utility.yul\":4476:4503   */\n      swap1\n      pop\n        /* \"#utility.yul\":4423:4509   */\n      swap2\n      swap1\n      pop\n      jump\t// out\n        /* \"#utility.yul\":4515:4627   */\n    tag_258:\n        /* \"#utility.yul\":4598:4620   */\n      tag_346\n        /* \"#utility.yul\":4614:4619   */\n      dup2\n        /* \"#utility.yul\":4598:4620   */\n      tag_257\n      jump\t// in\n    tag_346:\n        /* \"#utility.yul\":4593:4596   */\n      dup3\n        /* \"#utility.yul\":4586:4621   */\n      mstore\n        /* \"#utility.yul\":4515:4627   */\n      pop\n      pop\n      jump\t// out\n        /* \"#utility.yul\":4633:4847   */\n    tag_56:\n        /* \"#utility.yul\":4722:4726   */\n      0x00\n        /* \"#utility.yul\":4760:4762   */\n      0x20\n        /* \"#utility.yul\":4749:4758   */\n      dup3\n        /* \"#utility.yul\":4745:4763   */\n      add\n        /* \"#utility.yul\":4737:4763   */\n      swap1\n      pop\n        /* \"#utility.yul\":4773:4840   */\n      tag_348\n        /* \"#utility.yul\":4837:4838   */\n      0x00\n        /* \"#utility.yul\":4826:4835   */\n      dup4\n        /* \"#utility.yul\":4822:4839   */\n      add\n        /* \"#utility.yul\":4813:4819   */\n      dup5\n        /* \"#utility.yul\":4773:4840   */\n      tag_258\n      jump\t// in\n    tag_348:\n        /* \"#utility.yul\":4633:4847   */\n      swap3\n      swap2\n      pop\n      pop\n      jump\t// out\n        /* \"#utility.yul\":4853:5327   */\n    tag_63:\n        /* \"#utility.yul\":4921:4927   */\n      0x00\n        /* \"#utility.yul\":4929:4935   */\n      dup1\n        /* \"#utility.yul\":4978:4980   */\n      0x40\n        /* \"#utility.yul\":4966:4975   */\n      dup4\n        /* \"#utility.yul\":4957:4964   */\n      dup6\n        /* \"#utility.yul\":4953:4976   */\n      sub\n        /* \"#utility.yul\":4949:4981   */\n      slt\n        /* \"#utility.yul\":4946:5065   */\n      iszero\n      tag_350\n      jumpi\n        /* \"#utility.yul\":4984:5063   */\n      tag_351\n      tag_245\n      jump\t// in\n    tag_351:\n        /* \"#utility.yul\":4946:5065   */\n    tag_350:\n        /* \"#utility.yul\":5104:5105   */\n      0x00\n        /* \"#utility.yul\":5129:5182   */\n      tag_352\n        /* \"#utility.yul\":5174:5181   */\n      dup6\n        /* \"#utility.yul\":5165:5171   */\n      dup3\n        /* \"#utility.yul\":5154:5163   */\n      dup7\n        /* \"#utility.yul\":5150:5172   */\n      add\n        /* \"#utility.yul\":5129:5182   */\n      tag_253\n      jump\t// in\n    tag_352:\n        /* \"#utility.yul\":5119:5182   */\n      swap3\n      pop\n        /* \"#utility.yul\":5075:5192   */\n      pop\n        /* \"#utility.yul\":5231:5233   */\n      0x20\n        /* \"#utility.yul\":5257:5310   */\n      tag_353\n        /* \"#utility.yul\":5302:5309   */\n      dup6\n        /* \"#utility.yul\":5293:5299   */\n      dup3\n        /* \"#utility.yul\":5282:5291   */\n      dup7\n        /* \"#utility.yul\":5278:5300   */\n      add\n        /* \"#utility.yul\":5257:5310   */\n      tag_253\n      jump\t// in\n    tag_353:\n        /* \"#utility.yul\":5247:5310   */\n      swap2\n      pop\n        /* \"#utility.yul\":5202:5320   */\n      pop\n        /* \"#utility.yul\":4853:5327   */\n      swap3\n      pop\n      swap3\n      swap1\n      pop\n      jump\t// out\n        /* \"#utility.yul\":5333:5662   */\n    tag_67:\n        /* \"#utility.yul\":5392:5398   */\n      0x00\n        /* \"#utility.yul\":5441:5443   */\n      0x20\n        /* \"#utility.yul\":5429:5438   */\n      dup3\n        /* \"#utility.yul\":5420:5427   */\n      dup5\n        /* \"#utility.yul\":5416:5439   */\n      sub\n        /* \"#utility.yul\":5412:5444   */\n      slt\n        /* \"#utility.yul\":5409:5528   */\n      iszero\n      tag_355\n      jumpi\n        /* \"#utility.yul\":5447:5526   */\n      tag_356\n      tag_245\n      jump\t// in\n    tag_356:\n        /* \"#utility.yul\":5409:5528   */\n    tag_355:\n        /* \"#utility.yul\":5567:5568   */\n      0x00\n        /* \"#utility.yul\":5592:5645   */\n      tag_357\n        /* \"#utility.yul\":5637:5644   */\n      dup5\n        /* \"#utility.yul\":5628:5634   */\n      dup3\n        /* \"#utility.yul\":5617:5626   */\n      dup6\n        /* \"#utility.yul\":5613:5635   */\n      add\n        /* \"#utility.yul\":5592:5645   */\n      tag_250\n      jump\t// in\n    tag_357:\n        /* \"#utility.yul\":5582:5645   */\n      swap2\n      pop\n        /* \"#utility.yul\":5538:5655   */\n      pop\n        /* \"#utility.yul\":5333:5662   */\n      swap3\n      swap2\n      pop\n      pop\n      jump\t// out\n        /* \"#utility.yul\":5668:5786   */\n    tag_259:\n        /* \"#utility.yul\":5755:5779   */\n      tag_359\n        /* \"#utility.yul\":5773:5778   */\n      dup2\n        /* \"#utility.yul\":5755:5779   */\n      tag_248\n      jump\t// in\n    tag_359:\n        /* \"#utility.yul\":5750:5753   */\n      dup3\n        /* \"#utility.yul\":5743:5780   */\n      mstore\n        /* \"#utility.yul\":5668:5786   */\n      pop\n      pop\n      jump\t// out\n        /* \"#utility.yul\":5792:6014   */\n    tag_75:\n        /* \"#utility.yul\":5885:5889   */\n      0x00\n        /* \"#utility.yul\":5923:5925   */\n      0x20\n        /* \"#utility.yul\":5912:5921   */\n      dup3\n        /* \"#utility.yul\":5908:5926   */\n      add\n        /* \"#utility.yul\":5900:5926   */\n      swap1\n      pop\n        /* \"#utility.yul\":5936:6007   */\n      tag_361\n        /* \"#utility.yul\":6004:6005   */\n      0x00\n        /* \"#utility.yul\":5993:6002   */\n      dup4\n        /* \"#utility.yul\":5989:6006   */\n      add\n        /* \"#utility.yul\":5980:5986   */\n      dup5\n        /* \"#utility.yul\":5936:6007   */\n      tag_259\n      jump\t// in\n    tag_361:\n        /* \"#utility.yul\":5792:6014   */\n      swap3\n      swap2\n      pop\n      pop\n      jump\t// out\n        /* \"#utility.yul\":6020:6349   */\n    tag_89:\n        /* \"#utility.yul\":6079:6085   */\n      0x00\n        /* \"#utility.yul\":6128:6130   */\n      0x20\n        /* \"#utility.yul\":6116:6125   */\n      dup3\n        /* \"#utility.yul\":6107:6114   */\n      dup5\n        /* \"#utility.yul\":6103:6126   */\n      sub\n        /* \"#utility.yul\":6099:6131   */\n      slt\n        /* \"#utility.yul\":6096:6215   */\n      iszero\n      tag_363\n      jumpi\n        /* \"#utility.yul\":6134:6213   */\n      tag_364\n      tag_245\n      jump\t// in\n    tag_364:\n        /* \"#utility.yul\":6096:6215   */\n    tag_363:\n        /* \"#utility.yul\":6254:6255   */\n      0x00\n        /* \"#utility.yul\":6279:6332   */\n      tag_365\n        /* \"#utility.yul\":6324:6331   */\n      dup5\n        /* \"#utility.yul\":6315:6321   */\n      dup3\n        /* \"#utility.yul\":6304:6313   */\n      dup6\n        /* \"#utility.yul\":6300:6322   */\n      add\n        /* \"#utility.yul\":6279:6332   */\n      tag_253\n      jump\t// in\n    tag_365:\n        /* \"#utility.yul\":6269:6332   */\n      swap2\n      pop\n        /* \"#utility.yul\":6225:6342   */\n      pop\n        /* \"#utility.yul\":6020:6349   */\n      swap3\n      swap2\n      pop\n      pop\n      jump\t// out\n        /* \"#utility.yul\":6355:6829   */\n    tag_97:\n        /* \"#utility.yul\":6423:6429   */\n      0x00\n        /* \"#utility.yul\":6431:6437   */\n      dup1\n        /* \"#utility.yul\":6480:6482   */\n      0x40\n        /* \"#utility.yul\":6468:6477   */\n      dup4\n        /* \"#utility.yul\":6459:6466   */\n      dup6\n        /* \"#utility.yul\":6455:6478   */\n      sub\n        /* \"#utility.yul\":6451:6483   */\n      slt\n        /* \"#utility.yul\":6448:6567   */\n      iszero\n      tag_367\n      jumpi\n        /* \"#utility.yul\":6486:6565   */\n      tag_368\n      tag_245\n      jump\t// in\n    tag_368:\n        /* \"#utility.yul\":6448:6567   */\n    tag_367:\n        /* \"#utility.yul\":6606:6607   */\n      0x00\n        /* \"#utility.yul\":6631:6684   */\n      tag_369\n        /* \"#utility.yul\":6676:6683   */\n      dup6\n        /* \"#utility.yul\":6667:6673   */\n      dup3\n        /* \"#utility.yul\":6656:6665   */\n      dup7\n        /* \"#utility.yul\":6652:6674   */\n      add\n        /* \"#utility.yul\":6631:6684   */\n      tag_250\n      jump\t// in\n    tag_369:\n        /* \"#utility.yul\":6621:6684   */\n      swap3\n      pop\n        /* \"#utility.yul\":6577:6694   */\n      pop\n        /* \"#utility.yul\":6733:6735   */\n      0x20\n        /* \"#utility.yul\":6759:6812   */\n      tag_370\n        /* \"#utility.yul\":6804:6811   */\n      dup6\n        /* \"#utility.yul\":6795:6801   */\n      dup3\n        /* \"#utility.yul\":6784:6793   */\n      dup7\n        /* \"#utility.yul\":6780:6802   */\n      add\n        /* \"#utility.yul\":6759:6812   */\n      tag_250\n      jump\t// in\n    tag_370:\n        /* \"#utility.yul\":6749:6812   */\n      swap2\n      pop\n        /* \"#utility.yul\":6704:6822   */\n      pop\n        /* \"#utility.yul\":6355:6829   */\n      swap3\n      pop\n      swap3\n      swap1\n      pop\n      jump\t// out\n        /* \"#utility.yul\":6835:7015   */\n    tag_260:\n        /* \"#utility.yul\":6883:6960   */\n      0x4e487b7100000000000000000000000000000000000000000000000000000000\n        /* \"#utility.yul\":6880:6881   */\n      0x00\n        /* \"#utility.yul\":6873:6961   */\n      mstore\n        /* \"#utility.yul\":6980:6984   */\n      0x22\n        /* \"#utility.yul\":6977:6978   */\n      0x04\n        /* \"#utility.yul\":6970:6985   */\n      mstore\n        /* \"#utility.yul\":7004:7008   */\n      0x24\n        /* \"#utility.yul\":7001:7002   */\n      0x00\n        /* \"#utility.yul\":6994:7009   */\n      revert\n        /* \"#utility.yul\":7021:7341   */\n    tag_108:\n        /* \"#utility.yul\":7065:7071   */\n      0x00\n        /* \"#utility.yul\":7102:7103   */\n      0x02\n        /* \"#utility.yul\":7096:7100   */\n      dup3\n        /* \"#utility.yul\":7092:7104   */\n      div\n        /* \"#utility.yul\":7082:7104   */\n      swap1\n      pop\n        /* \"#utility.yul\":7149:7150   */\n      0x01\n        /* \"#utility.yul\":7143:7147   */\n      dup3\n        /* \"#utility.yul\":7139:7151   */\n      and\n        /* \"#utility.yul\":7170:7188   */\n      dup1\n        /* \"#utility.yul\":7160:7241   */\n      tag_373\n      jumpi\n        /* \"#utility.yul\":7226:7230   */\n      0x7f\n        /* \"#utility.yul\":7218:7224   */\n      dup3\n        /* \"#utility.yul\":7214:7231   */\n      and\n        /* \"#utility.yul\":7204:7231   */\n      swap2\n      pop\n        /* \"#utility.yul\":7160:7241   */\n    tag_373:\n        /* \"#utility.yul\":7288:7290   */\n      0x20\n        /* \"#utility.yul\":7280:7286   */\n      dup3\n        /* \"#utility.yul\":7277:7291   */\n      lt\n        /* \"#utility.yul\":7257:7275   */\n      dup2\n        /* \"#utility.yul\":7254:7292   */\n      sub\n        /* \"#utility.yul\":7251:7335   */\n      tag_374\n      jumpi\n        /* \"#utility.yul\":7307:7325   */\n      tag_375\n      tag_260\n      jump\t// in\n    tag_375:\n        /* \"#utility.yul\":7251:7335   */\n    tag_374:\n        /* \"#utility.yul\":7072:7341   */\n      pop\n        /* \"#utility.yul\":7021:7341   */\n      swap2\n      swap1\n      pop\n      jump\t// out\n        /* \"#utility.yul\":7347:7574   */\n    tag_261:\n        /* \"#utility.yul\":7487:7521   */\n      0x45524332303a207472616e7366657220616d6f756e7420657863656564732061\n        /* \"#utility.yul\":7483:7484   */\n      0x00\n        /* \"#utility.yul\":7475:7481   */\n      dup3\n        /* \"#utility.yul\":7471:7485   */\n      add\n        /* \"#utility.yul\":7464:7522   */\n      mstore\n        /* \"#utility.yul\":7556:7566   */\n      0x6c6c6f77616e6365000000000000000000000000000000000000000000000000\n        /* \"#utility.yul\":7551:7553   */\n      0x20\n        /* \"#utility.yul\":7543:7549   */\n      dup3\n        /* \"#utility.yul\":7539:7554   */\n      add\n        /* \"#utility.yul\":7532:7567   */\n      mstore\n        /* \"#utility.yul\":7347:7574   */\n      pop\n      jump\t// out\n        /* \"#utility.yul\":7580:7946   */\n    tag_262:\n        /* \"#utility.yul\":7722:7725   */\n      0x00\n        /* \"#utility.yul\":7743:7810   */\n      tag_378\n        /* \"#utility.yul\":7807:7809   */\n      0x28\n        /* \"#utility.yul\":7802:7805   */\n      dup4\n        /* \"#utility.yul\":7743:7810   */\n      tag_240\n      jump\t// in\n    tag_378:\n        /* \"#utility.yul\":7736:7810   */\n      swap2\n      pop\n        /* \"#utility.yul\":7819:7912   */\n      tag_379\n        /* \"#utility.yul\":7908:7911   */\n      dup3\n        /* \"#utility.yul\":7819:7912   */\n      tag_261\n      jump\t// in\n    tag_379:\n        /* \"#utility.yul\":7937:7939   */\n      0x40\n        /* \"#utility.yul\":7932:7935   */\n      dup3\n        /* \"#utility.yul\":7928:7940   */\n      add\n        /* \"#utility.yul\":7921:7940   */\n      swap1\n      pop\n        /* \"#utility.yul\":7580:7946   */\n      swap2\n      swap1\n      pop\n      jump\t// out\n        /* \"#utility.yul\":7952:8371   */\n    tag_126:\n        /* \"#utility.yul\":8118:8122   */\n      0x00\n        /* \"#utility.yul\":8156:8158   */\n      0x20\n        /* \"#utility.yul\":8145:8154   */\n      dup3\n        /* \"#utility.yul\":8141:8159   */\n      add\n        /* \"#utility.yul\":8133:8159   */\n      swap1\n      pop\n        /* \"#utility.yul\":8205:8214   */\n      dup2\n        /* \"#utility.yul\":8199:8203   */\n      dup2\n        /* \"#utility.yul\":8195:8215   */\n      sub\n        /* \"#utility.yul\":8191:8192   */\n      0x00\n        /* \"#utility.yul\":8180:8189   */\n      dup4\n        /* \"#utility.yul\":8176:8193   */\n      add\n        /* \"#utility.yul\":8169:8216   */\n      mstore\n        /* \"#utility.yul\":8233:8364   */\n      tag_381\n        /* \"#utility.yul\":8359:8363   */\n      dup2\n        /* \"#utility.yul\":8233:8364   */\n      tag_262\n      jump\t// in\n    tag_381:\n        /* \"#utility.yul\":8225:8364   */\n      swap1\n      pop\n        /* \"#utility.yul\":7952:8371   */\n      swap2\n      swap1\n      pop\n      jump\t// out\n        /* \"#utility.yul\":8377:8557   */\n    tag_263:\n        /* \"#utility.yul\":8425:8502   */\n      0x4e487b7100000000000000000000000000000000000000000000000000000000\n        /* \"#utility.yul\":8422:8423   */\n      0x00\n        /* \"#utility.yul\":8415:8503   */\n      mstore\n        /* \"#utility.yul\":8522:8526   */\n      0x11\n        /* \"#utility.yul\":8519:8520   */\n      0x04\n        /* \"#utility.yul\":8512:8527   */\n      mstore\n        /* \"#utility.yul\":8546:8550   */\n      0x24\n        /* \"#utility.yul\":8543:8544   */\n      0x00\n        /* \"#utility.yul\":8536:8551   */\n      revert\n        /* \"#utility.yul\":8563:8757   */\n    tag_130:\n        /* \"#utility.yul\":8603:8607   */\n      0x00\n        /* \"#utility.yul\":8623:8643   */\n      tag_384\n        /* \"#utility.yul\":8641:8642   */\n      dup3\n        /* \"#utility.yul\":8623:8643   */\n      tag_251\n      jump\t// in\n    tag_384:\n        /* \"#utility.yul\":8618:8643   */\n      swap2\n      pop\n        /* \"#utility.yul\":8657:8677   */\n      tag_385\n        /* \"#utility.yul\":8675:8676   */\n      dup4\n        /* \"#utility.yul\":8657:8677   */\n      tag_251\n      jump\t// in\n    tag_385:\n        /* \"#utility.yul\":8652:8677   */\n      swap3\n      pop\n        /* \"#utility.yul\":8701:8702   */\n      dup3\n        /* \"#utility.yul\":8698:8699   */\n      dup3\n        /* \"#utility.yul\":8694:8703   */\n      sub\n        /* \"#utility.yul\":8686:8703   */\n      swap1\n      pop\n        /* \"#utility.yul\":8725:8726   */\n      dup2\n        /* \"#utility.yul\":8719:8723   */\n      dup2\n        /* \"#utility.yul\":8716:8727   */\n      gt\n        /* \"#utility.yul\":8713:8750   */\n      iszero\n      tag_386\n      jumpi\n        /* \"#utility.yul\":8730:8748   */\n      tag_387\n      tag_263\n      jump\t// in\n    tag_387:\n        /* \"#utility.yul\":8713:8750   */\n    tag_386:\n        /* \"#utility.yul\":8563:8757   */\n      swap3\n      swap2\n      pop\n      pop\n      jump\t// out\n        /* \"#utility.yul\":8763:8954   */\n    tag_137:\n        /* \"#utility.yul\":8803:8806   */\n      0x00\n        /* \"#utility.yul\":8822:8842   */\n      tag_389\n        /* \"#utility.yul\":8840:8841   */\n      dup3\n        /* \"#utility.yul\":8822:8842   */\n      tag_251\n      jump\t// in\n    tag_389:\n        /* \"#utility.yul\":8817:8842   */\n      swap2\n      pop\n        /* \"#utility.yul\":8856:8876   */\n      tag_390\n        /* \"#utility.yul\":8874:8875   */\n      dup4\n        /* \"#utility.yul\":8856:8876   */\n      tag_251\n      jump\t// in\n    tag_390:\n        /* \"#utility.yul\":8851:8876   */\n      swap3\n      pop\n        /* \"#utility.yul\":8899:8900   */\n      dup3\n        /* \"#utility.yul\":8896:8897   */\n      dup3\n        /* \"#utility.yul\":8892:8901   */\n      add\n        /* \"#utility.yul\":8885:8901   */\n      swap1\n      pop\n        /* \"#utility.yul\":8920:8923   */\n      dup1\n        /* \"#utility.yul\":8917:8918   */\n      dup3\n        /* \"#utility.yul\":8914:8924   */\n      gt\n        /* \"#utility.yul\":8911:8947   */\n      iszero\n      tag_391\n      jumpi\n        /* \"#utility.yul\":8927:8945   */\n      tag_392\n      tag_263\n      jump\t// in\n    tag_392:\n        /* \"#utility.yul\":8911:8947   */\n    tag_391:\n        /* \"#utility.yul\":8763:8954   */\n      swap3\n      swap2\n      pop\n      pop\n      jump\t// out\n        /* \"#utility.yul\":8960:9142   */\n    tag_264:\n        /* \"#utility.yul\":9100:9134   */\n      0x4f776e61626c653a2063616c6c6572206973206e6f7420746865206f776e6572\n        /* \"#utility.yul\":9096:9097   */\n      0x00\n        /* \"#utility.yul\":9088:9094   */\n      dup3\n        /* \"#utility.yul\":9084:9098   */\n      add\n        /* \"#utility.yul\":9077:9135   */\n      mstore\n        /* \"#utility.yul\":8960:9142   */\n      pop\n      jump\t// out\n        /* \"#utility.yul\":9148:9514   */\n    tag_265:\n        /* \"#utility.yul\":9290:9293   */\n      0x00\n        /* \"#utility.yul\":9311:9378   */\n      tag_395\n        /* \"#utility.yul\":9375:9377   */\n      0x20\n        /* \"#utility.yul\":9370:9373   */\n      dup4\n        /* \"#utility.yul\":9311:9378   */\n      tag_240\n      jump\t// in\n    tag_395:\n        /* \"#utility.yul\":9304:9378   */\n      swap2\n      pop\n        /* \"#utility.yul\":9387:9480   */\n      tag_396\n        /* \"#utility.yul\":9476:9479   */\n      dup3\n        /* \"#utility.yul\":9387:9480   */\n      tag_264\n      jump\t// in\n    tag_396:\n        /* \"#utility.yul\":9505:9507   */\n      0x20\n        /* \"#utility.yul\":9500:9503   */\n      dup3\n        /* \"#utility.yul\":9496:9508   */\n      add\n        /* \"#utility.yul\":9489:9508   */\n      swap1\n      pop\n        /* \"#utility.yul\":9148:9514   */\n      swap2\n      swap1\n      pop\n      jump\t// out\n        /* \"#utility.yul\":9520:9939   */\n    tag_143:\n        /* \"#utility.yul\":9686:9690   */\n      0x00\n        /* \"#utility.yul\":9724:9726   */\n      0x20\n        /* \"#utility.yul\":9713:9722   */\n      dup3\n        /* \"#utility.yul\":9709:9727   */\n      add\n        /* \"#utility.yul\":9701:9727   */\n      swap1\n      pop\n        /* \"#utility.yul\":9773:9782   */\n      dup2\n        /* \"#utility.yul\":9767:9771   */\n      dup2\n        /* \"#utility.yul\":9763:9783   */\n      sub\n        /* \"#utility.yul\":9759:9760   */\n      0x00\n        /* \"#utility.yul\":9748:9757   */\n      dup4\n        /* \"#utility.yul\":9744:9761   */\n      add\n        /* \"#utility.yul\":9737:9784   */\n      mstore\n        /* \"#utility.yul\":9801:9932   */\n      tag_398\n        /* \"#utility.yul\":9927:9931   */\n      dup2\n        /* \"#utility.yul\":9801:9932   */\n      tag_265\n      jump\t// in\n    tag_398:\n        /* \"#utility.yul\":9793:9932   */\n      swap1\n      pop\n        /* \"#utility.yul\":9520:9939   */\n      swap2\n      swap1\n      pop\n      jump\t// out\n        /* \"#utility.yul\":9945:10123   */\n    tag_266:\n        /* \"#utility.yul\":10085:10115   */\n      0x5072696365206d7573742062652067726561746572207468616e203000000000\n        /* \"#utility.yul\":10081:10082   */\n      0x00\n        /* \"#utility.yul\":10073:10079   */\n      dup3\n        /* \"#utility.yul\":10069:10083   */\n      add\n        /* \"#utility.yul\":10062:10116   */\n      mstore\n        /* \"#utility.yul\":9945:10123   */\n      pop\n      jump\t// out\n        /* \"#utility.yul\":10129:10495   */\n    tag_267:\n        /* \"#utility.yul\":10271:10274   */\n      0x00\n        /* \"#utility.yul\":10292:10359   */\n      tag_401\n        /* \"#utility.yul\":10356:10358   */\n      0x1c\n        /* \"#utility.yul\":10351:10354   */\n      dup4\n        /* \"#utility.yul\":10292:10359   */\n      tag_240\n      jump\t// in\n    tag_401:\n        /* \"#utility.yul\":10285:10359   */\n      swap2\n      pop\n        /* \"#utility.yul\":10368:10461   */\n      tag_402\n        /* \"#utility.yul\":10457:10460   */\n      dup3\n        /* \"#utility.yul\":10368:10461   */\n      tag_266\n      jump\t// in\n    tag_402:\n        /* \"#utility.yul\":10486:10488   */\n      0x20\n        /* \"#utility.yul\":10481:10484   */\n      dup3\n        /* \"#utility.yul\":10477:10489   */\n      add\n        /* \"#utility.yul\":10470:10489   */\n      swap1\n      pop\n        /* \"#utility.yul\":10129:10495   */\n      swap2\n      swap1\n      pop\n      jump\t// out\n        /* \"#utility.yul\":10501:10920   */\n    tag_147:\n        /* \"#utility.yul\":10667:10671   */\n      0x00\n        /* \"#utility.yul\":10705:10707   */\n      0x20\n        /* \"#utility.yul\":10694:10703   */\n      dup3\n        /* \"#utility.yul\":10690:10708   */\n      add\n        /* \"#utility.yul\":10682:10708   */\n      swap1\n      pop\n        /* \"#utility.yul\":10754:10763   */\n      dup2\n        /* \"#utility.yul\":10748:10752   */\n      dup2\n        /* \"#utility.yul\":10744:10764   */\n      sub\n        /* \"#utility.yul\":10740:10741   */\n      0x00\n        /* \"#utility.yul\":10729:10738   */\n      dup4\n        /* \"#utility.yul\":10725:10742   */\n      add\n        /* \"#utility.yul\":10718:10765   */\n      mstore\n        /* \"#utility.yul\":10782:10913   */\n      tag_404\n        /* \"#utility.yul\":10908:10912   */\n      dup2\n        /* \"#utility.yul\":10782:10913   */\n      tag_267\n      jump\t// in\n    tag_404:\n        /* \"#utility.yul\":10774:10913   */\n      swap1\n      pop\n        /* \"#utility.yul\":10501:10920   */\n      swap2\n      swap1\n      pop\n      jump\t// out\n        /* \"#utility.yul\":10926:11258   */\n    tag_149:\n        /* \"#utility.yul\":11047:11051   */\n      0x00\n        /* \"#utility.yul\":11085:11087   */\n      0x40\n        /* \"#utility.yul\":11074:11083   */\n      dup3\n        /* \"#utility.yul\":11070:11088   */\n      add\n        /* \"#utility.yul\":11062:11088   */\n      swap1\n      pop\n        /* \"#utility.yul\":11098:11169   */\n      tag_406\n        /* \"#utility.yul\":11166:11167   */\n      0x00\n        /* \"#utility.yul\":11155:11164   */\n      dup4\n        /* \"#utility.yul\":11151:11168   */\n      add\n        /* \"#utility.yul\":11142:11148   */\n      dup6\n        /* \"#utility.yul\":11098:11169   */\n      tag_256\n      jump\t// in\n    tag_406:\n        /* \"#utility.yul\":11179:11251   */\n      tag_407\n        /* \"#utility.yul\":11247:11249   */\n      0x20\n        /* \"#utility.yul\":11236:11245   */\n      dup4\n        /* \"#utility.yul\":11232:11250   */\n      add\n        /* \"#utility.yul\":11223:11229   */\n      dup5\n        /* \"#utility.yul\":11179:11251   */\n      tag_256\n      jump\t// in\n    tag_407:\n        /* \"#utility.yul\":10926:11258   */\n      swap4\n      swap3\n      pop\n      pop\n      pop\n      jump\t// out\n        /* \"#utility.yul\":11264:11488   */\n    tag_268:\n        /* \"#utility.yul\":11404:11438   */\n      0x45524332303a2064656372656173656420616c6c6f77616e63652062656c6f77\n        /* \"#utility.yul\":11400:11401   */\n      0x00\n        /* \"#utility.yul\":11392:11398   */\n      dup3\n        /* \"#utility.yul\":11388:11402   */\n      add\n        /* \"#utility.yul\":11381:11439   */\n      mstore\n        /* \"#utility.yul\":11473:11480   */\n      0x207a65726f000000000000000000000000000000000000000000000000000000\n        /* \"#utility.yul\":11468:11470   */\n      0x20\n        /* \"#utility.yul\":11460:11466   */\n      dup3\n        /* \"#utility.yul\":11456:11471   */\n      add\n        /* \"#utility.yul\":11449:11481   */\n      mstore\n        /* \"#utility.yul\":11264:11488   */\n      pop\n      jump\t// out\n        /* \"#utility.yul\":11494:11860   */\n    tag_269:\n        /* \"#utility.yul\":11636:11639   */\n      0x00\n        /* \"#utility.yul\":11657:11724   */\n      tag_410\n        /* \"#utility.yul\":11721:11723   */\n      0x25\n        /* \"#utility.yul\":11716:11719   */\n      dup4\n        /* \"#utility.yul\":11657:11724   */\n      tag_240\n      jump\t// in\n    tag_410:\n        /* \"#utility.yul\":11650:11724   */\n      swap2\n      pop\n        /* \"#utility.yul\":11733:11826   */\n      tag_411\n        /* \"#utility.yul\":11822:11825   */\n      dup3\n        /* \"#utility.yul\":11733:11826   */\n      tag_268\n      jump\t// in\n    tag_411:\n        /* \"#utility.yul\":11851:11853   */\n      0x40\n        /* \"#utility.yul\":11846:11849   */\n      dup3\n        /* \"#utility.yul\":11842:11854   */\n      add\n        /* \"#utility.yul\":11835:11854   */\n      swap1\n      pop\n        /* \"#utility.yul\":11494:11860   */\n      swap2\n      swap1\n      pop\n      jump\t// out\n        /* \"#utility.yul\":11866:12285   */\n    tag_168:\n        /* \"#utility.yul\":12032:12036   */\n      0x00\n        /* \"#utility.yul\":12070:12072   */\n      0x20\n        /* \"#utility.yul\":12059:12068   */\n      dup3\n        /* \"#utility.yul\":12055:12073   */\n      add\n        /* \"#utility.yul\":12047:12073   */\n      swap1\n      pop\n        /* \"#utility.yul\":12119:12128   */\n      dup2\n        /* \"#utility.yul\":12113:12117   */\n      dup2\n        /* \"#utility.yul\":12109:12129   */\n      sub\n        /* \"#utility.yul\":12105:12106   */\n      0x00\n        /* \"#utility.yul\":12094:12103   */\n      dup4\n        /* \"#utility.yul\":12090:12107   */\n      add\n        /* \"#utility.yul\":12083:12130   */\n      mstore\n        /* \"#utility.yul\":12147:12278   */\n      tag_413\n        /* \"#utility.yul\":12273:12277   */\n      dup2\n        /* \"#utility.yul\":12147:12278   */\n      tag_269\n      jump\t// in\n    tag_413:\n        /* \"#utility.yul\":12139:12278   */\n      swap1\n      pop\n        /* \"#utility.yul\":11866:12285   */\n      swap2\n      swap1\n      pop\n      jump\t// out\n        /* \"#utility.yul\":12291:12466   */\n    tag_270:\n        /* \"#utility.yul\":12431:12458   */\n      0x54686973206974656d206973206e6f7420666f722073616c6500000000000000\n        /* \"#utility.yul\":12427:12428   */\n      0x00\n        /* \"#utility.yul\":12419:12425   */\n      dup3\n        /* \"#utility.yul\":12415:12429   */\n      add\n        /* \"#utility.yul\":12408:12459   */\n      mstore\n        /* \"#utility.yul\":12291:12466   */\n      pop\n      jump\t// out\n        /* \"#utility.yul\":12472:12838   */\n    tag_271:\n        /* \"#utility.yul\":12614:12617   */\n      0x00\n        /* \"#utility.yul\":12635:12702   */\n      tag_416\n        /* \"#utility.yul\":12699:12701   */\n      0x19\n        /* \"#utility.yul\":12694:12697   */\n      dup4\n        /* \"#utility.yul\":12635:12702   */\n      tag_240\n      jump\t// in\n    tag_416:\n        /* \"#utility.yul\":12628:12702   */\n      swap2\n      pop\n        /* \"#utility.yul\":12711:12804   */\n      tag_417\n        /* \"#utility.yul\":12800:12803   */\n      dup3\n        /* \"#utility.yul\":12711:12804   */\n      tag_270\n      jump\t// in\n    tag_417:\n        /* \"#utility.yul\":12829:12831   */\n      0x20\n        /* \"#utility.yul\":12824:12827   */\n      dup3\n        /* \"#utility.yul\":12820:12832   */\n      add\n        /* \"#utility.yul\":12813:12832   */\n      swap1\n      pop\n        /* \"#utility.yul\":12472:12838   */\n      swap2\n      swap1\n      pop\n      jump\t// out\n        /* \"#utility.yul\":12844:13263   */\n    tag_182:\n        /* \"#utility.yul\":13010:13014   */\n      0x00\n        /* \"#utility.yul\":13048:13050   */\n      0x20\n        /* \"#utility.yul\":13037:13046   */\n      dup3\n        /* \"#utility.yul\":13033:13051   */\n      add\n        /* \"#utility.yul\":13025:13051   */\n      swap1\n      pop\n        /* \"#utility.yul\":13097:13106   */\n      dup2\n        /* \"#utility.yul\":13091:13095   */\n      dup2\n        /* \"#utility.yul\":13087:13107   */\n      sub\n        /* \"#utility.yul\":13083:13084   */\n      0x00\n        /* \"#utility.yul\":13072:13081   */\n      dup4\n        /* \"#utility.yul\":13068:13085   */\n      add\n        /* \"#utility.yul\":13061:13108   */\n      mstore\n        /* \"#utility.yul\":13125:13256   */\n      tag_419\n        /* \"#utility.yul\":13251:13255   */\n      dup2\n        /* \"#utility.yul\":13125:13256   */\n      tag_271\n      jump\t// in\n    tag_419:\n        /* \"#utility.yul\":13117:13256   */\n      swap1\n      pop\n        /* \"#utility.yul\":12844:13263   */\n      swap2\n      swap1\n      pop\n      jump\t// out\n        /* \"#utility.yul\":13269:13442   */\n    tag_272:\n        /* \"#utility.yul\":13409:13434   */\n      0x41646d696e2063616e6e6f7420627579206974656d7321000000000000000000\n        /* \"#utility.yul\":13405:13406   */\n      0x00\n        /* \"#utility.yul\":13397:13403   */\n      dup3\n        /* \"#utility.yul\":13393:13407   */\n      add\n        /* \"#utility.yul\":13386:13435   */\n      mstore\n        /* \"#utility.yul\":13269:13442   */\n      pop\n      jump\t// out\n        /* \"#utility.yul\":13448:13814   */\n    tag_273:\n        /* \"#utility.yul\":13590:13593   */\n      0x00\n        /* \"#utility.yul\":13611:13678   */\n      tag_422\n        /* \"#utility.yul\":13675:13677   */\n      0x17\n        /* \"#utility.yul\":13670:13673   */\n      dup4\n        /* \"#utility.yul\":13611:13678   */\n      tag_240\n      jump\t// in\n    tag_422:\n        /* \"#utility.yul\":13604:13678   */\n      swap2\n      pop\n        /* \"#utility.yul\":13687:13780   */\n      tag_423\n        /* \"#utility.yul\":13776:13779   */\n      dup3\n        /* \"#utility.yul\":13687:13780   */\n      tag_272\n      jump\t// in\n    tag_423:\n        /* \"#utility.yul\":13805:13807   */\n      0x20\n        /* \"#utility.yul\":13800:13803   */\n      dup3\n        /* \"#utility.yul\":13796:13808   */\n      add\n        /* \"#utility.yul\":13789:13808   */\n      swap1\n      pop\n        /* \"#utility.yul\":13448:13814   */\n      swap2\n      swap1\n      pop\n      jump\t// out\n        /* \"#utility.yul\":13820:14239   */\n    tag_186:\n        /* \"#utility.yul\":13986:13990   */\n      0x00\n        /* \"#utility.yul\":14024:14026   */\n      0x20\n        /* \"#utility.yul\":14013:14022   */\n      dup3\n        /* \"#utility.yul\":14009:14027   */\n      add\n        /* \"#utility.yul\":14001:14027   */\n      swap1\n      pop\n        /* \"#utility.yul\":14073:14082   */\n      dup2\n        /* \"#utility.yul\":14067:14071   */\n      dup2\n        /* \"#utility.yul\":14063:14083   */\n      sub\n        /* \"#utility.yul\":14059:14060   */\n      0x00\n        /* \"#utility.yul\":14048:14057   */\n      dup4\n        /* \"#utility.yul\":14044:14061   */\n      add\n        /* \"#utility.yul\":14037:14084   */\n      mstore\n        /* \"#utility.yul\":14101:14232   */\n      tag_425\n        /* \"#utility.yul\":14227:14231   */\n      dup2\n        /* \"#utility.yul\":14101:14232   */\n      tag_273\n      jump\t// in\n    tag_425:\n        /* \"#utility.yul\":14093:14232   */\n      swap1\n      pop\n        /* \"#utility.yul\":13820:14239   */\n      swap2\n      swap1\n      pop\n      jump\t// out\n        /* \"#utility.yul\":14245:14420   */\n    tag_274:\n        /* \"#utility.yul\":14385:14412   */\n      0x496e73756666696369656e742047544e2062616c616e63652100000000000000\n        /* \"#utility.yul\":14381:14382   */\n      0x00\n        /* \"#utility.yul\":14373:14379   */\n      dup3\n        /* \"#utility.yul\":14369:14383   */\n      add\n        /* \"#utility.yul\":14362:14413   */\n      mstore\n        /* \"#utility.yul\":14245:14420   */\n      pop\n      jump\t// out\n        /* \"#utility.yul\":14426:14792   */\n    tag_275:\n        /* \"#utility.yul\":14568:14571   */\n      0x00\n        /* \"#utility.yul\":14589:14656   */\n      tag_428\n        /* \"#utility.yul\":14653:14655   */\n      0x19\n        /* \"#utility.yul\":14648:14651   */\n      dup4\n        /* \"#utility.yul\":14589:14656   */\n      tag_240\n      jump\t// in\n    tag_428:\n        /* \"#utility.yul\":14582:14656   */\n      swap2\n      pop\n        /* \"#utility.yul\":14665:14758   */\n      tag_429\n        /* \"#utility.yul\":14754:14757   */\n      dup3\n        /* \"#utility.yul\":14665:14758   */\n      tag_274\n      jump\t// in\n    tag_429:\n        /* \"#utility.yul\":14783:14785   */\n      0x20\n        /* \"#utility.yul\":14778:14781   */\n      dup3\n        /* \"#utility.yul\":14774:14786   */\n      add\n        /* \"#utility.yul\":14767:14786   */\n      swap1\n      pop\n        /* \"#utility.yul\":14426:14792   */\n      swap2\n      swap1\n      pop\n      jump\t// out\n        /* \"#utility.yul\":14798:15217   */\n    tag_190:\n        /* \"#utility.yul\":14964:14968   */\n      0x00\n        /* \"#utility.yul\":15002:15004   */\n      0x20\n        /* \"#utility.yul\":14991:15000   */\n      dup3\n        /* \"#utility.yul\":14987:15005   */\n      add\n        /* \"#utility.yul\":14979:15005   */\n      swap1\n      pop\n        /* \"#utility.yul\":15051:15060   */\n      dup2\n        /* \"#utility.yul\":15045:15049   */\n      dup2\n        /* \"#utility.yul\":15041:15061   */\n      sub\n        /* \"#utility.yul\":15037:15038   */\n      0x00\n        /* \"#utility.yul\":15026:15035   */\n      dup4\n        /* \"#utility.yul\":15022:15039   */\n      add\n        /* \"#utility.yul\":15015:15062   */\n      mstore\n        /* \"#utility.yul\":15079:15210   */\n      tag_431\n        /* \"#utility.yul\":15205:15209   */\n      dup2\n        /* \"#utility.yul\":15079:15210   */\n      tag_275\n      jump\t// in\n    tag_431:\n        /* \"#utility.yul\":15071:15210   */\n      swap1\n      pop\n        /* \"#utility.yul\":14798:15217   */\n      swap2\n      swap1\n      pop\n      jump\t// out\n        /* \"#utility.yul\":15223:15394   */\n    tag_276:\n        /* \"#utility.yul\":15363:15386   */\n      0x596f75206861766520616c726561647920736b696e0000000000000000000000\n        /* \"#utility.yul\":15359:15360   */\n      0x00\n        /* \"#utility.yul\":15351:15357   */\n      dup3\n        /* \"#utility.yul\":15347:15361   */\n      add\n        /* \"#utility.yul\":15340:15387   */\n      mstore\n        /* \"#utility.yul\":15223:15394   */\n      pop\n      jump\t// out\n        /* \"#utility.yul\":15400:15766   */\n    tag_277:\n        /* \"#utility.yul\":15542:15545   */\n      0x00\n        /* \"#utility.yul\":15563:15630   */\n      tag_434\n        /* \"#utility.yul\":15627:15629   */\n      0x15\n        /* \"#utility.yul\":15622:15625   */\n      dup4\n        /* \"#utility.yul\":15563:15630   */\n      tag_240\n      jump\t// in\n    tag_434:\n        /* \"#utility.yul\":15556:15630   */\n      swap2\n      pop\n        /* \"#utility.yul\":15639:15732   */\n      tag_435\n        /* \"#utility.yul\":15728:15731   */\n      dup3\n        /* \"#utility.yul\":15639:15732   */\n      tag_276\n      jump\t// in\n    tag_435:\n        /* \"#utility.yul\":15757:15759   */\n      0x20\n        /* \"#utility.yul\":15752:15755   */\n      dup3\n        /* \"#utility.yul\":15748:15760   */\n      add\n        /* \"#utility.yul\":15741:15760   */\n      swap1\n      pop\n        /* \"#utility.yul\":15400:15766   */\n      swap2\n      swap1\n      pop\n      jump\t// out\n        /* \"#utility.yul\":15772:16191   */\n    tag_193:\n        /* \"#utility.yul\":15938:15942   */\n      0x00\n        /* \"#utility.yul\":15976:15978   */\n      0x20\n        /* \"#utility.yul\":15965:15974   */\n      dup3\n        /* \"#utility.yul\":15961:15979   */\n      add\n        /* \"#utility.yul\":15953:15979   */\n      swap1\n      pop\n        /* \"#utility.yul\":16025:16034   */\n      dup2\n        /* \"#utility.yul\":16019:16023   */\n      dup2\n        /* \"#utility.yul\":16015:16035   */\n      sub\n        /* \"#utility.yul\":16011:16012   */\n      0x00\n        /* \"#utility.yul\":16000:16009   */\n      dup4\n        /* \"#utility.yul\":15996:16013   */\n      add\n        /* \"#utility.yul\":15989:16036   */\n      mstore\n        /* \"#utility.yul\":16053:16184   */\n      tag_437\n        /* \"#utility.yul\":16179:16183   */\n      dup2\n        /* \"#utility.yul\":16053:16184   */\n      tag_277\n      jump\t// in\n    tag_437:\n        /* \"#utility.yul\":16045:16184   */\n      swap1\n      pop\n        /* \"#utility.yul\":15772:16191   */\n      swap2\n      swap1\n      pop\n      jump\t// out\n        /* \"#utility.yul\":16197:16422   */\n    tag_278:\n        /* \"#utility.yul\":16337:16371   */\n      0x4f776e61626c653a206e6577206f776e657220697320746865207a65726f2061\n        /* \"#utility.yul\":16333:16334   */\n      0x00\n        /* \"#utility.yul\":16325:16331   */\n      dup3\n        /* \"#utility.yul\":16321:16335   */\n      add\n        /* \"#utility.yul\":16314:16372   */\n      mstore\n        /* \"#utility.yul\":16406:16414   */\n      0x6464726573730000000000000000000000000000000000000000000000000000\n        /* \"#utility.yul\":16401:16403   */\n      0x20\n        /* \"#utility.yul\":16393:16399   */\n      dup3\n        /* \"#utility.yul\":16389:16404   */\n      add\n        /* \"#utility.yul\":16382:16415   */\n      mstore\n        /* \"#utility.yul\":16197:16422   */\n      pop\n      jump\t// out\n        /* \"#utility.yul\":16428:16794   */\n    tag_279:\n        /* \"#utility.yul\":16570:16573   */\n      0x00\n        /* \"#utility.yul\":16591:16658   */\n      tag_440\n        /* \"#utility.yul\":16655:16657   */\n      0x26\n        /* \"#utility.yul\":16650:16653   */\n      dup4\n        /* \"#utility.yul\":16591:16658   */\n      tag_240\n      jump\t// in\n    tag_440:\n        /* \"#utility.yul\":16584:16658   */\n      swap2\n      pop\n        /* \"#utility.yul\":16667:16760   */\n      tag_441\n        /* \"#utility.yul\":16756:16759   */\n      dup3\n        /* \"#utility.yul\":16667:16760   */\n      tag_278\n      jump\t// in\n    tag_441:\n        /* \"#utility.yul\":16785:16787   */\n      0x40\n        /* \"#utility.yul\":16780:16783   */\n      dup3\n        /* \"#utility.yul\":16776:16788   */\n      add\n        /* \"#utility.yul\":16769:16788   */\n      swap1\n      pop\n        /* \"#utility.yul\":16428:16794   */\n      swap2\n      swap1\n      pop\n      jump\t// out\n        /* \"#utility.yul\":16800:17219   */\n    tag_205:\n        /* \"#utility.yul\":16966:16970   */\n      0x00\n        /* \"#utility.yul\":17004:17006   */\n      0x20\n        /* \"#utility.yul\":16993:17002   */\n      dup3\n        /* \"#utility.yul\":16989:17007   */\n      add\n        /* \"#utility.yul\":16981:17007   */\n      swap1\n      pop\n        /* \"#utility.yul\":17053:17062   */\n      dup2\n        /* \"#utility.yul\":17047:17051   */\n      dup2\n        /* \"#utility.yul\":17043:17063   */\n      sub\n        /* \"#utility.yul\":17039:17040   */\n      0x00\n        /* \"#utility.yul\":17028:17037   */\n      dup4\n        /* \"#utility.yul\":17024:17041   */\n      add\n        /* \"#utility.yul\":17017:17064   */\n      mstore\n        /* \"#utility.yul\":17081:17212   */\n      tag_443\n        /* \"#utility.yul\":17207:17211   */\n      dup2\n        /* \"#utility.yul\":17081:17212   */\n      tag_279\n      jump\t// in\n    tag_443:\n        /* \"#utility.yul\":17073:17212   */\n      swap1\n      pop\n        /* \"#utility.yul\":16800:17219   */\n      swap2\n      swap1\n      pop\n      jump\t// out\n        /* \"#utility.yul\":17225:17448   */\n    tag_280:\n        /* \"#utility.yul\":17365:17399   */\n      0x45524332303a20617070726f76652066726f6d20746865207a65726f20616464\n        /* \"#utility.yul\":17361:17362   */\n      0x00\n        /* \"#utility.yul\":17353:17359   */\n      dup3\n        /* \"#utility.yul\":17349:17363   */\n      add\n        /* \"#utility.yul\":17342:17400   */\n      mstore\n        /* \"#utility.yul\":17434:17440   */\n      0x7265737300000000000000000000000000000000000000000000000000000000\n        /* \"#utility.yul\":17429:17431   */\n      0x20\n        /* \"#utility.yul\":17421:17427   */\n      dup3\n        /* \"#utility.yul\":17417:17432   */\n      add\n        /* \"#utility.yul\":17410:17441   */\n      mstore\n        /* \"#utility.yul\":17225:17448   */\n      pop\n      jump\t// out\n        /* \"#utility.yul\":17454:17820   */\n    tag_281:\n        /* \"#utility.yul\":17596:17599   */\n      0x00\n        /* \"#utility.yul\":17617:17684   */\n      tag_446\n        /* \"#utility.yul\":17681:17683   */\n      0x24\n        /* \"#utility.yul\":17676:17679   */\n      dup4\n        /* \"#utility.yul\":17617:17684   */\n      tag_240\n      jump\t// in\n    tag_446:\n        /* \"#utility.yul\":17610:17684   */\n      swap2\n      pop\n        /* \"#utility.yul\":17693:17786   */\n      tag_447\n        /* \"#utility.yul\":17782:17785   */\n      dup3\n        /* \"#utility.yul\":17693:17786   */\n      tag_280\n      jump\t// in\n    tag_447:\n        /* \"#utility.yul\":17811:17813   */\n      0x40\n        /* \"#utility.yul\":17806:17809   */\n      dup3\n        /* \"#utility.yul\":17802:17814   */\n      add\n        /* \"#utility.yul\":17795:17814   */\n      swap1\n      pop\n        /* \"#utility.yul\":17454:17820   */\n      swap2\n      swap1\n      pop\n      jump\t// out\n        /* \"#utility.yul\":17826:18245   */\n    tag_210:\n        /* \"#utility.yul\":17992:17996   */\n      0x00\n        /* \"#utility.yul\":18030:18032   */\n      0x20\n        /* \"#utility.yul\":18019:18028   */\n      dup3\n        /* \"#utility.yul\":18015:18033   */\n      add\n        /* \"#utility.yul\":18007:18033   */\n      swap1\n      pop\n        /* \"#utility.yul\":18079:18088   */\n      dup2\n        /* \"#utility.yul\":18073:18077   */\n      dup2\n        /* \"#utility.yul\":18069:18089   */\n      sub\n        /* \"#utility.yul\":18065:18066   */\n      0x00\n        /* \"#utility.yul\":18054:18063   */\n      dup4\n        /* \"#utility.yul\":18050:18067   */\n      add\n        /* \"#utility.yul\":18043:18090   */\n      mstore\n        /* \"#utility.yul\":18107:18238   */\n      tag_449\n        /* \"#utility.yul\":18233:18237   */\n      dup2\n        /* \"#utility.yul\":18107:18238   */\n      tag_281\n      jump\t// in\n    tag_449:\n        /* \"#utility.yul\":18099:18238   */\n      swap1\n      pop\n        /* \"#utility.yul\":17826:18245   */\n      swap2\n      swap1\n      pop\n      jump\t// out\n        /* \"#utility.yul\":18251:18472   */\n    tag_282:\n        /* \"#utility.yul\":18391:18425   */\n      0x45524332303a20617070726f766520746f20746865207a65726f206164647265\n        /* \"#utility.yul\":18387:18388   */\n      0x00\n        /* \"#utility.yul\":18379:18385   */\n      dup3\n        /* \"#utility.yul\":18375:18389   */\n      add\n        /* \"#utility.yul\":18368:18426   */\n      mstore\n        /* \"#utility.yul\":18460:18464   */\n      0x7373000000000000000000000000000000000000000000000000000000000000\n        /* \"#utility.yul\":18455:18457   */\n      0x20\n        /* \"#utility.yul\":18447:18453   */\n      dup3\n        /* \"#utility.yul\":18443:18458   */\n      add\n        /* \"#utility.yul\":18436:18465   */\n      mstore\n        /* \"#utility.yul\":18251:18472   */\n      pop\n      jump\t// out\n        /* \"#utility.yul\":18478:18844   */\n    tag_283:\n        /* \"#utility.yul\":18620:18623   */\n      0x00\n        /* \"#utility.yul\":18641:18708   */\n      tag_452\n        /* \"#utility.yul\":18705:18707   */\n      0x22\n        /* \"#utility.yul\":18700:18703   */\n      dup4\n        /* \"#utility.yul\":18641:18708   */\n      tag_240\n      jump\t// in\n    tag_452:\n        /* \"#utility.yul\":18634:18708   */\n      swap2\n      pop\n        /* \"#utility.yul\":18717:18810   */\n      tag_453\n        /* \"#utility.yul\":18806:18809   */\n      dup3\n        /* \"#utility.yul\":18717:18810   */\n      tag_282\n      jump\t// in\n    tag_453:\n        /* \"#utility.yul\":18835:18837   */\n      0x40\n        /* \"#utility.yul\":18830:18833   */\n      dup3\n        /* \"#utility.yul\":18826:18838   */\n      add\n        /* \"#utility.yul\":18819:18838   */\n      swap1\n      pop\n        /* \"#utility.yul\":18478:18844   */\n      swap2\n      swap1\n      pop\n      jump\t// out\n        /* \"#utility.yul\":18850:19269   */\n    tag_213:\n        /* \"#utility.yul\":19016:19020   */\n      0x00\n        /* \"#utility.yul\":19054:19056   */\n      0x20\n        /* \"#utility.yul\":19043:19052   */\n      dup3\n        /* \"#utility.yul\":19039:19057   */\n      add\n        /* \"#utility.yul\":19031:19057   */\n      swap1\n      pop\n        /* \"#utility.yul\":19103:19112   */\n      dup2\n        /* \"#utility.yul\":19097:19101   */\n      dup2\n        /* \"#utility.yul\":19093:19113   */\n      sub\n        /* \"#utility.yul\":19089:19090   */\n      0x00\n        /* \"#utility.yul\":19078:19087   */\n      dup4\n        /* \"#utility.yul\":19074:19091   */\n      add\n        /* \"#utility.yul\":19067:19114   */\n      mstore\n        /* \"#utility.yul\":19131:19262   */\n      tag_455\n        /* \"#utility.yul\":19257:19261   */\n      dup2\n        /* \"#utility.yul\":19131:19262   */\n      tag_283\n      jump\t// in\n    tag_455:\n        /* \"#utility.yul\":19123:19262   */\n      swap1\n      pop\n        /* \"#utility.yul\":18850:19269   */\n      swap2\n      swap1\n      pop\n      jump\t// out\n        /* \"#utility.yul\":19275:19499   */\n    tag_284:\n        /* \"#utility.yul\":19415:19449   */\n      0x45524332303a207472616e736665722066726f6d20746865207a65726f206164\n        /* \"#utility.yul\":19411:19412   */\n      0x00\n        /* \"#utility.yul\":19403:19409   */\n      dup3\n        /* \"#utility.yul\":19399:19413   */\n      add\n        /* \"#utility.yul\":19392:19450   */\n      mstore\n        /* \"#utility.yul\":19484:19491   */\n      0x6472657373000000000000000000000000000000000000000000000000000000\n        /* \"#utility.yul\":19479:19481   */\n      0x20\n        /* \"#utility.yul\":19471:19477   */\n      dup3\n        /* \"#utility.yul\":19467:19482   */\n      add\n        /* \"#utility.yul\":19460:19492   */\n      mstore\n        /* \"#utility.yul\":19275:19499   */\n      pop\n      jump\t// out\n        /* \"#utility.yul\":19505:19871   */\n    tag_285:\n        /* \"#utility.yul\":19647:19650   */\n      0x00\n        /* \"#utility.yul\":19668:19735   */\n      tag_458\n        /* \"#utility.yul\":19732:19734   */\n      0x25\n        /* \"#utility.yul\":19727:19730   */\n      dup4\n        /* \"#utility.yul\":19668:19735   */\n      tag_240\n      jump\t// in\n    tag_458:\n        /* \"#utility.yul\":19661:19735   */\n      swap2\n      pop\n        /* \"#utility.yul\":19744:19837   */\n      tag_459\n        /* \"#utility.yul\":19833:19836   */\n      dup3\n        /* \"#utility.yul\":19744:19837   */\n      tag_284\n      jump\t// in\n    tag_459:\n        /* \"#utility.yul\":19862:19864   */\n      0x40\n        /* \"#utility.yul\":19857:19860   */\n      dup3\n        /* \"#utility.yul\":19853:19865   */\n      add\n        /* \"#utility.yul\":19846:19865   */\n      swap1\n      pop\n        /* \"#utility.yul\":19505:19871   */\n      swap2\n      swap1\n      pop\n      jump\t// out\n        /* \"#utility.yul\":19877:20296   */\n    tag_218:\n        /* \"#utility.yul\":20043:20047   */\n      0x00\n        /* \"#utility.yul\":20081:20083   */\n      0x20\n        /* \"#utility.yul\":20070:20079   */\n      dup3\n        /* \"#utility.yul\":20066:20084   */\n      add\n        /* \"#utility.yul\":20058:20084   */\n      swap1\n      pop\n        /* \"#utility.yul\":20130:20139   */\n      dup2\n        /* \"#utility.yul\":20124:20128   */\n      dup2\n        /* \"#utility.yul\":20120:20140   */\n      sub\n        /* \"#utility.yul\":20116:20117   */\n      0x00\n        /* \"#utility.yul\":20105:20114   */\n      dup4\n        /* \"#utility.yul\":20101:20118   */\n      add\n        /* \"#utility.yul\":20094:20141   */\n      mstore\n        /* \"#utility.yul\":20158:20289   */\n      tag_461\n        /* \"#utility.yul\":20284:20288   */\n      dup2\n        /* \"#utility.yul\":20158:20289   */\n      tag_285\n      jump\t// in\n    tag_461:\n        /* \"#utility.yul\":20150:20289   */\n      swap1\n      pop\n        /* \"#utility.yul\":19877:20296   */\n      swap2\n      swap1\n      pop\n      jump\t// out\n        /* \"#utility.yul\":20302:20524   */\n    tag_286:\n        /* \"#utility.yul\":20442:20476   */\n      0x45524332303a207472616e7366657220746f20746865207a65726f2061646472\n        /* \"#utility.yul\":20438:20439   */\n      0x00\n        /* \"#utility.yul\":20430:20436   */\n      dup3\n        /* \"#utility.yul\":20426:20440   */\n      add\n        /* \"#utility.yul\":20419:20477   */\n      mstore\n        /* \"#utility.yul\":20511:20516   */\n      0x6573730000000000000000000000000000000000000000000000000000000000\n        /* \"#utility.yul\":20506:20508   */\n      0x20\n        /* \"#utility.yul\":20498:20504   */\n      dup3\n        /* \"#utility.yul\":20494:20509   */\n      add\n        /* \"#utility.yul\":20487:20517   */\n      mstore\n        /* \"#utility.yul\":20302:20524   */\n      pop\n      jump\t// out\n        /* \"#utility.yul\":20530:20896   */\n    tag_287:\n        /* \"#utility.yul\":20672:20675   */\n      0x00\n        /* \"#utility.yul\":20693:20760   */\n      tag_464\n        /* \"#utility.yul\":20757:20759   */\n      0x23\n        /* \"#utility.yul\":20752:20755   */\n      dup4\n        /* \"#utility.yul\":20693:20760   */\n      tag_240\n      jump\t// in\n    tag_464:\n        /* \"#utility.yul\":20686:20760   */\n      swap2\n      pop\n        /* \"#utility.yul\":20769:20862   */\n      tag_465\n        /* \"#utility.yul\":20858:20861   */\n      dup3\n        /* \"#utility.yul\":20769:20862   */\n      tag_286\n      jump\t// in\n    tag_465:\n        /* \"#utility.yul\":20887:20889   */\n      0x40\n        /* \"#utility.yul\":20882:20885   */\n      dup3\n        /* \"#utility.yul\":20878:20890   */\n      add\n        /* \"#utility.yul\":20871:20890   */\n      swap1\n      pop\n        /* \"#utility.yul\":20530:20896   */\n      swap2\n      swap1\n      pop\n      jump\t// out\n        /* \"#utility.yul\":20902:21321   */\n    tag_221:\n        /* \"#utility.yul\":21068:21072   */\n      0x00\n        /* \"#utility.yul\":21106:21108   */\n      0x20\n        /* \"#utility.yul\":21095:21104   */\n      dup3\n        /* \"#utility.yul\":21091:21109   */\n      add\n        /* \"#utility.yul\":21083:21109   */\n      swap1\n      pop\n        /* \"#utility.yul\":21155:21164   */\n      dup2\n        /* \"#utility.yul\":21149:21153   */\n      dup2\n        /* \"#utility.yul\":21145:21165   */\n      sub\n        /* \"#utility.yul\":21141:21142   */\n      0x00\n        /* \"#utility.yul\":21130:21139   */\n      dup4\n        /* \"#utility.yul\":21126:21143   */\n      add\n        /* \"#utility.yul\":21119:21166   */\n      mstore\n        /* \"#utility.yul\":21183:21314   */\n      tag_467\n        /* \"#utility.yul\":21309:21313   */\n      dup2\n        /* \"#utility.yul\":21183:21314   */\n      tag_287\n      jump\t// in\n    tag_467:\n        /* \"#utility.yul\":21175:21314   */\n      swap1\n      pop\n        /* \"#utility.yul\":20902:21321   */\n      swap2\n      swap1\n      pop\n      jump\t// out\n        /* \"#utility.yul\":21327:21552   */\n    tag_288:\n        /* \"#utility.yul\":21467:21501   */\n      0x45524332303a207472616e7366657220616d6f756e7420657863656564732062\n        /* \"#utility.yul\":21463:21464   */\n      0x00\n        /* \"#utility.yul\":21455:21461   */\n      dup3\n        /* \"#utility.yul\":21451:21465   */\n      add\n        /* \"#utility.yul\":21444:21502   */\n      mstore\n        /* \"#utility.yul\":21536:21544   */\n      0x616c616e63650000000000000000000000000000000000000000000000000000\n        /* \"#utility.yul\":21531:21533   */\n      0x20\n        /* \"#utility.yul\":21523:21529   */\n      dup3\n        /* \"#utility.yul\":21519:21534   */\n      add\n        /* \"#utility.yul\":21512:21545   */\n      mstore\n        /* \"#utility.yul\":21327:21552   */\n      pop\n      jump\t// out\n        /* \"#utility.yul\":21558:21924   */\n    tag_289:\n        /* \"#utility.yul\":21700:21703   */\n      0x00\n        /* \"#utility.yul\":21721:21788   */\n      tag_470\n        /* \"#utility.yul\":21785:21787   */\n      0x26\n        /* \"#utility.yul\":21780:21783   */\n      dup4\n        /* \"#utility.yul\":21721:21788   */\n      tag_240\n      jump\t// in\n    tag_470:\n        /* \"#utility.yul\":21714:21788   */\n      swap2\n      pop\n        /* \"#utility.yul\":21797:21890   */\n      tag_471\n        /* \"#utility.yul\":21886:21889   */\n      dup3\n        /* \"#utility.yul\":21797:21890   */\n      tag_288\n      jump\t// in\n    tag_471:\n        /* \"#utility.yul\":21915:21917   */\n      0x40\n        /* \"#utility.yul\":21910:21913   */\n      dup3\n        /* \"#utility.yul\":21906:21918   */\n      add\n        /* \"#utility.yul\":21899:21918   */\n      swap1\n      pop\n        /* \"#utility.yul\":21558:21924   */\n      swap2\n      swap1\n      pop\n      jump\t// out\n        /* \"#utility.yul\":21930:22349   */\n    tag_226:\n        /* \"#utility.yul\":22096:22100   */\n      0x00\n        /* \"#utility.yul\":22134:22136   */\n      0x20\n        /* \"#utility.yul\":22123:22132   */\n      dup3\n        /* \"#utility.yul\":22119:22137   */\n      add\n        /* \"#utility.yul\":22111:22137   */\n      swap1\n      pop\n        /* \"#utility.yul\":22183:22192   */\n      dup2\n        /* \"#utility.yul\":22177:22181   */\n      dup2\n        /* \"#utility.yul\":22173:22193   */\n      sub\n        /* \"#utility.yul\":22169:22170   */\n      0x00\n        /* \"#utility.yul\":22158:22167   */\n      dup4\n        /* \"#utility.yul\":22154:22171   */\n      add\n        /* \"#utility.yul\":22147:22194   */\n      mstore\n        /* \"#utility.yul\":22211:22342   */\n      tag_473\n        /* \"#utility.yul\":22337:22341   */\n      dup2\n        /* \"#utility.yul\":22211:22342   */\n      tag_289\n      jump\t// in\n    tag_473:\n        /* \"#utility.yul\":22203:22342   */\n      swap1\n      pop\n        /* \"#utility.yul\":21930:22349   */\n      swap2\n      swap1\n      pop\n      jump\t// out\n        /* \"#utility.yul\":22355:22536   */\n    tag_290:\n        /* \"#utility.yul\":22495:22528   */\n      0x45524332303a206d696e7420746f20746865207a65726f206164647265737300\n        /* \"#utility.yul\":22491:22492   */\n      0x00\n        /* \"#utility.yul\":22483:22489   */\n      dup3\n        /* \"#utility.yul\":22479:22493   */\n      add\n        /* \"#utility.yul\":22472:22529   */\n      mstore\n        /* \"#utility.yul\":22355:22536   */\n      pop\n      jump\t// out\n        /* \"#utility.yul\":22542:22908   */\n    tag_291:\n        /* \"#utility.yul\":22684:22687   */\n      0x00\n        /* \"#utility.yul\":22705:22772   */\n      tag_476\n        /* \"#utility.yul\":22769:22771   */\n      0x1f\n        /* \"#utility.yul\":22764:22767   */\n      dup4\n        /* \"#utility.yul\":22705:22772   */\n      tag_240\n      jump\t// in\n    tag_476:\n        /* \"#utility.yul\":22698:22772   */\n      swap2\n      pop\n        /* \"#utility.yul\":22781:22874   */\n      tag_477\n        /* \"#utility.yul\":22870:22873   */\n      dup3\n        /* \"#utility.yul\":22781:22874   */\n      tag_290\n      jump\t// in\n    tag_477:\n        /* \"#utility.yul\":22899:22901   */\n      0x20\n        /* \"#utility.yul\":22894:22897   */\n      dup3\n        /* \"#utility.yul\":22890:22902   */\n      add\n        /* \"#utility.yul\":22883:22902   */\n      swap1\n      pop\n        /* \"#utility.yul\":22542:22908   */\n      swap2\n      swap1\n      pop\n      jump\t// out\n        /* \"#utility.yul\":22914:23333   */\n    tag_233:\n        /* \"#utility.yul\":23080:23084   */\n      0x00\n        /* \"#utility.yul\":23118:23120   */\n      0x20\n        /* \"#utility.yul\":23107:23116   */\n      dup3\n        /* \"#utility.yul\":23103:23121   */\n      add\n        /* \"#utility.yul\":23095:23121   */\n      swap1\n      pop\n        /* \"#utility.yul\":23167:23176   */\n      dup2\n        /* \"#utility.yul\":23161:23165   */\n      dup2\n        /* \"#utility.yul\":23157:23177   */\n      sub\n        /* \"#utility.yul\":23153:23154   */\n      0x00\n        /* \"#utility.yul\":23142:23151   */\n      dup4\n        /* \"#utility.yul\":23138:23155   */\n      add\n        /* \"#utility.yul\":23131:23178   */\n      mstore\n        /* \"#utility.yul\":23195:23326   */\n      tag_479\n        /* \"#utility.yul\":23321:23325   */\n      dup2\n        /* \"#utility.yul\":23195:23326   */\n      tag_291\n      jump\t// in\n    tag_479:\n        /* \"#utility.yul\":23187:23326   */\n      swap1\n      pop\n        /* \"#utility.yul\":22914:23333   */\n      swap2\n      swap1\n      pop\n      jump\t// out\n\n    auxdata: 0xa2646970667358221220082cfeb249eb288ef309089341689f91c38bbb31adbac89e24efd6b6ae430c7464736f6c63430008120033\n}\n",
				"bytecode": {
					"linkReferences": {},
					"object": "60806040523480156200001157600080fd5b5060405162002b2538038062002b25833981810160405281019062000037919062000409565b6040518060400160405280600881526020017f47544e546f6b656e0000000000000000000000000000000000000000000000008152506040518060400160405280600381526020017f47544e00000000000000000000000000000000000000000000000000000000008152508160039081620000b49190620006ab565b508060049081620000c69190620006ab565b5050506000620000db6200025860201b60201c565b905080600560006101000a81548173ffffffffffffffffffffffffffffffffffffffff021916908373ffffffffffffffffffffffffffffffffffffffff1602179055508073ffffffffffffffffffffffffffffffffffffffff16600073ffffffffffffffffffffffffffffffffffffffff167f8be0079c531659141344cd1fd0a4f28419497f9722a3daafe3b4186f6b6457e060405160405180910390a3506200018c33826200026060201b60201c565b671bc16d674ec8000060066000808152602001908152602001600020819055506729a2241af62c0000600660006001815260200190815260200160002081905550671bc16d674ec80000600660006002815260200190815260200160002081905550673782dace9d900000600660006003815260200190815260200160002081905550674563918244f400006006600060048152602001908152602001600020819055506753444835ec58000060066000600581526020019081526020016000208190555050620008ad565b600033905090565b600073ffffffffffffffffffffffffffffffffffffffff168273ffffffffffffffffffffffffffffffffffffffff1603620002d2576040517f08c379a0000000000000000000000000000000000000000000000000000000008152600401620002c990620007f3565b60405180910390fd5b620002e660008383620003c460201b60201c565b8060026000828254620002fa919062000844565b92505081905550806000808473ffffffffffffffffffffffffffffffffffffffff1673ffffffffffffffffffffffffffffffffffffffff168152602001908152602001600020600082825462000351919062000844565b925050819055508173ffffffffffffffffffffffffffffffffffffffff16600073ffffffffffffffffffffffffffffffffffffffff167fddf252ad1be2c89b69c2b068fc378daa952ba7f163c4a11628f55a4df523b3ef83604051620003b8919062000890565b60405180910390a35050565b505050565b600080fd5b6000819050919050565b620003e381620003ce565b8114620003ef57600080fd5b50565b6000815190506200040381620003d8565b92915050565b600060208284031215620004225762000421620003c9565b5b60006200043284828501620003f2565b91505092915050565b600081519050919050565b7f4e487b7100000000000000000000000000000000000000000000000000000000600052604160045260246000fd5b7f4e487b7100000000000000000000000000000000000000000000000000000000600052602260045260246000fd5b60006002820490506001821680620004bd57607f821691505b602082108103620004d357620004d262000475565b5b50919050565b60008190508160005260206000209050919050565b60006020601f8301049050919050565b600082821b905092915050565b6000600883026200053d7fffffffffffffffffffffffffffffffffffffffffffffffffffffffffffffffff82620004fe565b620005498683620004fe565b95508019841693508086168417925050509392505050565b6000819050919050565b60006200058c620005866200058084620003ce565b62000561565b620003ce565b9050919050565b6000819050919050565b620005a8836200056b565b620005c0620005b78262000593565b8484546200050b565b825550505050565b600090565b620005d7620005c8565b620005e48184846200059d565b505050565b5b818110156200060c5762000600600082620005cd565b600181019050620005ea565b5050565b601f8211156200065b576200062581620004d9565b6200063084620004ee565b8101602085101562000640578190505b620006586200064f85620004ee565b830182620005e9565b50505b505050565b600082821c905092915050565b6000620006806000198460080262000660565b1980831691505092915050565b60006200069b83836200066d565b9150826002028217905092915050565b620006b6826200043b565b67ffffffffffffffff811115620006d257620006d162000446565b5b620006de8254620004a4565b620006eb82828562000610565b600060209050601f8311600181146200072357600084156200070e578287015190505b6200071a85826200068d565b8655506200078a565b601f1984166200073386620004d9565b60005b828110156200075d5784890151825560018201915060208501945060208101905062000736565b868310156200077d578489015162000779601f8916826200066d565b8355505b6001600288020188555050505b505050505050565b600082825260208201905092915050565b7f45524332303a206d696e7420746f20746865207a65726f206164647265737300600082015250565b6000620007db601f8362000792565b9150620007e882620007a3565b602082019050919050565b600060208201905081810360008301526200080e81620007cc565b9050919050565b7f4e487b7100000000000000000000000000000000000000000000000000000000600052601160045260246000fd5b60006200085182620003ce565b91506200085e83620003ce565b925082820190508082111562000879576200087862000815565b5b92915050565b6200088a81620003ce565b82525050565b6000602082019050620008a760008301846200087f565b92915050565b61226880620008bd6000396000f3fe608060405234801561001057600080fd5b506004361061012c5760003560e01c8063715018a6116100ad578063bf91ad9e11610071578063bf91ad9e1461036d578063c2b3b3c71461039d578063dd62ed3e146103b9578063e7fb74c7146103e9578063f2fde38b146104055761012c565b8063715018a6146102c75780638da5cb5b146102d157806395d89b41146102ef578063a457c2d71461030d578063a9059cbb1461033d5761012c565b806323b872dd116100f457806323b872dd146101fd578063313ce5671461022d578063395093511461024b5780634229c35e1461027b57806370a08231146102975761012c565b806306fdde0314610131578063095ea7b31461014f57806318160ddd1461017f578063209936fe1461019d5780632293e27c146101cd575b600080fd5b610139610421565b60405161014691906116a5565b60405180910390f35b61016960048036038101906101649190611760565b6104b3565b60405161017691906117bb565b60405180910390f35b6101876104d1565b60405161019491906117e5565b60405180910390f35b6101b760048036038101906101b29190611760565b6104db565b6040516101c491906117bb565b60405180910390f35b6101e760048036038101906101e29190611760565b61050a565b6040516101f491906117bb565b60405180910390f35b61021760048036038101906102129190611800565b610572565b60405161022491906117bb565b60405180910390f35b610235610673565b604051610242919061186f565b60405180910390f35b61026560048036038101906102609190611760565b61067c565b60405161027291906117bb565b60405180910390f35b6102956004803603810190610290919061188a565b610728565b005b6102b160048036038101906102ac91906118ca565b61083c565b6040516102be91906117e5565b60405180910390f35b6102cf610884565b005b6102d96109c1565b6040516102e69190611906565b60405180910390f35b6102f76109eb565b60405161030491906116a5565b60405180910390f35b61032760048036038101906103229190611760565b610a7d565b60405161033491906117bb565b60405180910390f35b61035760048036038101906103529190611760565b610b71565b60405161036491906117bb565b60405180910390f35b61038760048036038101906103829190611921565b610b8f565b60405161039491906117e5565b60405180910390f35b6103b760048036038101906103b29190611760565b610ba7565b005b6103d360048036038101906103ce919061194e565b610bb5565b6040516103e091906117e5565b60405180910390f35b61040360048036038101906103fe9190611921565b610c3c565b005b61041f600480360381019061041a91906118ca565b610ec4565b005b606060038054610430906119bd565b80601f016020809104026020016040519081016040528092919081815260200182805461045c906119bd565b80156104a95780601f1061047e576101008083540402835291602001916104a9565b820191906000526020600020905b81548152906001019060200180831161048c57829003601f168201915b5050505050905090565b60006104c76104c061106f565b8484611077565b6001905092915050565b6000600254905090565b60076020528160005260406000206020528060005260406000206000915091509054906101000a900460ff1681565b6000600760008473ffffffffffffffffffffffffffffffffffffffff1673ffffffffffffffffffffffffffffffffffffffff168152602001908152602001600020600083815260200190815260200160002060009054906101000a900460ff16905092915050565b600061057f848484611240565b6000600160008673ffffffffffffffffffffffffffffffffffffffff1673ffffffffffffffffffffffffffffffffffffffff16815260200190815260200160002060006105ca61106f565b73ffffffffffffffffffffffffffffffffffffffff1673ffffffffffffffffffffffffffffffffffffffff1681526020019081526020016000205490508281101561064a576040517f08c379a000000000000000000000000000000000000000000000000000000000815260040161064190611a60565b60405180910390fd5b6106678561065661106f565b85846106629190611aaf565b611077565b60019150509392505050565b60006012905090565b600061071e61068961106f565b84846001600061069761106f565b73ffffffffffffffffffffffffffffffffffffffff1673ffffffffffffffffffffffffffffffffffffffff16815260200190815260200160002060008873ffffffffffffffffffffffffffffffffffffffff1673ffffffffffffffffffffffffffffffffffffffff168152602001908152602001600020546107199190611ae3565b611077565b6001905092915050565b61073061106f565b73ffffffffffffffffffffffffffffffffffffffff1661074e6109c1565b73ffffffffffffffffffffffffffffffffffffffff16146107a4576040517f08c379a000000000000000000000000000000000000000000000000000000000815260040161079b90611b63565b60405180910390fd5b600081116107e7576040517f08c379a00000000000000000000000000000000000000000000000000000000081526004016107de90611bcf565b60405180910390fd5b8060066000848152602001908152602001600020819055507f53973a0aa9eb26609e2a6bb41f5235722e699b14e88f6eb24fc85c51167529d88282604051610830929190611bef565b60405180910390a15050565b60008060008373ffffffffffffffffffffffffffffffffffffffff1673ffffffffffffffffffffffffffffffffffffffff168152602001908152602001600020549050919050565b61088c61106f565b73ffffffffffffffffffffffffffffffffffffffff166108aa6109c1565b73ffffffffffffffffffffffffffffffffffffffff1614610900576040517f08c379a00000000000000000000000000000000000000000000000000000000081526004016108f790611b63565b60405180910390fd5b600073ffffffffffffffffffffffffffffffffffffffff16600560009054906101000a900473ffffffffffffffffffffffffffffffffffffffff1673ffffffffffffffffffffffffffffffffffffffff167f8be0079c531659141344cd1fd0a4f28419497f9722a3daafe3b4186f6b6457e060405160405180910390a36000600560006101000a81548173ffffffffffffffffffffffffffffffffffffffff021916908373ffffffffffffffffffffffffffffffffffffffff160217905550565b6000600560009054906101000a900473ffffffffffffffffffffffffffffffffffffffff16905090565b6060600480546109fa906119bd565b80601f0160208091040260200160405190810160405280929190818152602001828054610a26906119bd565b8015610a735780601f10610a4857610100808354040283529160200191610a73565b820191906000526020600020905b815481529060010190602001808311610a5657829003601f168201915b5050505050905090565b60008060016000610a8c61106f565b73ffffffffffffffffffffffffffffffffffffffff1673ffffffffffffffffffffffffffffffffffffffff16815260200190815260200160002060008573ffffffffffffffffffffffffffffffffffffffff1673ffffffffffffffffffffffffffffffffffffffff16815260200190815260200160002054905082811015610b49576040517f08c379a0000000000000000000000000000000000000000000000000000000008152600401610b4090611c8a565b60405180910390fd5b610b66610b5461106f565b858584610b619190611aaf565b611077565b600191505092915050565b6000610b85610b7e61106f565b8484611240565b6001905092915050565b60066020528060005260406000206000915090505481565b610bb182826114bd565b5050565b6000600160008473ffffffffffffffffffffffffffffffffffffffff1673ffffffffffffffffffffffffffffffffffffffff16815260200190815260200160002060008373ffffffffffffffffffffffffffffffffffffffff1673ffffffffffffffffffffffffffffffffffffffff16815260200190815260200160002054905092915050565b60006006600083815260200190815260200160002054905060008111610c97576040517f08c379a0000000000000000000000000000000000000000000000000000000008152600401610c8e90611cf6565b60405180910390fd5b610c9f6109c1565b73ffffffffffffffffffffffffffffffffffffffff163373ffffffffffffffffffffffffffffffffffffffff1603610d0c576040517f08c379a0000000000000000000000000000000000000000000000000000000008152600401610d0390611d62565b60405180910390fd5b80610d163361083c565b1015610d57576040517f08c379a0000000000000000000000000000000000000000000000000000000008152600401610d4e90611dce565b60405180910390fd5b600760003373ffffffffffffffffffffffffffffffffffffffff1673ffffffffffffffffffffffffffffffffffffffff168152602001908152602001600020600083815260200190815260200160002060009054906101000a900460ff1615610df5576040517f08c379a0000000000000000000000000000000000000000000000000000000008152600401610dec90611e3a565b60405180910390fd5b610e0733610e016109c1565b83611240565b6001600760003373ffffffffffffffffffffffffffffffffffffffff1673ffffffffffffffffffffffffffffffffffffffff168152602001908152602001600020600084815260200190815260200160002060006101000a81548160ff0219169083151502179055503373ffffffffffffffffffffffffffffffffffffffff167ffe2094c9ff56716cb07edf0cff82da158f346cb3bb2d89703228ab4eb0c329b68383604051610eb8929190611bef565b60405180910390a25050565b610ecc61106f565b73ffffffffffffffffffffffffffffffffffffffff16610eea6109c1565b73ffffffffffffffffffffffffffffffffffffffff1614610f40576040517f08c379a0000000000000000000000000000000000000000000000000000000008152600401610f3790611b63565b60405180910390fd5b600073ffffffffffffffffffffffffffffffffffffffff168173ffffffffffffffffffffffffffffffffffffffff1603610faf576040517f08c379a0000000000000000000000000000000000000000000000000000000008152600401610fa690611ecc565b60405180910390fd5b8073ffffffffffffffffffffffffffffffffffffffff16600560009054906101000a900473ffffffffffffffffffffffffffffffffffffffff1673ffffffffffffffffffffffffffffffffffffffff167f8be0079c531659141344cd1fd0a4f28419497f9722a3daafe3b4186f6b6457e060405160405180910390a380600560006101000a81548173ffffffffffffffffffffffffffffffffffffffff021916908373ffffffffffffffffffffffffffffffffffffffff16021790555050565b600033905090565b600073ffffffffffffffffffffffffffffffffffffffff168373ffffffffffffffffffffffffffffffffffffffff16036110e6576040517f08c379a00000000000000000000000000000000000000000000000000000000081526004016110dd90611f5e565b60405180910390fd5b600073ffffffffffffffffffffffffffffffffffffffff168273ffffffffffffffffffffffffffffffffffffffff1603611155576040517f08c379a000000000000000000000000000000000000000000000000000000000815260040161114c90611ff0565b60405180910390fd5b80600160008573ffffffffffffffffffffffffffffffffffffffff1673ffffffffffffffffffffffffffffffffffffffff16815260200190815260200160002060008473ffffffffffffffffffffffffffffffffffffffff1673ffffffffffffffffffffffffffffffffffffffff168152602001908152602001600020819055508173ffffffffffffffffffffffffffffffffffffffff168373ffffffffffffffffffffffffffffffffffffffff167f8c5be1e5ebec7d5bd14f71427d1e84f3dd0314c0f7b2291e5b200ac8c7c3b9258360405161123391906117e5565b60405180910390a3505050565b600073ffffffffffffffffffffffffffffffffffffffff168373ffffffffffffffffffffffffffffffffffffffff16036112af576040517f08c379a00000000000000000000000000000000000000000000000000000000081526004016112a690612082565b60405180910390fd5b600073ffffffffffffffffffffffffffffffffffffffff168273ffffffffffffffffffffffffffffffffffffffff160361131e576040517f08c379a000000000000000000000000000000000000000000000000000000000815260040161131590612114565b60405180910390fd5b611329838383611610565b60008060008573ffffffffffffffffffffffffffffffffffffffff1673ffffffffffffffffffffffffffffffffffffffff168152602001908152602001600020549050818110156113af576040517f08c379a00000000000000000000000000000000000000000000000000000000081526004016113a6906121a6565b60405180910390fd5b81816113bb9190611aaf565b6000808673ffffffffffffffffffffffffffffffffffffffff1673ffffffffffffffffffffffffffffffffffffffff16815260200190815260200160002081905550816000808573ffffffffffffffffffffffffffffffffffffffff1673ffffffffffffffffffffffffffffffffffffffff168152602001908152602001600020600082825461144b9190611ae3565b925050819055508273ffffffffffffffffffffffffffffffffffffffff168473ffffffffffffffffffffffffffffffffffffffff167fddf252ad1be2c89b69c2b068fc378daa952ba7f163c4a11628f55a4df523b3ef846040516114af91906117e5565b60405180910390a350505050565b600073ffffffffffffffffffffffffffffffffffffffff168273ffffffffffffffffffffffffffffffffffffffff160361152c576040517f08c379a000000000000000000000000000000000000000000000000000000000815260040161152390612212565b60405180910390fd5b61153860008383611610565b806002600082825461154a9190611ae3565b92505081905550806000808473ffffffffffffffffffffffffffffffffffffffff1673ffffffffffffffffffffffffffffffffffffffff168152602001908152602001600020600082825461159f9190611ae3565b925050819055508173ffffffffffffffffffffffffffffffffffffffff16600073ffffffffffffffffffffffffffffffffffffffff167fddf252ad1be2c89b69c2b068fc378daa952ba7f163c4a11628f55a4df523b3ef8360405161160491906117e5565b60405180910390a35050565b505050565b600081519050919050565b600082825260208201905092915050565b60005b8381101561164f578082015181840152602081019050611634565b60008484015250505050565b6000601f19601f8301169050919050565b600061167782611615565b6116818185611620565b9350611691818560208601611631565b61169a8161165b565b840191505092915050565b600060208201905081810360008301526116bf818461166c565b905092915050565b600080fd5b600073ffffffffffffffffffffffffffffffffffffffff82169050919050565b60006116f7826116cc565b9050919050565b611707816116ec565b811461171257600080fd5b50565b600081359050611724816116fe565b92915050565b6000819050919050565b61173d8161172a565b811461174857600080fd5b50565b60008135905061175a81611734565b92915050565b60008060408385031215611777576117766116c7565b5b600061178585828601611715565b92505060206117968582860161174b565b9150509250929050565b60008115159050919050565b6117b5816117a0565b82525050565b60006020820190506117d060008301846117ac565b92915050565b6117df8161172a565b82525050565b60006020820190506117fa60008301846117d6565b92915050565b600080600060608486031215611819576118186116c7565b5b600061182786828701611715565b935050602061183886828701611715565b92505060406118498682870161174b565b9150509250925092565b600060ff82169050919050565b61186981611853565b82525050565b60006020820190506118846000830184611860565b92915050565b600080604083850312156118a1576118a06116c7565b5b60006118af8582860161174b565b92505060206118c08582860161174b565b9150509250929050565b6000602082840312156118e0576118df6116c7565b5b60006118ee84828501611715565b91505092915050565b611900816116ec565b82525050565b600060208201905061191b60008301846118f7565b92915050565b600060208284031215611937576119366116c7565b5b60006119458482850161174b565b91505092915050565b60008060408385031215611965576119646116c7565b5b600061197385828601611715565b925050602061198485828601611715565b9150509250929050565b7f4e487b7100000000000000000000000000000000000000000000000000000000600052602260045260246000fd5b600060028204905060018216806119d557607f821691505b6020821081036119e8576119e761198e565b5b50919050565b7f45524332303a207472616e7366657220616d6f756e742065786365656473206160008201527f6c6c6f77616e6365000000000000000000000000000000000000000000000000602082015250565b6000611a4a602883611620565b9150611a55826119ee565b604082019050919050565b60006020820190508181036000830152611a7981611a3d565b9050919050565b7f4e487b7100000000000000000000000000000000000000000000000000000000600052601160045260246000fd5b6000611aba8261172a565b9150611ac58361172a565b9250828203905081811115611add57611adc611a80565b5b92915050565b6000611aee8261172a565b9150611af98361172a565b9250828201905080821115611b1157611b10611a80565b5b92915050565b7f4f776e61626c653a2063616c6c6572206973206e6f7420746865206f776e6572600082015250565b6000611b4d602083611620565b9150611b5882611b17565b602082019050919050565b60006020820190508181036000830152611b7c81611b40565b9050919050565b7f5072696365206d7573742062652067726561746572207468616e203000000000600082015250565b6000611bb9601c83611620565b9150611bc482611b83565b602082019050919050565b60006020820190508181036000830152611be881611bac565b9050919050565b6000604082019050611c0460008301856117d6565b611c1160208301846117d6565b9392505050565b7f45524332303a2064656372656173656420616c6c6f77616e63652062656c6f7760008201527f207a65726f000000000000000000000000000000000000000000000000000000602082015250565b6000611c74602583611620565b9150611c7f82611c18565b604082019050919050565b60006020820190508181036000830152611ca381611c67565b9050919050565b7f54686973206974656d206973206e6f7420666f722073616c6500000000000000600082015250565b6000611ce0601983611620565b9150611ceb82611caa565b602082019050919050565b60006020820190508181036000830152611d0f81611cd3565b9050919050565b7f41646d696e2063616e6e6f7420627579206974656d7321000000000000000000600082015250565b6000611d4c601783611620565b9150611d5782611d16565b602082019050919050565b60006020820190508181036000830152611d7b81611d3f565b9050919050565b7f496e73756666696369656e742047544e2062616c616e63652100000000000000600082015250565b6000611db8601983611620565b9150611dc382611d82565b602082019050919050565b60006020820190508181036000830152611de781611dab565b9050919050565b7f596f75206861766520616c726561647920736b696e0000000000000000000000600082015250565b6000611e24601583611620565b9150611e2f82611dee565b602082019050919050565b60006020820190508181036000830152611e5381611e17565b9050919050565b7f4f776e61626c653a206e6577206f776e657220697320746865207a65726f206160008201527f6464726573730000000000000000000000000000000000000000000000000000602082015250565b6000611eb6602683611620565b9150611ec182611e5a565b604082019050919050565b60006020820190508181036000830152611ee581611ea9565b9050919050565b7f45524332303a20617070726f76652066726f6d20746865207a65726f2061646460008201527f7265737300000000000000000000000000000000000000000000000000000000602082015250565b6000611f48602483611620565b9150611f5382611eec565b604082019050919050565b60006020820190508181036000830152611f7781611f3b565b9050919050565b7f45524332303a20617070726f766520746f20746865207a65726f20616464726560008201527f7373000000000000000000000000000000000000000000000000000000000000602082015250565b6000611fda602283611620565b9150611fe582611f7e565b604082019050919050565b6000602082019050818103600083015261200981611fcd565b9050919050565b7f45524332303a207472616e736665722066726f6d20746865207a65726f20616460008201527f6472657373000000000000000000000000000000000000000000000000000000602082015250565b600061206c602583611620565b915061207782612010565b604082019050919050565b6000602082019050818103600083015261209b8161205f565b9050919050565b7f45524332303a207472616e7366657220746f20746865207a65726f206164647260008201527f6573730000000000000000000000000000000000000000000000000000000000602082015250565b60006120fe602383611620565b9150612109826120a2565b604082019050919050565b6000602082019050818103600083015261212d816120f1565b9050919050565b7f45524332303a207472616e7366657220616d6f756e742065786365656473206260008201527f616c616e63650000000000000000000000000000000000000000000000000000602082015250565b6000612190602683611620565b915061219b82612134565b604082019050919050565b600060208201905081810360008301526121bf81612183565b9050919050565b7f45524332303a206d696e7420746f20746865207a65726f206164647265737300600082015250565b60006121fc601f83611620565b9150612207826121c6565b602082019050919050565b6000602082019050818103600083015261222b816121ef565b905091905056fea2646970667358221220082cfeb249eb288ef309089341689f91c38bbb31adbac89e24efd6b6ae430c7464736f6c63430008120033",
					"opcodes": "PUSH1 0x80 PUSH1 0x40 MSTORE CALLVALUE DUP1 ISZERO PUSH3 0x11 JUMPI PUSH1 0x0 DUP1 REVERT JUMPDEST POP PUSH1 0x40 MLOAD PUSH3 0x2B25 CODESIZE SUB DUP1 PUSH3 0x2B25 DUP4 CODECOPY DUP2 DUP2 ADD PUSH1 0x40 MSTORE DUP2 ADD SWAP1 PUSH3 0x37 SWAP2 SWAP1 PUSH3 0x409 JUMP JUMPDEST PUSH1 0x40 MLOAD DUP1 PUSH1 0x40 ADD PUSH1 0x40 MSTORE DUP1 PUSH1 0x8 DUP2 MSTORE PUSH1 0x20 ADD PUSH32 0x47544E546F6B656E000000000000000000000000000000000000000000000000 DUP2 MSTORE POP PUSH1 0x40 MLOAD DUP1 PUSH1 0x40 ADD PUSH1 0x40 MSTORE DUP1 PUSH1 0x3 DUP2 MSTORE PUSH1 0x20 ADD PUSH32 0x47544E0000000000000000000000000000000000000000000000000000000000 DUP2 MSTORE POP DUP2 PUSH1 0x3 SWAP1 DUP2 PUSH3 0xB4 SWAP2 SWAP1 PUSH3 0x6AB JUMP JUMPDEST POP DUP1 PUSH1 0x4 SWAP1 DUP2 PUSH3 0xC6 SWAP2 SWAP1 PUSH3 0x6AB JUMP JUMPDEST POP POP POP PUSH1 0x0 PUSH3 0xDB PUSH3 0x258 PUSH1 0x20 SHL PUSH1 0x20 SHR JUMP JUMPDEST SWAP1 POP DUP1 PUSH1 0x5 PUSH1 0x0 PUSH2 0x100 EXP DUP2 SLOAD DUP2 PUSH20 0xFFFFFFFFFFFFFFFFFFFFFFFFFFFFFFFFFFFFFFFF MUL NOT AND SWAP1 DUP4 PUSH20 0xFFFFFFFFFFFFFFFFFFFFFFFFFFFFFFFFFFFFFFFF AND MUL OR SWAP1 SSTORE POP DUP1 PUSH20 0xFFFFFFFFFFFFFFFFFFFFFFFFFFFFFFFFFFFFFFFF AND PUSH1 0x0 PUSH20 0xFFFFFFFFFFFFFFFFFFFFFFFFFFFFFFFFFFFFFFFF AND PUSH32 0x8BE0079C531659141344CD1FD0A4F28419497F9722A3DAAFE3B4186F6B6457E0 PUSH1 0x40 MLOAD PUSH1 0x40 MLOAD DUP1 SWAP2 SUB SWAP1 LOG3 POP PUSH3 0x18C CALLER DUP3 PUSH3 0x260 PUSH1 0x20 SHL PUSH1 0x20 SHR JUMP JUMPDEST PUSH8 0x1BC16D674EC80000 PUSH1 0x6 PUSH1 0x0 DUP1 DUP2 MSTORE PUSH1 0x20 ADD SWAP1 DUP2 MSTORE PUSH1 0x20 ADD PUSH1 0x0 KECCAK256 DUP2 SWAP1 SSTORE POP PUSH8 0x29A2241AF62C0000 PUSH1 0x6 PUSH1 0x0 PUSH1 0x1 DUP2 MSTORE PUSH1 0x20 ADD SWAP1 DUP2 MSTORE PUSH1 0x20 ADD PUSH1 0x0 KECCAK256 DUP2 SWAP1 SSTORE POP PUSH8 0x1BC16D674EC80000 PUSH1 0x6 PUSH1 0x0 PUSH1 0x2 DUP2 MSTORE PUSH1 0x20 ADD SWAP1 DUP2 MSTORE PUSH1 0x20 ADD PUSH1 0x0 KECCAK256 DUP2 SWAP1 SSTORE POP PUSH8 0x3782DACE9D900000 PUSH1 0x6 PUSH1 0x0 PUSH1 0x3 DUP2 MSTORE PUSH1 0x20 ADD SWAP1 DUP2 MSTORE PUSH1 0x20 ADD PUSH1 0x0 KECCAK256 DUP2 SWAP1 SSTORE POP PUSH8 0x4563918244F40000 PUSH1 0x6 PUSH1 0x0 PUSH1 0x4 DUP2 MSTORE PUSH1 0x20 ADD SWAP1 DUP2 MSTORE PUSH1 0x20 ADD PUSH1 0x0 KECCAK256 DUP2 SWAP1 SSTORE POP PUSH8 0x53444835EC580000 PUSH1 0x6 PUSH1 0x0 PUSH1 0x5 DUP2 MSTORE PUSH1 0x20 ADD SWAP1 DUP2 MSTORE PUSH1 0x20 ADD PUSH1 0x0 KECCAK256 DUP2 SWAP1 SSTORE POP POP PUSH3 0x8AD JUMP JUMPDEST PUSH1 0x0 CALLER SWAP1 POP SWAP1 JUMP JUMPDEST PUSH1 0x0 PUSH20 0xFFFFFFFFFFFFFFFFFFFFFFFFFFFFFFFFFFFFFFFF AND DUP3 PUSH20 0xFFFFFFFFFFFFFFFFFFFFFFFFFFFFFFFFFFFFFFFF AND SUB PUSH3 0x2D2 JUMPI PUSH1 0x40 MLOAD PUSH32 0x8C379A000000000000000000000000000000000000000000000000000000000 DUP2 MSTORE PUSH1 0x4 ADD PUSH3 0x2C9 SWAP1 PUSH3 0x7F3 JUMP JUMPDEST PUSH1 0x40 MLOAD DUP1 SWAP2 SUB SWAP1 REVERT JUMPDEST PUSH3 0x2E6 PUSH1 0x0 DUP4 DUP4 PUSH3 0x3C4 PUSH1 0x20 SHL PUSH1 0x20 SHR JUMP JUMPDEST DUP1 PUSH1 0x2 PUSH1 0x0 DUP3 DUP3 SLOAD PUSH3 0x2FA SWAP2 SWAP1 PUSH3 0x844 JUMP JUMPDEST SWAP3 POP POP DUP2 SWAP1 SSTORE POP DUP1 PUSH1 0x0 DUP1 DUP5 PUSH20 0xFFFFFFFFFFFFFFFFFFFFFFFFFFFFFFFFFFFFFFFF AND PUSH20 0xFFFFFFFFFFFFFFFFFFFFFFFFFFFFFFFFFFFFFFFF AND DUP2 MSTORE PUSH1 0x20 ADD SWAP1 DUP2 MSTORE PUSH1 0x20 ADD PUSH1 0x0 KECCAK256 PUSH1 0x0 DUP3 DUP3 SLOAD PUSH3 0x351 SWAP2 SWAP1 PUSH3 0x844 JUMP JUMPDEST SWAP3 POP POP DUP2 SWAP1 SSTORE POP DUP2 PUSH20 0xFFFFFFFFFFFFFFFFFFFFFFFFFFFFFFFFFFFFFFFF AND PUSH1 0x0 PUSH20 0xFFFFFFFFFFFFFFFFFFFFFFFFFFFFFFFFFFFFFFFF AND PUSH32 0xDDF252AD1BE2C89B69C2B068FC378DAA952BA7F163C4A11628F55A4DF523B3EF DUP4 PUSH1 0x40 MLOAD PUSH3 0x3B8 SWAP2 SWAP1 PUSH3 0x890 JUMP JUMPDEST PUSH1 0x40 MLOAD DUP1 SWAP2 SUB SWAP1 LOG3 POP POP JUMP JUMPDEST POP POP POP JUMP JUMPDEST PUSH1 0x0 DUP1 REVERT JUMPDEST PUSH1 0x0 DUP2 SWAP1 POP SWAP2 SWAP1 POP JUMP JUMPDEST PUSH3 0x3E3 DUP2 PUSH3 0x3CE JUMP JUMPDEST DUP2 EQ PUSH3 0x3EF JUMPI PUSH1 0x0 DUP1 REVERT JUMPDEST POP JUMP JUMPDEST PUSH1 0x0 DUP2 MLOAD SWAP1 POP PUSH3 0x403 DUP2 PUSH3 0x3D8 JUMP JUMPDEST SWAP3 SWAP2 POP POP JUMP JUMPDEST PUSH1 0x0 PUSH1 0x20 DUP3 DUP5 SUB SLT ISZERO PUSH3 0x422 JUMPI PUSH3 0x421 PUSH3 0x3C9 JUMP JUMPDEST JUMPDEST PUSH1 0x0 PUSH3 0x432 DUP5 DUP3 DUP6 ADD PUSH3 0x3F2 JUMP JUMPDEST SWAP2 POP POP SWAP3 SWAP2 POP POP JUMP JUMPDEST PUSH1 0x0 DUP2 MLOAD SWAP1 POP SWAP2 SWAP1 POP JUMP JUMPDEST PUSH32 0x4E487B7100000000000000000000000000000000000000000000000000000000 PUSH1 0x0 MSTORE PUSH1 0x41 PUSH1 0x4 MSTORE PUSH1 0x24 PUSH1 0x0 REVERT JUMPDEST PUSH32 0x4E487B7100000000000000000000000000000000000000000000000000000000 PUSH1 0x0 MSTORE PUSH1 0x22 PUSH1 0x4 MSTORE PUSH1 0x24 PUSH1 0x0 REVERT JUMPDEST PUSH1 0x0 PUSH1 0x2 DUP3 DIV SWAP1 POP PUSH1 0x1 DUP3 AND DUP1 PUSH3 0x4BD JUMPI PUSH1 0x7F DUP3 AND SWAP2 POP JUMPDEST PUSH1 0x20 DUP3 LT DUP2 SUB PUSH3 0x4D3 JUMPI PUSH3 0x4D2 PUSH3 0x475 JUMP JUMPDEST JUMPDEST POP SWAP2 SWAP1 POP JUMP JUMPDEST PUSH1 0x0 DUP2 SWAP1 POP DUP2 PUSH1 0x0 MSTORE PUSH1 0x20 PUSH1 0x0 KECCAK256 SWAP1 POP SWAP2 SWAP1 POP JUMP JUMPDEST PUSH1 0x0 PUSH1 0x20 PUSH1 0x1F DUP4 ADD DIV SWAP1 POP SWAP2 SWAP1 POP JUMP JUMPDEST PUSH1 0x0 DUP3 DUP3 SHL SWAP1 POP SWAP3 SWAP2 POP POP JUMP JUMPDEST PUSH1 0x0 PUSH1 0x8 DUP4 MUL PUSH3 0x53D PUSH32 0xFFFFFFFFFFFFFFFFFFFFFFFFFFFFFFFFFFFFFFFFFFFFFFFFFFFFFFFFFFFFFFFF DUP3 PUSH3 0x4FE JUMP JUMPDEST PUSH3 0x549 DUP7 DUP4 PUSH3 0x4FE JUMP JUMPDEST SWAP6 POP DUP1 NOT DUP5 AND SWAP4 POP DUP1 DUP7 AND DUP5 OR SWAP3 POP POP POP SWAP4 SWAP3 POP POP POP JUMP JUMPDEST PUSH1 0x0 DUP2 SWAP1 POP SWAP2 SWAP1 POP JUMP JUMPDEST PUSH1 0x0 PUSH3 0x58C PUSH3 0x586 PUSH3 0x580 DUP5 PUSH3 0x3CE JUMP JUMPDEST PUSH3 0x561 JUMP JUMPDEST PUSH3 0x3CE JUMP JUMPDEST SWAP1 POP SWAP2 SWAP1 POP JUMP JUMPDEST PUSH1 0x0 DUP2 SWAP1 POP SWAP2 SWAP1 POP JUMP JUMPDEST PUSH3 0x5A8 DUP4 PUSH3 0x56B JUMP JUMPDEST PUSH3 0x5C0 PUSH3 0x5B7 DUP3 PUSH3 0x593 JUMP JUMPDEST DUP5 DUP5 SLOAD PUSH3 0x50B JUMP JUMPDEST DUP3 SSTORE POP POP POP POP JUMP JUMPDEST PUSH1 0x0 SWAP1 JUMP JUMPDEST PUSH3 0x5D7 PUSH3 0x5C8 JUMP JUMPDEST PUSH3 0x5E4 DUP2 DUP5 DUP5 PUSH3 0x59D JUMP JUMPDEST POP POP POP JUMP JUMPDEST JUMPDEST DUP2 DUP2 LT ISZERO PUSH3 0x60C JUMPI PUSH3 0x600 PUSH1 0x0 DUP3 PUSH3 0x5CD JUMP JUMPDEST PUSH1 0x1 DUP2 ADD SWAP1 POP PUSH3 0x5EA JUMP JUMPDEST POP POP JUMP JUMPDEST PUSH1 0x1F DUP3 GT ISZERO PUSH3 0x65B JUMPI PUSH3 0x625 DUP2 PUSH3 0x4D9 JUMP JUMPDEST PUSH3 0x630 DUP5 PUSH3 0x4EE JUMP JUMPDEST DUP2 ADD PUSH1 0x20 DUP6 LT ISZERO PUSH3 0x640 JUMPI DUP2 SWAP1 POP JUMPDEST PUSH3 0x658 PUSH3 0x64F DUP6 PUSH3 0x4EE JUMP JUMPDEST DUP4 ADD DUP3 PUSH3 0x5E9 JUMP JUMPDEST POP POP JUMPDEST POP POP POP JUMP JUMPDEST PUSH1 0x0 DUP3 DUP3 SHR SWAP1 POP SWAP3 SWAP2 POP POP JUMP JUMPDEST PUSH1 0x0 PUSH3 0x680 PUSH1 0x0 NOT DUP5 PUSH1 0x8 MUL PUSH3 0x660 JUMP JUMPDEST NOT DUP1 DUP4 AND SWAP2 POP POP SWAP3 SWAP2 POP POP JUMP JUMPDEST PUSH1 0x0 PUSH3 0x69B DUP4 DUP4 PUSH3 0x66D JUMP JUMPDEST SWAP2 POP DUP3 PUSH1 0x2 MUL DUP3 OR SWAP1 POP SWAP3 SWAP2 POP POP JUMP JUMPDEST PUSH3 0x6B6 DUP3 PUSH3 0x43B JUMP JUMPDEST PUSH8 0xFFFFFFFFFFFFFFFF DUP2 GT ISZERO PUSH3 0x6D2 JUMPI PUSH3 0x6D1 PUSH3 0x446 JUMP JUMPDEST JUMPDEST PUSH3 0x6DE DUP3 SLOAD PUSH3 0x4A4 JUMP JUMPDEST PUSH3 0x6EB DUP3 DUP3 DUP6 PUSH3 0x610 JUMP JUMPDEST PUSH1 0x0 PUSH1 0x20 SWAP1 POP PUSH1 0x1F DUP4 GT PUSH1 0x1 DUP2 EQ PUSH3 0x723 JUMPI PUSH1 0x0 DUP5 ISZERO PUSH3 0x70E JUMPI DUP3 DUP8 ADD MLOAD SWAP1 POP JUMPDEST PUSH3 0x71A DUP6 DUP3 PUSH3 0x68D JUMP JUMPDEST DUP7 SSTORE POP PUSH3 0x78A JUMP JUMPDEST PUSH1 0x1F NOT DUP5 AND PUSH3 0x733 DUP7 PUSH3 0x4D9 JUMP JUMPDEST PUSH1 0x0 JUMPDEST DUP3 DUP2 LT ISZERO PUSH3 0x75D JUMPI DUP5 DUP10 ADD MLOAD DUP3 SSTORE PUSH1 0x1 DUP3 ADD SWAP2 POP PUSH1 0x20 DUP6 ADD SWAP5 POP PUSH1 0x20 DUP2 ADD SWAP1 POP PUSH3 0x736 JUMP JUMPDEST DUP7 DUP4 LT ISZERO PUSH3 0x77D JUMPI DUP5 DUP10 ADD MLOAD PUSH3 0x779 PUSH1 0x1F DUP10 AND DUP3 PUSH3 0x66D JUMP JUMPDEST DUP4 SSTORE POP JUMPDEST PUSH1 0x1 PUSH1 0x2 DUP9 MUL ADD DUP9 SSTORE POP POP POP JUMPDEST POP POP POP POP POP POP JUMP JUMPDEST PUSH1 0x0 DUP3 DUP3 MSTORE PUSH1 0x20 DUP3 ADD SWAP1 POP SWAP3 SWAP2 POP POP JUMP JUMPDEST PUSH32 0x45524332303A206D696E7420746F20746865207A65726F206164647265737300 PUSH1 0x0 DUP3 ADD MSTORE POP JUMP JUMPDEST PUSH1 0x0 PUSH3 0x7DB PUSH1 0x1F DUP4 PUSH3 0x792 JUMP JUMPDEST SWAP2 POP PUSH3 0x7E8 DUP3 PUSH3 0x7A3 JUMP JUMPDEST PUSH1 0x20 DUP3 ADD SWAP1 POP SWAP2 SWAP1 POP JUMP JUMPDEST PUSH1 0x0 PUSH1 0x20 DUP3 ADD SWAP1 POP DUP2 DUP2 SUB PUSH1 0x0 DUP4 ADD MSTORE PUSH3 0x80E DUP2 PUSH3 0x7CC JUMP JUMPDEST SWAP1 POP SWAP2 SWAP1 POP JUMP JUMPDEST PUSH32 0x4E487B7100000000000000000000000000000000000000000000000000000000 PUSH1 0x0 MSTORE PUSH1 0x11 PUSH1 0x4 MSTORE PUSH1 0x24 PUSH1 0x0 REVERT JUMPDEST PUSH1 0x0 PUSH3 0x851 DUP3 PUSH3 0x3CE JUMP JUMPDEST SWAP2 POP PUSH3 0x85E DUP4 PUSH3 0x3CE JUMP JUMPDEST SWAP3 POP DUP3 DUP3 ADD SWAP1 POP DUP1 DUP3 GT ISZERO PUSH3 0x879 JUMPI PUSH3 0x878 PUSH3 0x815 JUMP JUMPDEST JUMPDEST SWAP3 SWAP2 POP POP JUMP JUMPDEST PUSH3 0x88A DUP2 PUSH3 0x3CE JUMP JUMPDEST DUP3 MSTORE POP POP JUMP JUMPDEST PUSH1 0x0 PUSH1 0x20 DUP3 ADD SWAP1 POP PUSH3 0x8A7 PUSH1 0x0 DUP4 ADD DUP5 PUSH3 0x87F JUMP JUMPDEST SWAP3 SWAP2 POP POP JUMP JUMPDEST PUSH2 0x2268 DUP1 PUSH3 0x8BD PUSH1 0x0 CODECOPY PUSH1 0x0 RETURN INVALID PUSH1 0x80 PUSH1 0x40 MSTORE CALLVALUE DUP1 ISZERO PUSH2 0x10 JUMPI PUSH1 0x0 DUP1 REVERT JUMPDEST POP PUSH1 0x4 CALLDATASIZE LT PUSH2 0x12C JUMPI PUSH1 0x0 CALLDATALOAD PUSH1 0xE0 SHR DUP1 PUSH4 0x715018A6 GT PUSH2 0xAD JUMPI DUP1 PUSH4 0xBF91AD9E GT PUSH2 0x71 JUMPI DUP1 PUSH4 0xBF91AD9E EQ PUSH2 0x36D JUMPI DUP1 PUSH4 0xC2B3B3C7 EQ PUSH2 0x39D JUMPI DUP1 PUSH4 0xDD62ED3E EQ PUSH2 0x3B9 JUMPI DUP1 PUSH4 0xE7FB74C7 EQ PUSH2 0x3E9 JUMPI DUP1 PUSH4 0xF2FDE38B EQ PUSH2 0x405 JUMPI PUSH2 0x12C JUMP JUMPDEST DUP1 PUSH4 0x715018A6 EQ PUSH2 0x2C7 JUMPI DUP1 PUSH4 0x8DA5CB5B EQ PUSH2 0x2D1 JUMPI DUP1 PUSH4 0x95D89B41 EQ PUSH2 0x2EF JUMPI DUP1 PUSH4 0xA457C2D7 EQ PUSH2 0x30D JUMPI DUP1 PUSH4 0xA9059CBB EQ PUSH2 0x33D JUMPI PUSH2 0x12C JUMP JUMPDEST DUP1 PUSH4 0x23B872DD GT PUSH2 0xF4 JUMPI DUP1 PUSH4 0x23B872DD EQ PUSH2 0x1FD JUMPI DUP1 PUSH4 0x313CE567 EQ PUSH2 0x22D JUMPI DUP1 PUSH4 0x39509351 EQ PUSH2 0x24B JUMPI DUP1 PUSH4 0x4229C35E EQ PUSH2 0x27B JUMPI DUP1 PUSH4 0x70A08231 EQ PUSH2 0x297 JUMPI PUSH2 0x12C JUMP JUMPDEST DUP1 PUSH4 0x6FDDE03 EQ PUSH2 0x131 JUMPI DUP1 PUSH4 0x95EA7B3 EQ PUSH2 0x14F JUMPI DUP1 PUSH4 0x18160DDD EQ PUSH2 0x17F JUMPI DUP1 PUSH4 0x209936FE EQ PUSH2 0x19D JUMPI DUP1 PUSH4 0x2293E27C EQ PUSH2 0x1CD JUMPI JUMPDEST PUSH1 0x0 DUP1 REVERT JUMPDEST PUSH2 0x139 PUSH2 0x421 JUMP JUMPDEST PUSH1 0x40 MLOAD PUSH2 0x146 SWAP2 SWAP1 PUSH2 0x16A5 JUMP JUMPDEST PUSH1 0x40 MLOAD DUP1 SWAP2 SUB SWAP1 RETURN JUMPDEST PUSH2 0x169 PUSH1 0x4 DUP1 CALLDATASIZE SUB DUP2 ADD SWAP1 PUSH2 0x164 SWAP2 SWAP1 PUSH2 0x1760 JUMP JUMPDEST PUSH2 0x4B3 JUMP JUMPDEST PUSH1 0x40 MLOAD PUSH2 0x176 SWAP2 SWAP1 PUSH2 0x17BB JUMP JUMPDEST PUSH1 0x40 MLOAD DUP1 SWAP2 SUB SWAP1 RETURN JUMPDEST PUSH2 0x187 PUSH2 0x4D1 JUMP JUMPDEST PUSH1 0x40 MLOAD PUSH2 0x194 SWAP2 SWAP1 PUSH2 0x17E5 JUMP JUMPDEST PUSH1 0x40 MLOAD DUP1 SWAP2 SUB SWAP1 RETURN JUMPDEST PUSH2 0x1B7 PUSH1 0x4 DUP1 CALLDATASIZE SUB DUP2 ADD SWAP1 PUSH2 0x1B2 SWAP2 SWAP1 PUSH2 0x1760 JUMP JUMPDEST PUSH2 0x4DB JUMP JUMPDEST PUSH1 0x40 MLOAD PUSH2 0x1C4 SWAP2 SWAP1 PUSH2 0x17BB JUMP JUMPDEST PUSH1 0x40 MLOAD DUP1 SWAP2 SUB SWAP1 RETURN JUMPDEST PUSH2 0x1E7 PUSH1 0x4 DUP1 CALLDATASIZE SUB DUP2 ADD SWAP1 PUSH2 0x1E2 SWAP2 SWAP1 PUSH2 0x1760 JUMP JUMPDEST PUSH2 0x50A JUMP JUMPDEST PUSH1 0x40 MLOAD PUSH2 0x1F4 SWAP2 SWAP1 PUSH2 0x17BB JUMP JUMPDEST PUSH1 0x40 MLOAD DUP1 SWAP2 SUB SWAP1 RETURN JUMPDEST PUSH2 0x217 PUSH1 0x4 DUP1 CALLDATASIZE SUB DUP2 ADD SWAP1 PUSH2 0x212 SWAP2 SWAP1 PUSH2 0x1800 JUMP JUMPDEST PUSH2 0x572 JUMP JUMPDEST PUSH1 0x40 MLOAD PUSH2 0x224 SWAP2 SWAP1 PUSH2 0x17BB JUMP JUMPDEST PUSH1 0x40 MLOAD DUP1 SWAP2 SUB SWAP1 RETURN JUMPDEST PUSH2 0x235 PUSH2 0x673 JUMP JUMPDEST PUSH1 0x40 MLOAD PUSH2 0x242 SWAP2 SWAP1 PUSH2 0x186F JUMP JUMPDEST PUSH1 0x40 MLOAD DUP1 SWAP2 SUB SWAP1 RETURN JUMPDEST PUSH2 0x265 PUSH1 0x4 DUP1 CALLDATASIZE SUB DUP2 ADD SWAP1 PUSH2 0x260 SWAP2 SWAP1 PUSH2 0x1760 JUMP JUMPDEST PUSH2 0x67C JUMP JUMPDEST PUSH1 0x40 MLOAD PUSH2 0x272 SWAP2 SWAP1 PUSH2 0x17BB JUMP JUMPDEST PUSH1 0x40 MLOAD DUP1 SWAP2 SUB SWAP1 RETURN JUMPDEST PUSH2 0x295 PUSH1 0x4 DUP1 CALLDATASIZE SUB DUP2 ADD SWAP1 PUSH2 0x290 SWAP2 SWAP1 PUSH2 0x188A JUMP JUMPDEST PUSH2 0x728 JUMP JUMPDEST STOP JUMPDEST PUSH2 0x2B1 PUSH1 0x4 DUP1 CALLDATASIZE SUB DUP2 ADD SWAP1 PUSH2 0x2AC SWAP2 SWAP1 PUSH2 0x18CA JUMP JUMPDEST PUSH2 0x83C JUMP JUMPDEST PUSH1 0x40 MLOAD PUSH2 0x2BE SWAP2 SWAP1 PUSH2 0x17E5 JUMP JUMPDEST PUSH1 0x40 MLOAD DUP1 SWAP2 SUB SWAP1 RETURN JUMPDEST PUSH2 0x2CF PUSH2 0x884 JUMP JUMPDEST STOP JUMPDEST PUSH2 0x2D9 PUSH2 0x9C1 JUMP JUMPDEST PUSH1 0x40 MLOAD PUSH2 0x2E6 SWAP2 SWAP1 PUSH2 0x1906 JUMP JUMPDEST PUSH1 0x40 MLOAD DUP1 SWAP2 SUB SWAP1 RETURN JUMPDEST PUSH2 0x2F7 PUSH2 0x9EB JUMP JUMPDEST PUSH1 0x40 MLOAD PUSH2 0x304 SWAP2 SWAP1 PUSH2 0x16A5 JUMP JUMPDEST PUSH1 0x40 MLOAD DUP1 SWAP2 SUB SWAP1 RETURN JUMPDEST PUSH2 0x327 PUSH1 0x4 DUP1 CALLDATASIZE SUB DUP2 ADD SWAP1 PUSH2 0x322 SWAP2 SWAP1 PUSH2 0x1760 JUMP JUMPDEST PUSH2 0xA7D JUMP JUMPDEST PUSH1 0x40 MLOAD PUSH2 0x334 SWAP2 SWAP1 PUSH2 0x17BB JUMP JUMPDEST PUSH1 0x40 MLOAD DUP1 SWAP2 SUB SWAP1 RETURN JUMPDEST PUSH2 0x357 PUSH1 0x4 DUP1 CALLDATASIZE SUB DUP2 ADD SWAP1 PUSH2 0x352 SWAP2 SWAP1 PUSH2 0x1760 JUMP JUMPDEST PUSH2 0xB71 JUMP JUMPDEST PUSH1 0x40 MLOAD PUSH2 0x364 SWAP2 SWAP1 PUSH2 0x17BB JUMP JUMPDEST PUSH1 0x40 MLOAD DUP1 SWAP2 SUB SWAP1 RETURN JUMPDEST PUSH2 0x387 PUSH1 0x4 DUP1 CALLDATASIZE SUB DUP2 ADD SWAP1 PUSH2 0x382 SWAP2 SWAP1 PUSH2 0x1921 JUMP JUMPDEST PUSH2 0xB8F JUMP JUMPDEST PUSH1 0x40 MLOAD PUSH2 0x394 SWAP2 SWAP1 PUSH2 0x17E5 JUMP JUMPDEST PUSH1 0x40 MLOAD DUP1 SWAP2 SUB SWAP1 RETURN JUMPDEST PUSH2 0x3B7 PUSH1 0x4 DUP1 CALLDATASIZE SUB DUP2 ADD SWAP1 PUSH2 0x3B2 SWAP2 SWAP1 PUSH2 0x1760 JUMP JUMPDEST PUSH2 0xBA7 JUMP JUMPDEST STOP JUMPDEST PUSH2 0x3D3 PUSH1 0x4 DUP1 CALLDATASIZE SUB DUP2 ADD SWAP1 PUSH2 0x3CE SWAP2 SWAP1 PUSH2 0x194E JUMP JUMPDEST PUSH2 0xBB5 JUMP JUMPDEST PUSH1 0x40 MLOAD PUSH2 0x3E0 SWAP2 SWAP1 PUSH2 0x17E5 JUMP JUMPDEST PUSH1 0x40 MLOAD DUP1 SWAP2 SUB SWAP1 RETURN JUMPDEST PUSH2 0x403 PUSH1 0x4 DUP1 CALLDATASIZE SUB DUP2 ADD SWAP1 PUSH2 0x3FE SWAP2 SWAP1 PUSH2 0x1921 JUMP JUMPDEST PUSH2 0xC3C JUMP JUMPDEST STOP JUMPDEST PUSH2 0x41F PUSH1 0x4 DUP1 CALLDATASIZE SUB DUP2 ADD SWAP1 PUSH2 0x41A SWAP2 SWAP1 PUSH2 0x18CA JUMP JUMPDEST PUSH2 0xEC4 JUMP JUMPDEST STOP JUMPDEST PUSH1 0x60 PUSH1 0x3 DUP1 SLOAD PUSH2 0x430 SWAP1 PUSH2 0x19BD JUMP JUMPDEST DUP1 PUSH1 0x1F ADD PUSH1 0x20 DUP1 SWAP2 DIV MUL PUSH1 0x20 ADD PUSH1 0x40 MLOAD SWAP1 DUP2 ADD PUSH1 0x40 MSTORE DUP1 SWAP3 SWAP2 SWAP1 DUP2 DUP2 MSTORE PUSH1 0x20 ADD DUP3 DUP1 SLOAD PUSH2 0x45C SWAP1 PUSH2 0x19BD JUMP JUMPDEST DUP1 ISZERO PUSH2 0x4A9 JUMPI DUP1 PUSH1 0x1F LT PUSH2 0x47E JUMPI PUSH2 0x100 DUP1 DUP4 SLOAD DIV MUL DUP4 MSTORE SWAP2 PUSH1 0x20 ADD SWAP2 PUSH2 0x4A9 JUMP JUMPDEST DUP3 ADD SWAP2 SWAP1 PUSH1 0x0 MSTORE PUSH1 0x20 PUSH1 0x0 KECCAK256 SWAP1 JUMPDEST DUP2 SLOAD DUP2 MSTORE SWAP1 PUSH1 0x1 ADD SWAP1 PUSH1 0x20 ADD DUP1 DUP4 GT PUSH2 0x48C JUMPI DUP3 SWAP1 SUB PUSH1 0x1F AND DUP3 ADD SWAP2 JUMPDEST POP POP POP POP POP SWAP1 POP SWAP1 JUMP JUMPDEST PUSH1 0x0 PUSH2 0x4C7 PUSH2 0x4C0 PUSH2 0x106F JUMP JUMPDEST DUP5 DUP5 PUSH2 0x1077 JUMP JUMPDEST PUSH1 0x1 SWAP1 POP SWAP3 SWAP2 POP POP JUMP JUMPDEST PUSH1 0x0 PUSH1 0x2 SLOAD SWAP1 POP SWAP1 JUMP JUMPDEST PUSH1 0x7 PUSH1 0x20 MSTORE DUP2 PUSH1 0x0 MSTORE PUSH1 0x40 PUSH1 0x0 KECCAK256 PUSH1 0x20 MSTORE DUP1 PUSH1 0x0 MSTORE PUSH1 0x40 PUSH1 0x0 KECCAK256 PUSH1 0x0 SWAP2 POP SWAP2 POP SWAP1 SLOAD SWAP1 PUSH2 0x100 EXP SWAP1 DIV PUSH1 0xFF AND DUP2 JUMP JUMPDEST PUSH1 0x0 PUSH1 0x7 PUSH1 0x0 DUP5 PUSH20 0xFFFFFFFFFFFFFFFFFFFFFFFFFFFFFFFFFFFFFFFF AND PUSH20 0xFFFFFFFFFFFFFFFFFFFFFFFFFFFFFFFFFFFFFFFF AND DUP2 MSTORE PUSH1 0x20 ADD SWAP1 DUP2 MSTORE PUSH1 0x20 ADD PUSH1 0x0 KECCAK256 PUSH1 0x0 DUP4 DUP2 MSTORE PUSH1 0x20 ADD SWAP1 DUP2 MSTORE PUSH1 0x20 ADD PUSH1 0x0 KECCAK256 PUSH1 0x0 SWAP1 SLOAD SWAP1 PUSH2 0x100 EXP SWAP1 DIV PUSH1 0xFF AND SWAP1 POP SWAP3 SWAP2 POP POP JUMP JUMPDEST PUSH1 0x0 PUSH2 0x57F DUP5 DUP5 DUP5 PUSH2 0x1240 JUMP JUMPDEST PUSH1 0x0 PUSH1 0x1 PUSH1 0x0 DUP7 PUSH20 0xFFFFFFFFFFFFFFFFFFFFFFFFFFFFFFFFFFFFFFFF AND PUSH20 0xFFFFFFFFFFFFFFFFFFFFFFFFFFFFFFFFFFFFFFFF AND DUP2 MSTORE PUSH1 0x20 ADD SWAP1 DUP2 MSTORE PUSH1 0x20 ADD PUSH1 0x0 KECCAK256 PUSH1 0x0 PUSH2 0x5CA PUSH2 0x106F JUMP JUMPDEST PUSH20 0xFFFFFFFFFFFFFFFFFFFFFFFFFFFFFFFFFFFFFFFF AND PUSH20 0xFFFFFFFFFFFFFFFFFFFFFFFFFFFFFFFFFFFFFFFF AND DUP2 MSTORE PUSH1 0x20 ADD SWAP1 DUP2 MSTORE PUSH1 0x20 ADD PUSH1 0x0 KECCAK256 SLOAD SWAP1 POP DUP3 DUP2 LT ISZERO PUSH2 0x64A JUMPI PUSH1 0x40 MLOAD PUSH32 0x8C379A000000000000000000000000000000000000000000000000000000000 DUP2 MSTORE PUSH1 0x4 ADD PUSH2 0x641 SWAP1 PUSH2 0x1A60 JUMP JUMPDEST PUSH1 0x40 MLOAD DUP1 SWAP2 SUB SWAP1 REVERT JUMPDEST PUSH2 0x667 DUP6 PUSH2 0x656 PUSH2 0x106F JUMP JUMPDEST DUP6 DUP5 PUSH2 0x662 SWAP2 SWAP1 PUSH2 0x1AAF JUMP JUMPDEST PUSH2 0x1077 JUMP JUMPDEST PUSH1 0x1 SWAP2 POP POP SWAP4 SWAP3 POP POP POP JUMP JUMPDEST PUSH1 0x0 PUSH1 0x12 SWAP1 POP SWAP1 JUMP JUMPDEST PUSH1 0x0 PUSH2 0x71E PUSH2 0x689 PUSH2 0x106F JUMP JUMPDEST DUP5 DUP5 PUSH1 0x1 PUSH1 0x0 PUSH2 0x697 PUSH2 0x106F JUMP JUMPDEST PUSH20 0xFFFFFFFFFFFFFFFFFFFFFFFFFFFFFFFFFFFFFFFF AND PUSH20 0xFFFFFFFFFFFFFFFFFFFFFFFFFFFFFFFFFFFFFFFF AND DUP2 MSTORE PUSH1 0x20 ADD SWAP1 DUP2 MSTORE PUSH1 0x20 ADD PUSH1 0x0 KECCAK256 PUSH1 0x0 DUP9 PUSH20 0xFFFFFFFFFFFFFFFFFFFFFFFFFFFFFFFFFFFFFFFF AND PUSH20 0xFFFFFFFFFFFFFFFFFFFFFFFFFFFFFFFFFFFFFFFF AND DUP2 MSTORE PUSH1 0x20 ADD SWAP1 DUP2 MSTORE PUSH1 0x20 ADD PUSH1 0x0 KECCAK256 SLOAD PUSH2 0x719 SWAP2 SWAP1 PUSH2 0x1AE3 JUMP JUMPDEST PUSH2 0x1077 JUMP JUMPDEST PUSH1 0x1 SWAP1 POP SWAP3 SWAP2 POP POP JUMP JUMPDEST PUSH2 0x730 PUSH2 0x106F JUMP JUMPDEST PUSH20 0xFFFFFFFFFFFFFFFFFFFFFFFFFFFFFFFFFFFFFFFF AND PUSH2 0x74E PUSH2 0x9C1 JUMP JUMPDEST PUSH20 0xFFFFFFFFFFFFFFFFFFFFFFFFFFFFFFFFFFFFFFFF AND EQ PUSH2 0x7A4 JUMPI PUSH1 0x40 MLOAD PUSH32 0x8C379A000000000000000000000000000000000000000000000000000000000 DUP2 MSTORE PUSH1 0x4 ADD PUSH2 0x79B SWAP1 PUSH2 0x1B63 JUMP JUMPDEST PUSH1 0x40 MLOAD DUP1 SWAP2 SUB SWAP1 REVERT JUMPDEST PUSH1 0x0 DUP2 GT PUSH2 0x7E7 JUMPI PUSH1 0x40 MLOAD PUSH32 0x8C379A000000000000000000000000000000000000000000000000000000000 DUP2 MSTORE PUSH1 0x4 ADD PUSH2 0x7DE SWAP1 PUSH2 0x1BCF JUMP JUMPDEST PUSH1 0x40 MLOAD DUP1 SWAP2 SUB SWAP1 REVERT JUMPDEST DUP1 PUSH1 0x6 PUSH1 0x0 DUP5 DUP2 MSTORE PUSH1 0x20 ADD SWAP1 DUP2 MSTORE PUSH1 0x20 ADD PUSH1 0x0 KECCAK256 DUP2 SWAP1 SSTORE POP PUSH32 0x53973A0AA9EB26609E2A6BB41F5235722E699B14E88F6EB24FC85C51167529D8 DUP3 DUP3 PUSH1 0x40 MLOAD PUSH2 0x830 SWAP3 SWAP2 SWAP1 PUSH2 0x1BEF JUMP JUMPDEST PUSH1 0x40 MLOAD DUP1 SWAP2 SUB SWAP1 LOG1 POP POP JUMP JUMPDEST PUSH1 0x0 DUP1 PUSH1 0x0 DUP4 PUSH20 0xFFFFFFFFFFFFFFFFFFFFFFFFFFFFFFFFFFFFFFFF AND PUSH20 0xFFFFFFFFFFFFFFFFFFFFFFFFFFFFFFFFFFFFFFFF AND DUP2 MSTORE PUSH1 0x20 ADD SWAP1 DUP2 MSTORE PUSH1 0x20 ADD PUSH1 0x0 KECCAK256 SLOAD SWAP1 POP SWAP2 SWAP1 POP JUMP JUMPDEST PUSH2 0x88C PUSH2 0x106F JUMP JUMPDEST PUSH20 0xFFFFFFFFFFFFFFFFFFFFFFFFFFFFFFFFFFFFFFFF AND PUSH2 0x8AA PUSH2 0x9C1 JUMP JUMPDEST PUSH20 0xFFFFFFFFFFFFFFFFFFFFFFFFFFFFFFFFFFFFFFFF AND EQ PUSH2 0x900 JUMPI PUSH1 0x40 MLOAD PUSH32 0x8C379A000000000000000000000000000000000000000000000000000000000 DUP2 MSTORE PUSH1 0x4 ADD PUSH2 0x8F7 SWAP1 PUSH2 0x1B63 JUMP JUMPDEST PUSH1 0x40 MLOAD DUP1 SWAP2 SUB SWAP1 REVERT JUMPDEST PUSH1 0x0 PUSH20 0xFFFFFFFFFFFFFFFFFFFFFFFFFFFFFFFFFFFFFFFF AND PUSH1 0x5 PUSH1 0x0 SWAP1 SLOAD SWAP1 PUSH2 0x100 EXP SWAP1 DIV PUSH20 0xFFFFFFFFFFFFFFFFFFFFFFFFFFFFFFFFFFFFFFFF AND PUSH20 0xFFFFFFFFFFFFFFFFFFFFFFFFFFFFFFFFFFFFFFFF AND PUSH32 0x8BE0079C531659141344CD1FD0A4F28419497F9722A3DAAFE3B4186F6B6457E0 PUSH1 0x40 MLOAD PUSH1 0x40 MLOAD DUP1 SWAP2 SUB SWAP1 LOG3 PUSH1 0x0 PUSH1 0x5 PUSH1 0x0 PUSH2 0x100 EXP DUP2 SLOAD DUP2 PUSH20 0xFFFFFFFFFFFFFFFFFFFFFFFFFFFFFFFFFFFFFFFF MUL NOT AND SWAP1 DUP4 PUSH20 0xFFFFFFFFFFFFFFFFFFFFFFFFFFFFFFFFFFFFFFFF AND MUL OR SWAP1 SSTORE POP JUMP JUMPDEST PUSH1 0x0 PUSH1 0x5 PUSH1 0x0 SWAP1 SLOAD SWAP1 PUSH2 0x100 EXP SWAP1 DIV PUSH20 0xFFFFFFFFFFFFFFFFFFFFFFFFFFFFFFFFFFFFFFFF AND SWAP1 POP SWAP1 JUMP JUMPDEST PUSH1 0x60 PUSH1 0x4 DUP1 SLOAD PUSH2 0x9FA SWAP1 PUSH2 0x19BD JUMP JUMPDEST DUP1 PUSH1 0x1F ADD PUSH1 0x20 DUP1 SWAP2 DIV MUL PUSH1 0x20 ADD PUSH1 0x40 MLOAD SWAP1 DUP2 ADD PUSH1 0x40 MSTORE DUP1 SWAP3 SWAP2 SWAP1 DUP2 DUP2 MSTORE PUSH1 0x20 ADD DUP3 DUP1 SLOAD PUSH2 0xA26 SWAP1 PUSH2 0x19BD JUMP JUMPDEST DUP1 ISZERO PUSH2 0xA73 JUMPI DUP1 PUSH1 0x1F LT PUSH2 0xA48 JUMPI PUSH2 0x100 DUP1 DUP4 SLOAD DIV MUL DUP4 MSTORE SWAP2 PUSH1 0x20 ADD SWAP2 PUSH2 0xA73 JUMP JUMPDEST DUP3 ADD SWAP2 SWAP1 PUSH1 0x0 MSTORE PUSH1 0x20 PUSH1 0x0 KECCAK256 SWAP1 JUMPDEST DUP2 SLOAD DUP2 MSTORE SWAP1 PUSH1 0x1 ADD SWAP1 PUSH1 0x20 ADD DUP1 DUP4 GT PUSH2 0xA56 JUMPI DUP3 SWAP1 SUB PUSH1 0x1F AND DUP3 ADD SWAP2 JUMPDEST POP POP POP POP POP SWAP1 POP SWAP1 JUMP JUMPDEST PUSH1 0x0 DUP1 PUSH1 0x1 PUSH1 0x0 PUSH2 0xA8C PUSH2 0x106F JUMP JUMPDEST PUSH20 0xFFFFFFFFFFFFFFFFFFFFFFFFFFFFFFFFFFFFFFFF AND PUSH20 0xFFFFFFFFFFFFFFFFFFFFFFFFFFFFFFFFFFFFFFFF AND DUP2 MSTORE PUSH1 0x20 ADD SWAP1 DUP2 MSTORE PUSH1 0x20 ADD PUSH1 0x0 KECCAK256 PUSH1 0x0 DUP6 PUSH20 0xFFFFFFFFFFFFFFFFFFFFFFFFFFFFFFFFFFFFFFFF AND PUSH20 0xFFFFFFFFFFFFFFFFFFFFFFFFFFFFFFFFFFFFFFFF AND DUP2 MSTORE PUSH1 0x20 ADD SWAP1 DUP2 MSTORE PUSH1 0x20 ADD PUSH1 0x0 KECCAK256 SLOAD SWAP1 POP DUP3 DUP2 LT ISZERO PUSH2 0xB49 JUMPI PUSH1 0x40 MLOAD PUSH32 0x8C379A000000000000000000000000000000000000000000000000000000000 DUP2 MSTORE PUSH1 0x4 ADD PUSH2 0xB40 SWAP1 PUSH2 0x1C8A JUMP JUMPDEST PUSH1 0x40 MLOAD DUP1 SWAP2 SUB SWAP1 REVERT JUMPDEST PUSH2 0xB66 PUSH2 0xB54 PUSH2 0x106F JUMP JUMPDEST DUP6 DUP6 DUP5 PUSH2 0xB61 SWAP2 SWAP1 PUSH2 0x1AAF JUMP JUMPDEST PUSH2 0x1077 JUMP JUMPDEST PUSH1 0x1 SWAP2 POP POP SWAP3 SWAP2 POP POP JUMP JUMPDEST PUSH1 0x0 PUSH2 0xB85 PUSH2 0xB7E PUSH2 0x106F JUMP JUMPDEST DUP5 DUP5 PUSH2 0x1240 JUMP JUMPDEST PUSH1 0x1 SWAP1 POP SWAP3 SWAP2 POP POP JUMP JUMPDEST PUSH1 0x6 PUSH1 0x20 MSTORE DUP1 PUSH1 0x0 MSTORE PUSH1 0x40 PUSH1 0x0 KECCAK256 PUSH1 0x0 SWAP2 POP SWAP1 POP SLOAD DUP2 JUMP JUMPDEST PUSH2 0xBB1 DUP3 DUP3 PUSH2 0x14BD JUMP JUMPDEST POP POP JUMP JUMPDEST PUSH1 0x0 PUSH1 0x1 PUSH1 0x0 DUP5 PUSH20 0xFFFFFFFFFFFFFFFFFFFFFFFFFFFFFFFFFFFFFFFF AND PUSH20 0xFFFFFFFFFFFFFFFFFFFFFFFFFFFFFFFFFFFFFFFF AND DUP2 MSTORE PUSH1 0x20 ADD SWAP1 DUP2 MSTORE PUSH1 0x20 ADD PUSH1 0x0 KECCAK256 PUSH1 0x0 DUP4 PUSH20 0xFFFFFFFFFFFFFFFFFFFFFFFFFFFFFFFFFFFFFFFF AND PUSH20 0xFFFFFFFFFFFFFFFFFFFFFFFFFFFFFFFFFFFFFFFF AND DUP2 MSTORE PUSH1 0x20 ADD SWAP1 DUP2 MSTORE PUSH1 0x20 ADD PUSH1 0x0 KECCAK256 SLOAD SWAP1 POP SWAP3 SWAP2 POP POP JUMP JUMPDEST PUSH1 0x0 PUSH1 0x6 PUSH1 0x0 DUP4 DUP2 MSTORE PUSH1 0x20 ADD SWAP1 DUP2 MSTORE PUSH1 0x20 ADD PUSH1 0x0 KECCAK256 SLOAD SWAP1 POP PUSH1 0x0 DUP2 GT PUSH2 0xC97 JUMPI PUSH1 0x40 MLOAD PUSH32 0x8C379A000000000000000000000000000000000000000000000000000000000 DUP2 MSTORE PUSH1 0x4 ADD PUSH2 0xC8E SWAP1 PUSH2 0x1CF6 JUMP JUMPDEST PUSH1 0x40 MLOAD DUP1 SWAP2 SUB SWAP1 REVERT JUMPDEST PUSH2 0xC9F PUSH2 0x9C1 JUMP JUMPDEST PUSH20 0xFFFFFFFFFFFFFFFFFFFFFFFFFFFFFFFFFFFFFFFF AND CALLER PUSH20 0xFFFFFFFFFFFFFFFFFFFFFFFFFFFFFFFFFFFFFFFF AND SUB PUSH2 0xD0C JUMPI PUSH1 0x40 MLOAD PUSH32 0x8C379A000000000000000000000000000000000000000000000000000000000 DUP2 MSTORE PUSH1 0x4 ADD PUSH2 0xD03 SWAP1 PUSH2 0x1D62 JUMP JUMPDEST PUSH1 0x40 MLOAD DUP1 SWAP2 SUB SWAP1 REVERT JUMPDEST DUP1 PUSH2 0xD16 CALLER PUSH2 0x83C JUMP JUMPDEST LT ISZERO PUSH2 0xD57 JUMPI PUSH1 0x40 MLOAD PUSH32 0x8C379A000000000000000000000000000000000000000000000000000000000 DUP2 MSTORE PUSH1 0x4 ADD PUSH2 0xD4E SWAP1 PUSH2 0x1DCE JUMP JUMPDEST PUSH1 0x40 MLOAD DUP1 SWAP2 SUB SWAP1 REVERT JUMPDEST PUSH1 0x7 PUSH1 0x0 CALLER PUSH20 0xFFFFFFFFFFFFFFFFFFFFFFFFFFFFFFFFFFFFFFFF AND PUSH20 0xFFFFFFFFFFFFFFFFFFFFFFFFFFFFFFFFFFFFFFFF AND DUP2 MSTORE PUSH1 0x20 ADD SWAP1 DUP2 MSTORE PUSH1 0x20 ADD PUSH1 0x0 KECCAK256 PUSH1 0x0 DUP4 DUP2 MSTORE PUSH1 0x20 ADD SWAP1 DUP2 MSTORE PUSH1 0x20 ADD PUSH1 0x0 KECCAK256 PUSH1 0x0 SWAP1 SLOAD SWAP1 PUSH2 0x100 EXP SWAP1 DIV PUSH1 0xFF AND ISZERO PUSH2 0xDF5 JUMPI PUSH1 0x40 MLOAD PUSH32 0x8C379A000000000000000000000000000000000000000000000000000000000 DUP2 MSTORE PUSH1 0x4 ADD PUSH2 0xDEC SWAP1 PUSH2 0x1E3A JUMP JUMPDEST PUSH1 0x40 MLOAD DUP1 SWAP2 SUB SWAP1 REVERT JUMPDEST PUSH2 0xE07 CALLER PUSH2 0xE01 PUSH2 0x9C1 JUMP JUMPDEST DUP4 PUSH2 0x1240 JUMP JUMPDEST PUSH1 0x1 PUSH1 0x7 PUSH1 0x0 CALLER PUSH20 0xFFFFFFFFFFFFFFFFFFFFFFFFFFFFFFFFFFFFFFFF AND PUSH20 0xFFFFFFFFFFFFFFFFFFFFFFFFFFFFFFFFFFFFFFFF AND DUP2 MSTORE PUSH1 0x20 ADD SWAP1 DUP2 MSTORE PUSH1 0x20 ADD PUSH1 0x0 KECCAK256 PUSH1 0x0 DUP5 DUP2 MSTORE PUSH1 0x20 ADD SWAP1 DUP2 MSTORE PUSH1 0x20 ADD PUSH1 0x0 KECCAK256 PUSH1 0x0 PUSH2 0x100 EXP DUP2 SLOAD DUP2 PUSH1 0xFF MUL NOT AND SWAP1 DUP4 ISZERO ISZERO MUL OR SWAP1 SSTORE POP CALLER PUSH20 0xFFFFFFFFFFFFFFFFFFFFFFFFFFFFFFFFFFFFFFFF AND PUSH32 0xFE2094C9FF56716CB07EDF0CFF82DA158F346CB3BB2D89703228AB4EB0C329B6 DUP4 DUP4 PUSH1 0x40 MLOAD PUSH2 0xEB8 SWAP3 SWAP2 SWAP1 PUSH2 0x1BEF JUMP JUMPDEST PUSH1 0x40 MLOAD DUP1 SWAP2 SUB SWAP1 LOG2 POP POP JUMP JUMPDEST PUSH2 0xECC PUSH2 0x106F JUMP JUMPDEST PUSH20 0xFFFFFFFFFFFFFFFFFFFFFFFFFFFFFFFFFFFFFFFF AND PUSH2 0xEEA PUSH2 0x9C1 JUMP JUMPDEST PUSH20 0xFFFFFFFFFFFFFFFFFFFFFFFFFFFFFFFFFFFFFFFF AND EQ PUSH2 0xF40 JUMPI PUSH1 0x40 MLOAD PUSH32 0x8C379A000000000000000000000000000000000000000000000000000000000 DUP2 MSTORE PUSH1 0x4 ADD PUSH2 0xF37 SWAP1 PUSH2 0x1B63 JUMP JUMPDEST PUSH1 0x40 MLOAD DUP1 SWAP2 SUB SWAP1 REVERT JUMPDEST PUSH1 0x0 PUSH20 0xFFFFFFFFFFFFFFFFFFFFFFFFFFFFFFFFFFFFFFFF AND DUP2 PUSH20 0xFFFFFFFFFFFFFFFFFFFFFFFFFFFFFFFFFFFFFFFF AND SUB PUSH2 0xFAF JUMPI PUSH1 0x40 MLOAD PUSH32 0x8C379A000000000000000000000000000000000000000000000000000000000 DUP2 MSTORE PUSH1 0x4 ADD PUSH2 0xFA6 SWAP1 PUSH2 0x1ECC JUMP JUMPDEST PUSH1 0x40 MLOAD DUP1 SWAP2 SUB SWAP1 REVERT JUMPDEST DUP1 PUSH20 0xFFFFFFFFFFFFFFFFFFFFFFFFFFFFFFFFFFFFFFFF AND PUSH1 0x5 PUSH1 0x0 SWAP1 SLOAD SWAP1 PUSH2 0x100 EXP SWAP1 DIV PUSH20 0xFFFFFFFFFFFFFFFFFFFFFFFFFFFFFFFFFFFFFFFF AND PUSH20 0xFFFFFFFFFFFFFFFFFFFFFFFFFFFFFFFFFFFFFFFF AND PUSH32 0x8BE0079C531659141344CD1FD0A4F28419497F9722A3DAAFE3B4186F6B6457E0 PUSH1 0x40 MLOAD PUSH1 0x40 MLOAD DUP1 SWAP2 SUB SWAP1 LOG3 DUP1 PUSH1 0x5 PUSH1 0x0 PUSH2 0x100 EXP DUP2 SLOAD DUP2 PUSH20 0xFFFFFFFFFFFFFFFFFFFFFFFFFFFFFFFFFFFFFFFF MUL NOT AND SWAP1 DUP4 PUSH20 0xFFFFFFFFFFFFFFFFFFFFFFFFFFFFFFFFFFFFFFFF AND MUL OR SWAP1 SSTORE POP POP JUMP JUMPDEST PUSH1 0x0 CALLER SWAP1 POP SWAP1 JUMP JUMPDEST PUSH1 0x0 PUSH20 0xFFFFFFFFFFFFFFFFFFFFFFFFFFFFFFFFFFFFFFFF AND DUP4 PUSH20 0xFFFFFFFFFFFFFFFFFFFFFFFFFFFFFFFFFFFFFFFF AND SUB PUSH2 0x10E6 JUMPI PUSH1 0x40 MLOAD PUSH32 0x8C379A000000000000000000000000000000000000000000000000000000000 DUP2 MSTORE PUSH1 0x4 ADD PUSH2 0x10DD SWAP1 PUSH2 0x1F5E JUMP JUMPDEST PUSH1 0x40 MLOAD DUP1 SWAP2 SUB SWAP1 REVERT JUMPDEST PUSH1 0x0 PUSH20 0xFFFFFFFFFFFFFFFFFFFFFFFFFFFFFFFFFFFFFFFF AND DUP3 PUSH20 0xFFFFFFFFFFFFFFFFFFFFFFFFFFFFFFFFFFFFFFFF AND SUB PUSH2 0x1155 JUMPI PUSH1 0x40 MLOAD PUSH32 0x8C379A000000000000000000000000000000000000000000000000000000000 DUP2 MSTORE PUSH1 0x4 ADD PUSH2 0x114C SWAP1 PUSH2 0x1FF0 JUMP JUMPDEST PUSH1 0x40 MLOAD DUP1 SWAP2 SUB SWAP1 REVERT JUMPDEST DUP1 PUSH1 0x1 PUSH1 0x0 DUP6 PUSH20 0xFFFFFFFFFFFFFFFFFFFFFFFFFFFFFFFFFFFFFFFF AND PUSH20 0xFFFFFFFFFFFFFFFFFFFFFFFFFFFFFFFFFFFFFFFF AND DUP2 MSTORE PUSH1 0x20 ADD SWAP1 DUP2 MSTORE PUSH1 0x20 ADD PUSH1 0x0 KECCAK256 PUSH1 0x0 DUP5 PUSH20 0xFFFFFFFFFFFFFFFFFFFFFFFFFFFFFFFFFFFFFFFF AND PUSH20 0xFFFFFFFFFFFFFFFFFFFFFFFFFFFFFFFFFFFFFFFF AND DUP2 MSTORE PUSH1 0x20 ADD SWAP1 DUP2 MSTORE PUSH1 0x20 ADD PUSH1 0x0 KECCAK256 DUP2 SWAP1 SSTORE POP DUP2 PUSH20 0xFFFFFFFFFFFFFFFFFFFFFFFFFFFFFFFFFFFFFFFF AND DUP4 PUSH20 0xFFFFFFFFFFFFFFFFFFFFFFFFFFFFFFFFFFFFFFFF AND PUSH32 0x8C5BE1E5EBEC7D5BD14F71427D1E84F3DD0314C0F7B2291E5B200AC8C7C3B925 DUP4 PUSH1 0x40 MLOAD PUSH2 0x1233 SWAP2 SWAP1 PUSH2 0x17E5 JUMP JUMPDEST PUSH1 0x40 MLOAD DUP1 SWAP2 SUB SWAP1 LOG3 POP POP POP JUMP JUMPDEST PUSH1 0x0 PUSH20 0xFFFFFFFFFFFFFFFFFFFFFFFFFFFFFFFFFFFFFFFF AND DUP4 PUSH20 0xFFFFFFFFFFFFFFFFFFFFFFFFFFFFFFFFFFFFFFFF AND SUB PUSH2 0x12AF JUMPI PUSH1 0x40 MLOAD PUSH32 0x8C379A000000000000000000000000000000000000000000000000000000000 DUP2 MSTORE PUSH1 0x4 ADD PUSH2 0x12A6 SWAP1 PUSH2 0x2082 JUMP JUMPDEST PUSH1 0x40 MLOAD DUP1 SWAP2 SUB SWAP1 REVERT JUMPDEST PUSH1 0x0 PUSH20 0xFFFFFFFFFFFFFFFFFFFFFFFFFFFFFFFFFFFFFFFF AND DUP3 PUSH20 0xFFFFFFFFFFFFFFFFFFFFFFFFFFFFFFFFFFFFFFFF AND SUB PUSH2 0x131E JUMPI PUSH1 0x40 MLOAD PUSH32 0x8C379A000000000000000000000000000000000000000000000000000000000 DUP2 MSTORE PUSH1 0x4 ADD PUSH2 0x1315 SWAP1 PUSH2 0x2114 JUMP JUMPDEST PUSH1 0x40 MLOAD DUP1 SWAP2 SUB SWAP1 REVERT JUMPDEST PUSH2 0x1329 DUP4 DUP4 DUP4 PUSH2 0x1610 JUMP JUMPDEST PUSH1 0x0 DUP1 PUSH1 0x0 DUP6 PUSH20 0xFFFFFFFFFFFFFFFFFFFFFFFFFFFFFFFFFFFFFFFF AND PUSH20 0xFFFFFFFFFFFFFFFFFFFFFFFFFFFFFFFFFFFFFFFF AND DUP2 MSTORE PUSH1 0x20 ADD SWAP1 DUP2 MSTORE PUSH1 0x20 ADD PUSH1 0x0 KECCAK256 SLOAD SWAP1 POP DUP2 DUP2 LT ISZERO PUSH2 0x13AF JUMPI PUSH1 0x40 MLOAD PUSH32 0x8C379A000000000000000000000000000000000000000000000000000000000 DUP2 MSTORE PUSH1 0x4 ADD PUSH2 0x13A6 SWAP1 PUSH2 0x21A6 JUMP JUMPDEST PUSH1 0x40 MLOAD DUP1 SWAP2 SUB SWAP1 REVERT JUMPDEST DUP2 DUP2 PUSH2 0x13BB SWAP2 SWAP1 PUSH2 0x1AAF JUMP JUMPDEST PUSH1 0x0 DUP1 DUP7 PUSH20 0xFFFFFFFFFFFFFFFFFFFFFFFFFFFFFFFFFFFFFFFF AND PUSH20 0xFFFFFFFFFFFFFFFFFFFFFFFFFFFFFFFFFFFFFFFF AND DUP2 MSTORE PUSH1 0x20 ADD SWAP1 DUP2 MSTORE PUSH1 0x20 ADD PUSH1 0x0 KECCAK256 DUP2 SWAP1 SSTORE POP DUP2 PUSH1 0x0 DUP1 DUP6 PUSH20 0xFFFFFFFFFFFFFFFFFFFFFFFFFFFFFFFFFFFFFFFF AND PUSH20 0xFFFFFFFFFFFFFFFFFFFFFFFFFFFFFFFFFFFFFFFF AND DUP2 MSTORE PUSH1 0x20 ADD SWAP1 DUP2 MSTORE PUSH1 0x20 ADD PUSH1 0x0 KECCAK256 PUSH1 0x0 DUP3 DUP3 SLOAD PUSH2 0x144B SWAP2 SWAP1 PUSH2 0x1AE3 JUMP JUMPDEST SWAP3 POP POP DUP2 SWAP1 SSTORE POP DUP3 PUSH20 0xFFFFFFFFFFFFFFFFFFFFFFFFFFFFFFFFFFFFFFFF AND DUP5 PUSH20 0xFFFFFFFFFFFFFFFFFFFFFFFFFFFFFFFFFFFFFFFF AND PUSH32 0xDDF252AD1BE2C89B69C2B068FC378DAA952BA7F163C4A11628F55A4DF523B3EF DUP5 PUSH1 0x40 MLOAD PUSH2 0x14AF SWAP2 SWAP1 PUSH2 0x17E5 JUMP JUMPDEST PUSH1 0x40 MLOAD DUP1 SWAP2 SUB SWAP1 LOG3 POP POP POP POP JUMP JUMPDEST PUSH1 0x0 PUSH20 0xFFFFFFFFFFFFFFFFFFFFFFFFFFFFFFFFFFFFFFFF AND DUP3 PUSH20 0xFFFFFFFFFFFFFFFFFFFFFFFFFFFFFFFFFFFFFFFF AND SUB PUSH2 0x152C JUMPI PUSH1 0x40 MLOAD PUSH32 0x8C379A000000000000000000000000000000000000000000000000000000000 DUP2 MSTORE PUSH1 0x4 ADD PUSH2 0x1523 SWAP1 PUSH2 0x2212 JUMP JUMPDEST PUSH1 0x40 MLOAD DUP1 SWAP2 SUB SWAP1 REVERT JUMPDEST PUSH2 0x1538 PUSH1 0x0 DUP4 DUP4 PUSH2 0x1610 JUMP JUMPDEST DUP1 PUSH1 0x2 PUSH1 0x0 DUP3 DUP3 SLOAD PUSH2 0x154A SWAP2 SWAP1 PUSH2 0x1AE3 JUMP JUMPDEST SWAP3 POP POP DUP2 SWAP1 SSTORE POP DUP1 PUSH1 0x0 DUP1 DUP5 PUSH20 0xFFFFFFFFFFFFFFFFFFFFFFFFFFFFFFFFFFFFFFFF AND PUSH20 0xFFFFFFFFFFFFFFFFFFFFFFFFFFFFFFFFFFFFFFFF AND DUP2 MSTORE PUSH1 0x20 ADD SWAP1 DUP2 MSTORE PUSH1 0x20 ADD PUSH1 0x0 KECCAK256 PUSH1 0x0 DUP3 DUP3 SLOAD PUSH2 0x159F SWAP2 SWAP1 PUSH2 0x1AE3 JUMP JUMPDEST SWAP3 POP POP DUP2 SWAP1 SSTORE POP DUP2 PUSH20 0xFFFFFFFFFFFFFFFFFFFFFFFFFFFFFFFFFFFFFFFF AND PUSH1 0x0 PUSH20 0xFFFFFFFFFFFFFFFFFFFFFFFFFFFFFFFFFFFFFFFF AND PUSH32 0xDDF252AD1BE2C89B69C2B068FC378DAA952BA7F163C4A11628F55A4DF523B3EF DUP4 PUSH1 0x40 MLOAD PUSH2 0x1604 SWAP2 SWAP1 PUSH2 0x17E5 JUMP JUMPDEST PUSH1 0x40 MLOAD DUP1 SWAP2 SUB SWAP1 LOG3 POP POP JUMP JUMPDEST POP POP POP JUMP JUMPDEST PUSH1 0x0 DUP2 MLOAD SWAP1 POP SWAP2 SWAP1 POP JUMP JUMPDEST PUSH1 0x0 DUP3 DUP3 MSTORE PUSH1 0x20 DUP3 ADD SWAP1 POP SWAP3 SWAP2 POP POP JUMP JUMPDEST PUSH1 0x0 JUMPDEST DUP4 DUP2 LT ISZERO PUSH2 0x164F JUMPI DUP1 DUP3 ADD MLOAD DUP2 DUP5 ADD MSTORE PUSH1 0x20 DUP2 ADD SWAP1 POP PUSH2 0x1634 JUMP JUMPDEST PUSH1 0x0 DUP5 DUP5 ADD MSTORE POP POP POP POP JUMP JUMPDEST PUSH1 0x0 PUSH1 0x1F NOT PUSH1 0x1F DUP4 ADD AND SWAP1 POP SWAP2 SWAP1 POP JUMP JUMPDEST PUSH1 0x0 PUSH2 0x1677 DUP3 PUSH2 0x1615 JUMP JUMPDEST PUSH2 0x1681 DUP2 DUP6 PUSH2 0x1620 JUMP JUMPDEST SWAP4 POP PUSH2 0x1691 DUP2 DUP6 PUSH1 0x20 DUP7 ADD PUSH2 0x1631 JUMP JUMPDEST PUSH2 0x169A DUP2 PUSH2 0x165B JUMP JUMPDEST DUP5 ADD SWAP2 POP POP SWAP3 SWAP2 POP POP JUMP JUMPDEST PUSH1 0x0 PUSH1 0x20 DUP3 ADD SWAP1 POP DUP2 DUP2 SUB PUSH1 0x0 DUP4 ADD MSTORE PUSH2 0x16BF DUP2 DUP5 PUSH2 0x166C JUMP JUMPDEST SWAP1 POP SWAP3 SWAP2 POP POP JUMP JUMPDEST PUSH1 0x0 DUP1 REVERT JUMPDEST PUSH1 0x0 PUSH20 0xFFFFFFFFFFFFFFFFFFFFFFFFFFFFFFFFFFFFFFFF DUP3 AND SWAP1 POP SWAP2 SWAP1 POP JUMP JUMPDEST PUSH1 0x0 PUSH2 0x16F7 DUP3 PUSH2 0x16CC JUMP JUMPDEST SWAP1 POP SWAP2 SWAP1 POP JUMP JUMPDEST PUSH2 0x1707 DUP2 PUSH2 0x16EC JUMP JUMPDEST DUP2 EQ PUSH2 0x1712 JUMPI PUSH1 0x0 DUP1 REVERT JUMPDEST POP JUMP JUMPDEST PUSH1 0x0 DUP2 CALLDATALOAD SWAP1 POP PUSH2 0x1724 DUP2 PUSH2 0x16FE JUMP JUMPDEST SWAP3 SWAP2 POP POP JUMP JUMPDEST PUSH1 0x0 DUP2 SWAP1 POP SWAP2 SWAP1 POP JUMP JUMPDEST PUSH2 0x173D DUP2 PUSH2 0x172A JUMP JUMPDEST DUP2 EQ PUSH2 0x1748 JUMPI PUSH1 0x0 DUP1 REVERT JUMPDEST POP JUMP JUMPDEST PUSH1 0x0 DUP2 CALLDATALOAD SWAP1 POP PUSH2 0x175A DUP2 PUSH2 0x1734 JUMP JUMPDEST SWAP3 SWAP2 POP POP JUMP JUMPDEST PUSH1 0x0 DUP1 PUSH1 0x40 DUP4 DUP6 SUB SLT ISZERO PUSH2 0x1777 JUMPI PUSH2 0x1776 PUSH2 0x16C7 JUMP JUMPDEST JUMPDEST PUSH1 0x0 PUSH2 0x1785 DUP6 DUP3 DUP7 ADD PUSH2 0x1715 JUMP JUMPDEST SWAP3 POP POP PUSH1 0x20 PUSH2 0x1796 DUP6 DUP3 DUP7 ADD PUSH2 0x174B JUMP JUMPDEST SWAP2 POP POP SWAP3 POP SWAP3 SWAP1 POP JUMP JUMPDEST PUSH1 0x0 DUP2 ISZERO ISZERO SWAP1 POP SWAP2 SWAP1 POP JUMP JUMPDEST PUSH2 0x17B5 DUP2 PUSH2 0x17A0 JUMP JUMPDEST DUP3 MSTORE POP POP JUMP JUMPDEST PUSH1 0x0 PUSH1 0x20 DUP3 ADD SWAP1 POP PUSH2 0x17D0 PUSH1 0x0 DUP4 ADD DUP5 PUSH2 0x17AC JUMP JUMPDEST SWAP3 SWAP2 POP POP JUMP JUMPDEST PUSH2 0x17DF DUP2 PUSH2 0x172A JUMP JUMPDEST DUP3 MSTORE POP POP JUMP JUMPDEST PUSH1 0x0 PUSH1 0x20 DUP3 ADD SWAP1 POP PUSH2 0x17FA PUSH1 0x0 DUP4 ADD DUP5 PUSH2 0x17D6 JUMP JUMPDEST SWAP3 SWAP2 POP POP JUMP JUMPDEST PUSH1 0x0 DUP1 PUSH1 0x0 PUSH1 0x60 DUP5 DUP7 SUB SLT ISZERO PUSH2 0x1819 JUMPI PUSH2 0x1818 PUSH2 0x16C7 JUMP JUMPDEST JUMPDEST PUSH1 0x0 PUSH2 0x1827 DUP7 DUP3 DUP8 ADD PUSH2 0x1715 JUMP JUMPDEST SWAP4 POP POP PUSH1 0x20 PUSH2 0x1838 DUP7 DUP3 DUP8 ADD PUSH2 0x1715 JUMP JUMPDEST SWAP3 POP POP PUSH1 0x40 PUSH2 0x1849 DUP7 DUP3 DUP8 ADD PUSH2 0x174B JUMP JUMPDEST SWAP2 POP POP SWAP3 POP SWAP3 POP SWAP3 JUMP JUMPDEST PUSH1 0x0 PUSH1 0xFF DUP3 AND SWAP1 POP SWAP2 SWAP1 POP JUMP JUMPDEST PUSH2 0x1869 DUP2 PUSH2 0x1853 JUMP JUMPDEST DUP3 MSTORE POP POP JUMP JUMPDEST PUSH1 0x0 PUSH1 0x20 DUP3 ADD SWAP1 POP PUSH2 0x1884 PUSH1 0x0 DUP4 ADD DUP5 PUSH2 0x1860 JUMP JUMPDEST SWAP3 SWAP2 POP POP JUMP JUMPDEST PUSH1 0x0 DUP1 PUSH1 0x40 DUP4 DUP6 SUB SLT ISZERO PUSH2 0x18A1 JUMPI PUSH2 0x18A0 PUSH2 0x16C7 JUMP JUMPDEST JUMPDEST PUSH1 0x0 PUSH2 0x18AF DUP6 DUP3 DUP7 ADD PUSH2 0x174B JUMP JUMPDEST SWAP3 POP POP PUSH1 0x20 PUSH2 0x18C0 DUP6 DUP3 DUP7 ADD PUSH2 0x174B JUMP JUMPDEST SWAP2 POP POP SWAP3 POP SWAP3 SWAP1 POP JUMP JUMPDEST PUSH1 0x0 PUSH1 0x20 DUP3 DUP5 SUB SLT ISZERO PUSH2 0x18E0 JUMPI PUSH2 0x18DF PUSH2 0x16C7 JUMP JUMPDEST JUMPDEST PUSH1 0x0 PUSH2 0x18EE DUP5 DUP3 DUP6 ADD PUSH2 0x1715 JUMP JUMPDEST SWAP2 POP POP SWAP3 SWAP2 POP POP JUMP JUMPDEST PUSH2 0x1900 DUP2 PUSH2 0x16EC JUMP JUMPDEST DUP3 MSTORE POP POP JUMP JUMPDEST PUSH1 0x0 PUSH1 0x20 DUP3 ADD SWAP1 POP PUSH2 0x191B PUSH1 0x0 DUP4 ADD DUP5 PUSH2 0x18F7 JUMP JUMPDEST SWAP3 SWAP2 POP POP JUMP JUMPDEST PUSH1 0x0 PUSH1 0x20 DUP3 DUP5 SUB SLT ISZERO PUSH2 0x1937 JUMPI PUSH2 0x1936 PUSH2 0x16C7 JUMP JUMPDEST JUMPDEST PUSH1 0x0 PUSH2 0x1945 DUP5 DUP3 DUP6 ADD PUSH2 0x174B JUMP JUMPDEST SWAP2 POP POP SWAP3 SWAP2 POP POP JUMP JUMPDEST PUSH1 0x0 DUP1 PUSH1 0x40 DUP4 DUP6 SUB SLT ISZERO PUSH2 0x1965 JUMPI PUSH2 0x1964 PUSH2 0x16C7 JUMP JUMPDEST JUMPDEST PUSH1 0x0 PUSH2 0x1973 DUP6 DUP3 DUP7 ADD PUSH2 0x1715 JUMP JUMPDEST SWAP3 POP POP PUSH1 0x20 PUSH2 0x1984 DUP6 DUP3 DUP7 ADD PUSH2 0x1715 JUMP JUMPDEST SWAP2 POP POP SWAP3 POP SWAP3 SWAP1 POP JUMP JUMPDEST PUSH32 0x4E487B7100000000000000000000000000000000000000000000000000000000 PUSH1 0x0 MSTORE PUSH1 0x22 PUSH1 0x4 MSTORE PUSH1 0x24 PUSH1 0x0 REVERT JUMPDEST PUSH1 0x0 PUSH1 0x2 DUP3 DIV SWAP1 POP PUSH1 0x1 DUP3 AND DUP1 PUSH2 0x19D5 JUMPI PUSH1 0x7F DUP3 AND SWAP2 POP JUMPDEST PUSH1 0x20 DUP3 LT DUP2 SUB PUSH2 0x19E8 JUMPI PUSH2 0x19E7 PUSH2 0x198E JUMP JUMPDEST JUMPDEST POP SWAP2 SWAP1 POP JUMP JUMPDEST PUSH32 0x45524332303A207472616E7366657220616D6F756E7420657863656564732061 PUSH1 0x0 DUP3 ADD MSTORE PUSH32 0x6C6C6F77616E6365000000000000000000000000000000000000000000000000 PUSH1 0x20 DUP3 ADD MSTORE POP JUMP JUMPDEST PUSH1 0x0 PUSH2 0x1A4A PUSH1 0x28 DUP4 PUSH2 0x1620 JUMP JUMPDEST SWAP2 POP PUSH2 0x1A55 DUP3 PUSH2 0x19EE JUMP JUMPDEST PUSH1 0x40 DUP3 ADD SWAP1 POP SWAP2 SWAP1 POP JUMP JUMPDEST PUSH1 0x0 PUSH1 0x20 DUP3 ADD SWAP1 POP DUP2 DUP2 SUB PUSH1 0x0 DUP4 ADD MSTORE PUSH2 0x1A79 DUP2 PUSH2 0x1A3D JUMP JUMPDEST SWAP1 POP SWAP2 SWAP1 POP JUMP JUMPDEST PUSH32 0x4E487B7100000000000000000000000000000000000000000000000000000000 PUSH1 0x0 MSTORE PUSH1 0x11 PUSH1 0x4 MSTORE PUSH1 0x24 PUSH1 0x0 REVERT JUMPDEST PUSH1 0x0 PUSH2 0x1ABA DUP3 PUSH2 0x172A JUMP JUMPDEST SWAP2 POP PUSH2 0x1AC5 DUP4 PUSH2 0x172A JUMP JUMPDEST SWAP3 POP DUP3 DUP3 SUB SWAP1 POP DUP2 DUP2 GT ISZERO PUSH2 0x1ADD JUMPI PUSH2 0x1ADC PUSH2 0x1A80 JUMP JUMPDEST JUMPDEST SWAP3 SWAP2 POP POP JUMP JUMPDEST PUSH1 0x0 PUSH2 0x1AEE DUP3 PUSH2 0x172A JUMP JUMPDEST SWAP2 POP PUSH2 0x1AF9 DUP4 PUSH2 0x172A JUMP JUMPDEST SWAP3 POP DUP3 DUP3 ADD SWAP1 POP DUP1 DUP3 GT ISZERO PUSH2 0x1B11 JUMPI PUSH2 0x1B10 PUSH2 0x1A80 JUMP JUMPDEST JUMPDEST SWAP3 SWAP2 POP POP JUMP JUMPDEST PUSH32 0x4F776E61626C653A2063616C6C6572206973206E6F7420746865206F776E6572 PUSH1 0x0 DUP3 ADD MSTORE POP JUMP JUMPDEST PUSH1 0x0 PUSH2 0x1B4D PUSH1 0x20 DUP4 PUSH2 0x1620 JUMP JUMPDEST SWAP2 POP PUSH2 0x1B58 DUP3 PUSH2 0x1B17 JUMP JUMPDEST PUSH1 0x20 DUP3 ADD SWAP1 POP SWAP2 SWAP1 POP JUMP JUMPDEST PUSH1 0x0 PUSH1 0x20 DUP3 ADD SWAP1 POP DUP2 DUP2 SUB PUSH1 0x0 DUP4 ADD MSTORE PUSH2 0x1B7C DUP2 PUSH2 0x1B40 JUMP JUMPDEST SWAP1 POP SWAP2 SWAP1 POP JUMP JUMPDEST PUSH32 0x5072696365206D7573742062652067726561746572207468616E203000000000 PUSH1 0x0 DUP3 ADD MSTORE POP JUMP JUMPDEST PUSH1 0x0 PUSH2 0x1BB9 PUSH1 0x1C DUP4 PUSH2 0x1620 JUMP JUMPDEST SWAP2 POP PUSH2 0x1BC4 DUP3 PUSH2 0x1B83 JUMP JUMPDEST PUSH1 0x20 DUP3 ADD SWAP1 POP SWAP2 SWAP1 POP JUMP JUMPDEST PUSH1 0x0 PUSH1 0x20 DUP3 ADD SWAP1 POP DUP2 DUP2 SUB PUSH1 0x0 DUP4 ADD MSTORE PUSH2 0x1BE8 DUP2 PUSH2 0x1BAC JUMP JUMPDEST SWAP1 POP SWAP2 SWAP1 POP JUMP JUMPDEST PUSH1 0x0 PUSH1 0x40 DUP3 ADD SWAP1 POP PUSH2 0x1C04 PUSH1 0x0 DUP4 ADD DUP6 PUSH2 0x17D6 JUMP JUMPDEST PUSH2 0x1C11 PUSH1 0x20 DUP4 ADD DUP5 PUSH2 0x17D6 JUMP JUMPDEST SWAP4 SWAP3 POP POP POP JUMP JUMPDEST PUSH32 0x45524332303A2064656372656173656420616C6C6F77616E63652062656C6F77 PUSH1 0x0 DUP3 ADD MSTORE PUSH32 0x207A65726F000000000000000000000000000000000000000000000000000000 PUSH1 0x20 DUP3 ADD MSTORE POP JUMP JUMPDEST PUSH1 0x0 PUSH2 0x1C74 PUSH1 0x25 DUP4 PUSH2 0x1620 JUMP JUMPDEST SWAP2 POP PUSH2 0x1C7F DUP3 PUSH2 0x1C18 JUMP JUMPDEST PUSH1 0x40 DUP3 ADD SWAP1 POP SWAP2 SWAP1 POP JUMP JUMPDEST PUSH1 0x0 PUSH1 0x20 DUP3 ADD SWAP1 POP DUP2 DUP2 SUB PUSH1 0x0 DUP4 ADD MSTORE PUSH2 0x1CA3 DUP2 PUSH2 0x1C67 JUMP JUMPDEST SWAP1 POP SWAP2 SWAP1 POP JUMP JUMPDEST PUSH32 0x54686973206974656D206973206E6F7420666F722073616C6500000000000000 PUSH1 0x0 DUP3 ADD MSTORE POP JUMP JUMPDEST PUSH1 0x0 PUSH2 0x1CE0 PUSH1 0x19 DUP4 PUSH2 0x1620 JUMP JUMPDEST SWAP2 POP PUSH2 0x1CEB DUP3 PUSH2 0x1CAA JUMP JUMPDEST PUSH1 0x20 DUP3 ADD SWAP1 POP SWAP2 SWAP1 POP JUMP JUMPDEST PUSH1 0x0 PUSH1 0x20 DUP3 ADD SWAP1 POP DUP2 DUP2 SUB PUSH1 0x0 DUP4 ADD MSTORE PUSH2 0x1D0F DUP2 PUSH2 0x1CD3 JUMP JUMPDEST SWAP1 POP SWAP2 SWAP1 POP JUMP JUMPDEST PUSH32 0x41646D696E2063616E6E6F7420627579206974656D7321000000000000000000 PUSH1 0x0 DUP3 ADD MSTORE POP JUMP JUMPDEST PUSH1 0x0 PUSH2 0x1D4C PUSH1 0x17 DUP4 PUSH2 0x1620 JUMP JUMPDEST SWAP2 POP PUSH2 0x1D57 DUP3 PUSH2 0x1D16 JUMP JUMPDEST PUSH1 0x20 DUP3 ADD SWAP1 POP SWAP2 SWAP1 POP JUMP JUMPDEST PUSH1 0x0 PUSH1 0x20 DUP3 ADD SWAP1 POP DUP2 DUP2 SUB PUSH1 0x0 DUP4 ADD MSTORE PUSH2 0x1D7B DUP2 PUSH2 0x1D3F JUMP JUMPDEST SWAP1 POP SWAP2 SWAP1 POP JUMP JUMPDEST PUSH32 0x496E73756666696369656E742047544E2062616C616E63652100000000000000 PUSH1 0x0 DUP3 ADD MSTORE POP JUMP JUMPDEST PUSH1 0x0 PUSH2 0x1DB8 PUSH1 0x19 DUP4 PUSH2 0x1620 JUMP JUMPDEST SWAP2 POP PUSH2 0x1DC3 DUP3 PUSH2 0x1D82 JUMP JUMPDEST PUSH1 0x20 DUP3 ADD SWAP1 POP SWAP2 SWAP1 POP JUMP JUMPDEST PUSH1 0x0 PUSH1 0x20 DUP3 ADD SWAP1 POP DUP2 DUP2 SUB PUSH1 0x0 DUP4 ADD MSTORE PUSH2 0x1DE7 DUP2 PUSH2 0x1DAB JUMP JUMPDEST SWAP1 POP SWAP2 SWAP1 POP JUMP JUMPDEST PUSH32 0x596F75206861766520616C726561647920736B696E0000000000000000000000 PUSH1 0x0 DUP3 ADD MSTORE POP JUMP JUMPDEST PUSH1 0x0 PUSH2 0x1E24 PUSH1 0x15 DUP4 PUSH2 0x1620 JUMP JUMPDEST SWAP2 POP PUSH2 0x1E2F DUP3 PUSH2 0x1DEE JUMP JUMPDEST PUSH1 0x20 DUP3 ADD SWAP1 POP SWAP2 SWAP1 POP JUMP JUMPDEST PUSH1 0x0 PUSH1 0x20 DUP3 ADD SWAP1 POP DUP2 DUP2 SUB PUSH1 0x0 DUP4 ADD MSTORE PUSH2 0x1E53 DUP2 PUSH2 0x1E17 JUMP JUMPDEST SWAP1 POP SWAP2 SWAP1 POP JUMP JUMPDEST PUSH32 0x4F776E61626C653A206E6577206F776E657220697320746865207A65726F2061 PUSH1 0x0 DUP3 ADD MSTORE PUSH32 0x6464726573730000000000000000000000000000000000000000000000000000 PUSH1 0x20 DUP3 ADD MSTORE POP JUMP JUMPDEST PUSH1 0x0 PUSH2 0x1EB6 PUSH1 0x26 DUP4 PUSH2 0x1620 JUMP JUMPDEST SWAP2 POP PUSH2 0x1EC1 DUP3 PUSH2 0x1E5A JUMP JUMPDEST PUSH1 0x40 DUP3 ADD SWAP1 POP SWAP2 SWAP1 POP JUMP JUMPDEST PUSH1 0x0 PUSH1 0x20 DUP3 ADD SWAP1 POP DUP2 DUP2 SUB PUSH1 0x0 DUP4 ADD MSTORE PUSH2 0x1EE5 DUP2 PUSH2 0x1EA9 JUMP JUMPDEST SWAP1 POP SWAP2 SWAP1 POP JUMP JUMPDEST PUSH32 0x45524332303A20617070726F76652066726F6D20746865207A65726F20616464 PUSH1 0x0 DUP3 ADD MSTORE PUSH32 0x7265737300000000000000000000000000000000000000000000000000000000 PUSH1 0x20 DUP3 ADD MSTORE POP JUMP JUMPDEST PUSH1 0x0 PUSH2 0x1F48 PUSH1 0x24 DUP4 PUSH2 0x1620 JUMP JUMPDEST SWAP2 POP PUSH2 0x1F53 DUP3 PUSH2 0x1EEC JUMP JUMPDEST PUSH1 0x40 DUP3 ADD SWAP1 POP SWAP2 SWAP1 POP JUMP JUMPDEST PUSH1 0x0 PUSH1 0x20 DUP3 ADD SWAP1 POP DUP2 DUP2 SUB PUSH1 0x0 DUP4 ADD MSTORE PUSH2 0x1F77 DUP2 PUSH2 0x1F3B JUMP JUMPDEST SWAP1 POP SWAP2 SWAP1 POP JUMP JUMPDEST PUSH32 0x45524332303A20617070726F766520746F20746865207A65726F206164647265 PUSH1 0x0 DUP3 ADD MSTORE PUSH32 0x7373000000000000000000000000000000000000000000000000000000000000 PUSH1 0x20 DUP3 ADD MSTORE POP JUMP JUMPDEST PUSH1 0x0 PUSH2 0x1FDA PUSH1 0x22 DUP4 PUSH2 0x1620 JUMP JUMPDEST SWAP2 POP PUSH2 0x1FE5 DUP3 PUSH2 0x1F7E JUMP JUMPDEST PUSH1 0x40 DUP3 ADD SWAP1 POP SWAP2 SWAP1 POP JUMP JUMPDEST PUSH1 0x0 PUSH1 0x20 DUP3 ADD SWAP1 POP DUP2 DUP2 SUB PUSH1 0x0 DUP4 ADD MSTORE PUSH2 0x2009 DUP2 PUSH2 0x1FCD JUMP JUMPDEST SWAP1 POP SWAP2 SWAP1 POP JUMP JUMPDEST PUSH32 0x45524332303A207472616E736665722066726F6D20746865207A65726F206164 PUSH1 0x0 DUP3 ADD MSTORE PUSH32 0x6472657373000000000000000000000000000000000000000000000000000000 PUSH1 0x20 DUP3 ADD MSTORE POP JUMP JUMPDEST PUSH1 0x0 PUSH2 0x206C PUSH1 0x25 DUP4 PUSH2 0x1620 JUMP JUMPDEST SWAP2 POP PUSH2 0x2077 DUP3 PUSH2 0x2010 JUMP JUMPDEST PUSH1 0x40 DUP3 ADD SWAP1 POP SWAP2 SWAP1 POP JUMP JUMPDEST PUSH1 0x0 PUSH1 0x20 DUP3 ADD SWAP1 POP DUP2 DUP2 SUB PUSH1 0x0 DUP4 ADD MSTORE PUSH2 0x209B DUP2 PUSH2 0x205F JUMP JUMPDEST SWAP1 POP SWAP2 SWAP1 POP JUMP JUMPDEST PUSH32 0x45524332303A207472616E7366657220746F20746865207A65726F2061646472 PUSH1 0x0 DUP3 ADD MSTORE PUSH32 0x6573730000000000000000000000000000000000000000000000000000000000 PUSH1 0x20 DUP3 ADD MSTORE POP JUMP JUMPDEST PUSH1 0x0 PUSH2 0x20FE PUSH1 0x23 DUP4 PUSH2 0x1620 JUMP JUMPDEST SWAP2 POP PUSH2 0x2109 DUP3 PUSH2 0x20A2 JUMP JUMPDEST PUSH1 0x40 DUP3 ADD SWAP1 POP SWAP2 SWAP1 POP JUMP JUMPDEST PUSH1 0x0 PUSH1 0x20 DUP3 ADD SWAP1 POP DUP2 DUP2 SUB PUSH1 0x0 DUP4 ADD MSTORE PUSH2 0x212D DUP2 PUSH2 0x20F1 JUMP JUMPDEST SWAP1 POP SWAP2 SWAP1 POP JUMP JUMPDEST PUSH32 0x45524332303A207472616E7366657220616D6F756E7420657863656564732062 PUSH1 0x0 DUP3 ADD MSTORE PUSH32 0x616C616E63650000000000000000000000000000000000000000000000000000 PUSH1 0x20 DUP3 ADD MSTORE POP JUMP JUMPDEST PUSH1 0x0 PUSH2 0x2190 PUSH1 0x26 DUP4 PUSH2 0x1620 JUMP JUMPDEST SWAP2 POP PUSH2 0x219B DUP3 PUSH2 0x2134 JUMP JUMPDEST PUSH1 0x40 DUP3 ADD SWAP1 POP SWAP2 SWAP1 POP JUMP JUMPDEST PUSH1 0x0 PUSH1 0x20 DUP3 ADD SWAP1 POP DUP2 DUP2 SUB PUSH1 0x0 DUP4 ADD MSTORE PUSH2 0x21BF DUP2 PUSH2 0x2183 JUMP JUMPDEST SWAP1 POP SWAP2 SWAP1 POP JUMP JUMPDEST PUSH32 0x45524332303A206D696E7420746F20746865207A65726F206164647265737300 PUSH1 0x0 DUP3 ADD MSTORE POP JUMP JUMPDEST PUSH1 0x0 PUSH2 0x21FC PUSH1 0x1F DUP4 PUSH2 0x1620 JUMP JUMPDEST SWAP2 POP PUSH2 0x2207 DUP3 PUSH2 0x21C6 JUMP JUMPDEST PUSH1 0x20 DUP3 ADD SWAP1 POP SWAP2 SWAP1 POP JUMP JUMPDEST PUSH1 0x0 PUSH1 0x20 DUP3 ADD SWAP1 POP DUP2 DUP2 SUB PUSH1 0x0 DUP4 ADD MSTORE PUSH2 0x222B DUP2 PUSH2 0x21EF JUMP JUMPDEST SWAP1 POP SWAP2 SWAP1 POP JUMP INVALID LOG2 PUSH5 0x6970667358 0x22 SLT KECCAK256 ADDMOD 0x2C INVALID 0xB2 0x49 0xEB 0x28 DUP15 RETURN MULMOD ADDMOD SWAP4 COINBASE PUSH9 0x9F91C38BBB31ADBAC8 SWAP15 0x24 0xEF 0xD6 0xB6 0xAE NUMBER 0xC PUSH21 0x64736F6C6343000812003300000000000000000000 "
				},
				"gasEstimates": {
					"creation": {
						"codeDepositCost": "1761600",
						"executionCost": "infinite",
						"totalCost": "infinite"
					},
					"external": {
						"allowance(address,address)": "infinite",
						"approve(address,uint256)": "infinite",
						"balanceOf(address)": "2952",
						"buyItem(uint256)": "infinite",
						"decimals()": "388",
						"decreaseAllowance(address,uint256)": "infinite",
						"hasPurchasedItem(address,uint256)": "3246",
						"increaseAllowance(address,uint256)": "infinite",
						"itemPrices(uint256)": "infinite",
						"mintGTN(address,uint256)": "infinite",
						"name()": "infinite",
						"owner()": "2567",
						"purchaseHistory(address,uint256)": "3177",
						"renounceOwnership()": "30355",
						"setItemPrice(uint256,uint256)": "infinite",
						"symbol()": "infinite",
						"totalSupply()": "2505",
						"transfer(address,uint256)": "infinite",
						"transferFrom(address,address,uint256)": "infinite",
						"transferOwnership(address)": "30788"
					}
				},
				"methodIdentifiers": {
					"allowance(address,address)": "dd62ed3e",
					"approve(address,uint256)": "095ea7b3",
					"balanceOf(address)": "70a08231",
					"buyItem(uint256)": "e7fb74c7",
					"decimals()": "313ce567",
					"decreaseAllowance(address,uint256)": "a457c2d7",
					"hasPurchasedItem(address,uint256)": "2293e27c",
					"increaseAllowance(address,uint256)": "39509351",
					"itemPrices(uint256)": "bf91ad9e",
					"mintGTN(address,uint256)": "c2b3b3c7",
					"name()": "06fdde03",
					"owner()": "8da5cb5b",
					"purchaseHistory(address,uint256)": "209936fe",
					"renounceOwnership()": "715018a6",
					"setItemPrice(uint256,uint256)": "4229c35e",
					"symbol()": "95d89b41",
					"totalSupply()": "18160ddd",
					"transfer(address,uint256)": "a9059cbb",
					"transferFrom(address,address,uint256)": "23b872dd",
					"transferOwnership(address)": "f2fde38b"
				}
			},
			"storageLayout": {
				"storage": [
					{
						"astId": 361,
						"contract": "Contract/Tokrnmaker1.sol:GTNToken",
						"label": "_balances",
						"offset": 0,
						"slot": "0",
						"type": "t_mapping(t_address,t_uint256)"
					},
					{
						"astId": 367,
						"contract": "Contract/Tokrnmaker1.sol:GTNToken",
						"label": "_allowances",
						"offset": 0,
						"slot": "1",
						"type": "t_mapping(t_address,t_mapping(t_address,t_uint256))"
					},
					{
						"astId": 369,
						"contract": "Contract/Tokrnmaker1.sol:GTNToken",
						"label": "_totalSupply",
						"offset": 0,
						"slot": "2",
						"type": "t_uint256"
					},
					{
						"astId": 371,
						"contract": "Contract/Tokrnmaker1.sol:GTNToken",
						"label": "_name",
						"offset": 0,
						"slot": "3",
						"type": "t_string_storage"
					},
					{
						"astId": 373,
						"contract": "Contract/Tokrnmaker1.sol:GTNToken",
						"label": "_symbol",
						"offset": 0,
						"slot": "4",
						"type": "t_string_storage"
					},
					{
						"astId": 246,
						"contract": "Contract/Tokrnmaker1.sol:GTNToken",
						"label": "_owner",
						"offset": 0,
						"slot": "5",
						"type": "t_address"
					},
					{
						"astId": 11,
						"contract": "Contract/Tokrnmaker1.sol:GTNToken",
						"label": "itemPrices",
						"offset": 0,
						"slot": "6",
						"type": "t_mapping(t_uint256,t_uint256)"
					},
					{
						"astId": 17,
						"contract": "Contract/Tokrnmaker1.sol:GTNToken",
						"label": "purchaseHistory",
						"offset": 0,
						"slot": "7",
						"type": "t_mapping(t_address,t_mapping(t_uint256,t_bool))"
					}
				],
				"types": {
					"t_address": {
						"encoding": "inplace",
						"label": "address",
						"numberOfBytes": "20"
					},
					"t_bool": {
						"encoding": "inplace",
						"label": "bool",
						"numberOfBytes": "1"
					},
					"t_mapping(t_address,t_mapping(t_address,t_uint256))": {
						"encoding": "mapping",
						"key": "t_address",
						"label": "mapping(address => mapping(address => uint256))",
						"numberOfBytes": "32",
						"value": "t_mapping(t_address,t_uint256)"
					},
					"t_mapping(t_address,t_mapping(t_uint256,t_bool))": {
						"encoding": "mapping",
						"key": "t_address",
						"label": "mapping(address => mapping(uint256 => bool))",
						"numberOfBytes": "32",
						"value": "t_mapping(t_uint256,t_bool)"
					},
					"t_mapping(t_address,t_uint256)": {
						"encoding": "mapping",
						"key": "t_address",
						"label": "mapping(address => uint256)",
						"numberOfBytes": "32",
						"value": "t_uint256"
					},
					"t_mapping(t_uint256,t_bool)": {
						"encoding": "mapping",
						"key": "t_uint256",
						"label": "mapping(uint256 => bool)",
						"numberOfBytes": "32",
						"value": "t_bool"
					},
					"t_mapping(t_uint256,t_uint256)": {
						"encoding": "mapping",
						"key": "t_uint256",
						"label": "mapping(uint256 => uint256)",
						"numberOfBytes": "32",
						"value": "t_uint256"
					},
					"t_string_storage": {
						"encoding": "bytes",
						"label": "string",
						"numberOfBytes": "32"
					},
					"t_uint256": {
						"encoding": "inplace",
						"label": "uint256",
						"numberOfBytes": "32"
					}
				}
			},
			"userdoc": {
				"kind": "user",
				"methods": {},
				"version": 1
			}
		}
	}
}